S027000044796E616D69634D756C746970726F746F636F6C44656D6F4C69676874536F632E733337E9
S31500000000C8590320B9D2040069F40100C9AC040040
S31500000010A70A02020002000004180FAC0060D40018
S3150000002000000000000000000000000000000000CA
S315000000300000000084FB0400000000000000000037
S315000000400000000000000000FFFFFFFFFFFFFFFFB2
S31500000050FFFFFFFFFFFFFFFFFFFFFFFFFFFFFFFFAA
S3150000006000D00F000000000000000000FFFFFFFFAF
S31500000070FFFFFFFF1C000000000000000000000062
S31500000080000000000000000001ED032001ED032048
S31500000090C859032028CC050008D60400C8570320F9
S311000000A0AC10002000F00F000000000073
S31500000200C8590320B9D2040069F40100C9AC04003E
S31500000210D1AC0400CDAC0400D5AC0400E1AC0400C4
S31500000220E1AC0400E1AC0400E1AC0400E1AC040084
S31500000230D9AC0400E1AC040043C80100E5B10000FC
S31500000240F5A5020041C5030075B20000E1AC04004B
S3150000025045C1030087C5030047C5030049C5030020
S3150000026043C503001BF3030071F50300F9ED01001C
S31500000270F7780200E1AC0400E1AC040059B90400CF
S31500000280E1AC0400E1AC04007FF50300E1AC04003E
S31500000290E1AC0400E1AC0400E1AC0400E1AC040014
S315000002A0E1AC0400E1AC0400E1AC0400E1AC040004
S315000002B089C5030045C50300D5EA0100BDC5030095
S315000002C0E1AC0400C9D40400E1AC0400E1AC0400D4
S315000002D0E1AC0400E1AC0400E1AC0400E1AC0400D4
S315000002E0E1AC0400E1AC0400E1AC0400E1AC0400C4
S315000002F0E1AC0400E1AC0400E1AC0400E1AC0400B4
S31500000300E1AC0400E1AC0400E1AC040010B57349B3
S31500000310734A01E021B1491E1369DC07FAD411B909
S315000003206FF0020010BD506001201060106910F0DF
S31500000330060F09D0410702D54FF0FF3010BD8007E8
S3150000034002D56FF0010010BD002010BDF0B50446C7
S3150000035010460B460022002B37D06049604D90B9FD
S3150000036000269E4231D254F8040BE860761C082021
S315000003702860084601E030B3401E2F69FF07FAD413
S315000003800028EED11FE0EFF3108072B600260FE0D2
S315000003902F6907F01907102F04BF10272F602F6948
S315000003A03F07F5D554F8047BEF60761C10272F60C5
S315000003B09E42F4D318B962B601E021B1491E2869FC
S315000003C0C307FAD409B96FF002021046F0BD2DE951
S315000003D0F047444C26682468434C266846F00106DC
S315000003E0814626600020970880468A461E4613E00E
S315000003F0C5F30A05C5F50065AD08A7EB0800A842D8
S3150000040038BF0546324629465046FFF79FFF010092
S315000004100CD1A8440AEB850AB84507D209EB880532
S315000004202846FFF773FF0100E2D003E02168490880
S3150000043049002160BDE8F0872A4A136812682A4AF3
S31500000440136843F001031360014691600121516076
S31500000450224851694B0706D51068400840001060D5
S315000004604FF0FF30704751698B0706D5106840087A
S31500000470400010606FF0010070470221516001E0FA
S3150000048020B1401E5169CB07FAD430B91068400834
S31500000490400010606FF0020070471168490849007B
S315000004A0116000207047002391E70F48016841F072
S315000004B00101016046F21A32C2644FF48071416054
S315000004C04169CA07FCD44FF4007242604169CA0709
S315000004D0FCD40022C2640020704700008096980079
S315000004E00C000E4004300E4008000E40B40500001B
S315000004F0190000000E0000002005000003000000A7
S315000005003C05000009000000E00600007607000038
S31500000510000000007707000000000000FFFFFFFF5B
S315000005200028012803280A18292A242A252A262AE7
S315000005300018002A012A0118052A0229C91B803D34
S3150000054061500C978D45197D965BE5BAD92A49E627
S3150000055078E24C9CD7495FB1AC37E17615AEDB1F2C
S3150000056014A5D4859745FD0B52EE162F2A080000D8
S31500000570000000002A07000000000000020602003A
S315000005804AEC032002050800686303200204050004
S31500000590D85F032002030300E05F03200202080085
S315000005A0E45F032002010C007263032020000400B4
S315000005B0D0D8032000000108FFFF000072070000EA
S315000005C002000108FFFF00006A0700000C00000897
S315000005D0FFFF0001AC0500000D000708FFFF000348
S315000005E00200000000000108FFFF0000660700008F
S315000005F002000108FFFF00005E070000040001087A
S31500000600FFFF0002A405000002000108FFFF000032
S315000006105607000005000108FFFF00019C050000C9
S3150000062002000108FFFF00004E0700000600010857
S31500000630FFFF00019405000002000108FFFF000013
S315000006404607000007000108FFFF00018C050000B7
S3150000065000000108FFFF0000420700000200010839
S31500000660FFFF00003A07000009000108FFFF000233
S315000006708405000002000108FFFF000032070000A9
S315000006800A000108FFFF00017C05000000000108C8
S31500000690FFFF00002007000002000108FFFF000026
S315000006A00A07000001800308FFFF00077405000029
S315000006B00D000708FFFF0003020701000200010802
S315000006C0FFFF0000F406000002800308FFFF00079A
S315000006D06C0500000D000708FFFF0003020802007A
S315000006E00300070009000B000D00100012001500A2
S315000006F01800000013002A180015AEDB1F14A5D43D
S31500000700859745FD0B52EE162F0013002A1500D9CA
S315000007102A49E678E24C9CD7495FB1AC37E17600CE
S315000007201000C91B803D61500C978D45197D965B65
S31500000730E5BA0500021200012A00050002100000B9
S315000007402A00020000180500020D00262A000500F6
S31500000750020B00252A000500020900242A000500D4
S31500000760020700292A0002000A18050020030005D6
S315000007702A0002000118000080B54748474A018850
S31500000780002000F0B7FB5328A8BF522002BD2DE978
S31500000790F04300F074F883B00A6892F8058040468A
S315000007A000F07CFF0646019400963AA3412200F031
S315000007B061F800F069F8FFF7DFFF8146E4B2B44262
S315000007C016DA2888C01C814512DB6A462146404657
S315000007D000F066FF50B1BDF8000001F0FBFB9DF88C
S315000007E0020001F0E8FB3878401C3870641CE5E72D
S315000007F03BE02DE9FE4300F042F80A6892F80580D6
S31500000800404600F04FFF06460194009621A342227F
S3150000081000F030F800F038F8FFF7AEFF8146E4B29A
S31500000820B44222DA2888083081451EDB6A46214612
S31500000830404600F039FFB0B1BDF8000001F0CAFB38
S315000008409DF8020001F0B7FBBDF8040001F0C2FB01
S31500000850BDF8060001F0BEFB9DF8080001F0ABFBF9
S315000008603878401C3870641CD9E700F0E0FA0120A3
S31500000870BDE8FE834FF48051092001F0FDBC04461B
S315000008800748084D0168704729880748471800201F
S3150000089001F091BB757500004CEC0320D4D8032001
S315000008A06CD903204EEC0320E0D8032080B502F07B
S315000008B0B5F8FF2805D0022803D2DFF8DC17085C5C
S315000008C002BD002002BD00B583B00221009101AB3C
S315000008D00022032102F077FA20B9BDF8040010B116
S315000008E0012000E00020C0B20EBDF0B5059D002637
S315000008F00027092D044602D300200021F0BDB4468E
S315000009000FE05FFA8CFCA5EB0C0020443F0210F8C8
S31500000910010C47EA1667002110EB06264F410CF141
S31500000920010C5FFA8CF0A842EBD39F4206D828BF91
S31500000930964203D2901B63EB0701F0BDB01A67EB3A
S315000009400301F0BD10B50168DFF850270B8813804E
S315000009504B8853804979117101680B7953714FF4B3
S315000009608251D18001688B79990644BF4FF4835137
S31500000970D180DFF82C278169137839B9C088DFF870
S315000009802417088003F0FD03137010BD43F0020323
S31500000990137016228169DFF81047204602F0EAFC40
S315000009A00020207010BD80B5002002F05CFDFF2005
S315000009B002F08DF802F065FD01F025FD02460121E9
S315000009C0DFF8D40602F019FDDFF8D036DFF8DC26B2
S315000009D0DFF8DC06522101F036FC02F08AFD02F057
S315000009E03BFE02F075FE02F0E1FE02F0B5FF03F0F9
S315000009F01FF803F0F9FE03F01AFF03F055FF04F0A9
S31500000A00F9FBBDE8014001F0D4BD02F026BE80B579
S31500000A1004F03EFE20B906F09AFA08B904F0AFF9E0
S31500000A2006F067FBBDE8014006F06FBB10B5024655
S31500000A3000214FF6FF70DFF87C3600E0491C89B2D2
S31500000A4033F83140844202D09442F7D1084610BDB3
S31500000A5038B50446FFF7EAFFDFF85C5601464FF665
S31500000A60FF722888914203D12246DFF8501606E02D
S31500000A70DFF8402602EBC1014A68DFF8441606F0AB
S31500000A8096FB2888BDE8324006F081BBDFF83416B5
S31500000A9010B504460878002882B03BD006F062FC08
S31500000AA00246DFF82416022006F081FB2068418802
S31500000AB000914379A289DFF81416022006F077FB2D
S31500000AC0022006F027FB18B120684088FFF7C0FF18
S31500000AD0E07B28B1228ADFF8F815022006F067FBD2
S31500000AE0E07CDFF8F0150090A0680278A37C022075
S31500000AF006F05DFB207DA289A168121A014401233C
S31500000B0092B2022006F050FCBDE81C40ABA10220C8
S31500000B1006F047BB13BD10B5044682B0216848797C
S31500000B2001F07CFFFF281DD0DFF8AC15227F01EB1A
S31500000B300010017B914215D12268408811888842B5
S31500000B4006D04FF6FF7399420CD1B0F5004F09DA83
S31500000B502079022818BF032806D11189507906F09A
S31500000B608DFE08B9002016BDA07B0028204602D0C5
S31500000B7006F0D2FE01E006F0FFFE00B1012016BD30
S31500000B8030B5144683B0227855074CBF05220322A0
S31500000B90934209D200920220DFF84025DFF8401583
S31500000BA006F0FFFA00203EBD089D069A28602971CE
S31500000BB0EA80AC60AB81207800F00100A873217850
S31500000BC0890801F00101E9732078C00800F00100EE
S31500000BD0687501202875E87B38B11A460121204640
S31500000BE001F056FA297D891C297507992882287DE6
S31500000BF0421C2A75205CA874501C2875D2B2A05CD1
S31500000C00E874A96107F00DFA287701203EBD2DE9A9
S31500000C10F14F84B00E469246DDF838900F9DDFF80E
S31500000C20C474DFF8C4149B463846202207F0B8FA8D
S31500000C30049802970195CDF800905B4652463146DE
S31500000C40FFF79EFF00240028DFF8A08466D0C8F8CE
S31500000C500070B87CDFF8981408703846FFF716FF66
S31500000C603846FFF76FFE384607F0EEFA28BB35BB6D
S31500000C70042E18BF052E03D0022E18BF032E01D155
S31500000C80012200E00022F98838680191418800912C
S31500000C9001210388F87C00F010F998B13868817951
S31500000CA088060FD4DFF84C44012020700022012171
S31500000CB0384600F0C2F80020207001242EE0287D7E
S31500000CC081072BD539684879FF2823D10025DFF81D
S31500000CD0CC9301F098FBE9B281421FD2E8B201F051
S31500000CE09FFE0646E8B201F092FB88B1386841885B
S31500000CF0304601F0E8FD58B13846FFF723FE386864
S31500000D00467189F804603846FFF705FF00B10124F3
S31500000D106D1CDEE73846FFF7FEFE044601F034F9A7
S31500000D2016220021DFF8800302F067FB0020C8F8D6
S31500000D30000005B02046BDE8F08FDFF8BC13087848
S31500000D40401C0870FFE700F07F007047DFF8501383
S31500000D500A78002814BF42F0010202F0FE020A706F
S31500000D607047DFF898130870704780B1DFF88C136E
S31500000D700978012904D1028842F0400202807047B6
S31500000D80022904D103884FF6BF710B4003807047D8
S31500000D9088B1DFF86C130A78012A06D100220A709E
S31500000DA0017841F0100101707047022A03D10278E0
S31500000DB042F0100202707047000000005D00000063
S31500000DC07CB5B74D04462878C10701D5002076BD0D
S31500000DD0B24EB01DFFF7C9FFB54AC5481178007875
S31500000DE04B074CBFD0705070B0482B7801889807DD
S31500000DF007D5AD4807F069FC297801F0FD01297097
S31500000E0076BDA84800884FF6FC73984208DA00922F
S31500000E100B46014601943246002007F03AFE76BDA5
S31500000E2013460A460094314607F001FE76BD0020BF
S31500000E30C6E70146AD480068002270B504460E4676
S31500000E402079002818BF012815460BD1A068017823
S31500000E50CA0601D5300005D0A07B002804BFE17C7E
S31500000E600B2901D1002070BD904800220280607DD0
S31500000E70E17B00280CBF0820002011B901F09BF887
S31500000E8006E040F0040001F096F8208A01F0A2F88E
S31500000E90A07C01F090F80B2001F08DF8E07C01F0C9
S31500000EA08AF8304601F087F82046FFF74BFD2846C2
S31500000EB0BDE8704084E70022BFE770B504461846D7
S31500000EC0904B8C4E1D78012D01D0337813B1002044
S31500000ED0307070BD0B0002D10AB1002070BD35B173
S31500000EE0049D0A462346294606F0D2F800B10120A1
S31500000EF070BD000038B5D2885224950648BF4924F3
S31500000F00550544BF083CE4B2150544BF083CE4B2AD
S31500000F101204034644BFA41EE4B20846032B4FF650
S31500000F20FD710ED8DFE803F00902060BC0B208F027
S31500000F3090F902E0C0B208F0C8FB014601E0641E69
S31500000F40E4B2084602F0EDFB241AE0B232BD425488
S31500000F500844120A427070470844110A0270417030
S31500000F60110C120E8170C2707047B0B505460C00A8
S31500000F700EBF00202078FF28174601D12870B0BD8B
S31500000F80204601F0A7F8874288BF07463A46611C0B
S31500000F90681C02F0EFF92F70B0BDB0B50C00054625
S31500000FA0174603D1002068702870B0BD2078FF284E
S31500000FB004BF6178FF2902D128706870B0BD204651
S31500000FC001F08DF8874288BF07463A46A11CA81C47
S31500000FD002F0D0F92F703F0A6F70B0BD2DE9F841CD
S31500000FE0A2F1010803B3042A47DC002300240027EA
S31500000FF0FDB2954227D2FFB2A8EB0706002814BF20
S3150000100010F806E04FF0000E551EED1B8E5DED004C
S315000010100EFA05FE06FA05F54EEA03032C437F1C7D
S31500001020E6E7A64226DB5B1CDCB2944225D2DBB2A5
S31500001030A8EB030400280CBF0026065D0C5DB44235
S31500001040EFDA01201AE0042A10DAD6000120D200D5
S31500001050761E00FA02F2524243FA06F0C00748BF73
S31500001060134344FA06F0C00748BF14439C42E8DB2A
S31500001070A34202DA4FF0FF3000E00020BDE8F28123
S315000010800021214A01E0891CC9B2535C8342FAD38C
S31500001090501840787047000054EC0320D4D8032041
S315000010A0D6EC03204CEC032070D903204EEC032031
S315000010B0E0D8032034B0050052EC03209CAF0500B5
S315000010C0B4AF0500BE630320BCAF0500C4AF050086
S315000010D0E4AF0500F0AF050098D703202CB005005B
S315000010E010B005004CD9032074B005006CD903205C
S315000010F0E1630320D3EC0320E2630320D4EC032056
S31500001100D5EC0320E063032094B0050028380828B6
S315000011108041C00F704710B500F009F8FF2801D1D3
S31500001120A32010BD002104F83010002010BD044695
S31500001130084601F073BC38B500F00BF8FF2801D162
S31500001140A32032BD294604EBC000BDE8344002F0BE
S3150000115001BA04460846154601F060BC81B040B1AC
S315000011601C280CD01D280DD01E2818BF1F2806D0FD
S315000011700AE00B39102907D2002001B070471B295D
S31500001180FADB01E00829F7DB8A20F6E780B5DFF80D
S31500001190E409DFF8E42901680A60016800F0EFFE5F
S315000011A0DFF8580A0168081D02BD70B500F022F884
S315000011B0417129688A712868A0F807304472286846
S315000011C0DFF8F81A01600DE070B500F013F8A0F82A
S315000011D00510A0F8072043722868DFF8CC1984723E
S315000011E02A681160296800F0CAFEDFF8100A016853
S315000011F0081D70BDDFF87C592E68049C3071286884
S315000012007047F8B51546FE2DDFF8F04902DB00F011
S3150000121045F812E0DFF8A06B376838713068417125
S3150000122031688A7119463068C01D06F0A9FF316819
S31500001230DFF8880B00F09FFE2068001DF2BDF8B5B0
S315000012401546FD2DDFF8B44902DB00F027F807E06C
S3150000125000F067F83168DFF8680B00F08CFE206854
S31500001260001DF2BDF8B51546FC2DDFF8904902DBEE
S3150000127000F014F810E0DFF8406B3768B8803A7277
S31500001280F98019463068093006F07AFF3168DFF8D0
S31500001290340B00F070FE2068001DF2BD20684FF48C
S315000012A0C57181807047F8B51E46FC2EDFF84C5993
S315000012B004DB28684FF4C57181801DE0DFF8B4783F
S315000012C0D7F800C0069C8CF804003868A0F8051012
S315000012D0C2711A463868037221463B6803F1090059
S315000012E006F04EFF3868DFF8E01A01EB06210160D0
S315000012F0396800F044FE2868001DF2BDF8B51546B1
S31500001300FD2DDFF8F84802DBFFF7C8FF07E000F025
S3150000131008F83168DFF8B40A00F02DFE2068001DD9
S31500001320F2BDDFF8946A376838713068C271A0F888
S31500001330051019463068083006F022BF704738B5E8
S31500001340DFF87C59DFF8881A00F010FE00950123BB
S31500001350002215210AE038B5DFF86859DFF8681968
S3150000136000F004FE00950123002218212046FFF715
S315000013709AFF31BD30B50D4683B004466A78DFF872
S315000013804C1900F0F5FD1022691CDFF844090192A2
S315000013900091402300780022062101F0CFFCDFF8FF
S315000013A0D40701680C7115220168A1F805200022F6
S315000013B0CA710168DFF81C2A0A60016851F8040B3B
S315000013C003B0BDE8304008F0C5BB80B5DFF8081AA9
S315000013D000F0EDFBDFF8041A00220A700020DFF8A7
S315000013E0001ADFF8002A08701070DFF8FC29107068
S315000013F001BD32B504460846DFF8C4180870DFF8A8
S31500001400E4190A78022A1CD1DFF8D459DFF8DC196E
S315000014102B7800F0C2FB287898B99DF80020DFF8F9
S31500001420B01900F0A5FD6B46012215212046FFF7F5
S3150000143065FF0120287047F23051DFF8A00908F057
S31500001440D7FB31BD30B585B00020DFF88448029067
S315000014500121019103AD207800F00EF9020007D1B9
S315000014609DF80C00411E8941C90F8DF80C1004E04F
S31500001470DFF87C19022005F094FE1020019003A9E4
S315000014800091402320780022062101F057FC0246F5
S31500001490DFF86019022005F084FE05B030BD00B506
S315000014A085B003F06CFC00208DF800000620ADF836
S315000014B0020040208DF806000120DFF814180A7893
S315000014C0ADF80C000021ADF80410ADF808100020AE
S315000014D0022104908DF80120ADF80E10684603F045
S315000014E05CFD05B000BDF1B5DFF80C59DFF80C194D
S315000014F088B0D5E9006701AC03A8C4E900671022EB
S3150000150006F04EFE03A901A808F07AFCBDF82000FB
S31500001510C0B204F0C5F904460220009008ABDFF81B
S31500001520B00700780022032101F016FC204609B01E
S31500001530F0BD10B5DFF8C8180020087082B008F0BA
S315000015402FFFDFF8C0180978062902D1BDE813403D
S3150000155078E7072930D102280CD0012009F04EF98E
S315000015600090DFF8A438DFF8A428DFF8A41800F00C
S3150000157011FB13BDDFF89C18087878B904F0ACF9B4
S3150000158020B1BDE81640002004F08AB9B420FFF768
S31500001590AAFF88B9E2B2DFF8801807E009F0EBFA93
S315000015A0044608F013FA2246DFF8701802B0BDE8C8
S315000015B01040022005F0F5BD13BDDFF864180020C9
S315000015C00870704780B5902802D0912810D016E098
S315000015D0B420FFF788FF90B9902100910120DFF831
S315000015E04438DFF84428DFF8281805F0DAFD06E06D
S315000015F0DFF83818DFF81C2800200870107000206B
S3150000160002BD80B542F21071DFF8140808F0F0FA56
S31500001610FFF745FF0020DFF8181800220A2313FB06
S3150000162000F3401CCA540528F8DB01BD70470029A9
S3150000163000D0704730B585B00124029103AD019406
S3150000164000F01AF8B0B99DF80C00DFF8E84730B999
S3150000165009F070FC002009F06DFC002106E0002076
S3150000166009F067FC002009F064FC01212088C0B263
S31500001670FFF7BFFE05B030BD0095402300220621CE
S3150000168001F097BB012070470120704770477047F3
S3150000169070470020704770477047704700207047BA
S315000016A00020704700207047002070477047704741
S315000016B000207047000000002DE9F04F044685B079
S315000016C02368DFF87407DFF8AC14DFF868A70A6848
S315000016D0DFF85C77DFF864B70340DFF8640783421E
S315000016E00FF22C39CBA64FF00A0870D0DFF854075A
S315000016F0834200F09181DFF85007834200F0618158
S31500001700DFF84807834200F0E481DFF844078342AC
S3150000171000F05A81DFF83C07834200F09081DFF841
S31500001720380783422BD0DFF83407834200F0D88095
S31500001730DFF82C07834200F0EE81DFF828078342AA
S3150000174000F09281DFF8200783422BD0DFF81C07D8
S31500001750834260D0DFF81807834200F09881DFF8F3
S315000017601407834200F0C980DFF80C07834200F0BB
S315000017705A81DFF80807834200F0DF81E4E10025A3
S31500001780DFF8FC66DFF8FC7638688542F6D200F0B2
S31500001790E7F905D1301D50F8351009B12079884791
S315000017A06D1CF1E7DFF8E066DFF8E07600253868C3
S315000017B08542E3D200F0D4F907D1301D50F8352028
S315000017C01AB1207904F10A0190476D1CEFE7DFF8A2
S315000017D0C0061060096800F0D2FBDFF8200401683B
S315000017E00C1DFFF7D3FC05462088DFF8A816002855
S315000017F00CBFDFF8A426DFF8A42600F0B9FBDFF85B
S31500001800A01600F0CEF9284600F034FA00F0CEF922
S3150000181000F063FA98E1E279DFF88816DFF8C85538
S31500001820DFF8C075DFF8B465DFF8B49500F0A0FB0B
S315000018302389B4F80520DFF8701600F0AEF9E079D8
S31500001840022831D1002089F800003070387802284B
S3150000185001BF2A78022AB4F8050015283BD1DFF823
S3150000186064140B78BAF800408DF8003099F800003F
S3150000187088BB99F80030DFF8341600F08EF99DF831
S315000018800020DFF8441400F073FB6B460122182198
S31500001890E0B2FFF733FD012089F8000047F230512E
S315000018A0304608F0A5F916E0012814D1B4F8050071
S315000018B0152802D12089387003E0182804BF208932
S315000018C02870287802281CBF3978022903D1002005
S315000018D089F8000030702B783A78DFF8D41531E1BA
S315000018E06079DFF8D0150390A0790290E079019035
S315000018F0207A0090637AA27A1CE1DFF8BC1500F02A
S3150000190056F9002618FB06F0385C002800F01F8107
S31500001910761CF6B2042EF5DDFF2640F2E63100F025
S3150000192025F918FB06F0391801220A70E27A02B18D
S3150000193001224A703B1D227B8A701844627BCA7062
S31500001940211D062206F01CFC207BDFF87015AAF884
S31500001950000018FB06F80120087007EB0804DFF802
S31500001960601505F01EFC042E01DC207818B94FF432
S31500001970B46100F0FBF8DFF84C1500F018F9A27816
S31500001980DFF8441500F0F4FAE278DFF8401500F0CD
S31500001990EFFA6078DFF83815002814BFDFF8342531
S315000019A0DFF8342500F0E4FADFF8301500F0F9F836
S315000019B0381D404400F05EF900F0F8F8DFF8201515
S315000019C084E0DFF8201581E0A1790026BB1C08FB26
S315000019D006F2B85C18B19A5C8A4200F0BC80761CAC
S315000019E0042EF4DDFF2640F2034100F0BFF818FB99
S315000019F006F8002007F80800AAF80000DFF8BC1473
S31500001A00087000F06AF9A388A279DFF8DC1499E07F
S31500001A10000000005D000000227BDFF8D01400F01B
S31500001A20B2F8A01D07E0E37A2279DFF8C41401209A
S31500001A3005F0BDFB601D00F01DF9494646E0D4F8EF
S31500001A4005302279DFF8AC1400F0A7F800F0A8F80A
S31500001A50002504E004F10A0000F092F86D1C617A9A
S31500001A60E8B28842F6D330E0E079DFF88C1400F073
S31500001A708DF800F095F8002504E004F1090000F067
S31500001A807FF86D1C217AE8B28842F6D31DE0E07932
S31500001A901D2808D120791071DFF8602408680260DB
S31500001AA0096800F06CFAE079DFF8541400F06EF87B
S31500001AB0DFF8501400F075F8002502E000F05EF83B
S31500001AC06D1CA17AE8B28842F8D3314600F06FF86F
S31500001AD03AE0E079DFF8301400F058F8DFF8241423
S31500001AE000F05FF8002502E000F048F86D1CA17ACE
S31500001AF0E8B28842F8D3314600F059F81020019038
S31500001B00402304F10B000090002271480078062162
S31500001B1001F014F918E0A089DFF8F0130390E07AD9
S31500001B200290B4F809000190B4F807000090B4F8E8
S31500001B300530227900F02EF806E0B4F80530227957
S31500001B40DFF8CC1300F029F805B0BDE8F08FFF2EC2
S31500001B507FF4E7AEE1E6F6B2FF2E7FF448AF42E748
S31500001B6036F83500B4F8051088427047DFF8A4034C
S31500001B7009F0E6B990DD03202000010304F10B0013
S31500001B80EDB25946425D012005F011BB0090B4F854
S31500001B9005302279012005F004BB012005F001BBC8
S31500001BA0DD49012005F003BB2007030B4946012050
S31500001BB005F0F7BA0020704738B501290446D74D1D
S31500001BC005D1072818D109F0B5FA288031BD99B991
S31500001BD007280AD109F0AEFA2988401A40F6B93228
S31500001BE0904202DB8B4A01201070864984480C70B3
S31500001BF0BDE8324007F0F2BF31BD000094DD03209E
S31500001C0000207047002070470020704730B5022B37
S31500001C1085B00C4621D100256946284607F05BFDB4
S31500001C209DF80000012804BFBDF80200062806D171
S31500001C30082221460DF1050001F0E6FB20B16D1CDE
S31500001C40EDB2022DE8DB0DE0284607F09AFD2A46A4
S31500001C50B349022005F0A5FA04E0012B04BF0020D9
S31500001C6003F01EFE05B030BD002070470021AD48D0
S31500001C7007F0BEBF00B585B00178039141780291A7
S31500001C8081780191C178009103794279A6490120B2
S31500001C9005F08DFA05B000BD80B500200DF80000F6
S31500001CA0401C0228FADB6B46022200210020FFF7C7
S31500001CB0C6FA00219D4807F09BFF01BD2006030AD6
S31500001CC0BCEC0320BD630320B4140500C814050052
S31500001CD098D7032003214172704738B53648944C93
S31500001CE00168944D00228A80934A0A60016800F0D8
S31500001CF046F9FFF74BFA914A038803F0FF0000907C
S31500001D001B0A0821204609F077FA22468C4900F082
S31500001D102FF9204609F092FAC2B22346002110207C
S31500001D20FFF7A0FA08222146681D01F023FB2B4687
S31500001D301F2200210020FFF764FA8249028800F082
S31500001D4017F9012000900723A022A0210020FFF709
S31500001D503BFA5A49087828B1002200920023042150
S31500001D60002003E00090002302220421FFF71DFA61
S31500001D707549FFF71CFF754B1E2200210120FFF756
S31500001D8040FA00F0E7F80120FFF71EFA00F0E8F845
S31500001D90FFF70BFA6E4B182200210220FFF731FAEB
S31500001DA000F0D8F80220FFF70FFA00F0D9F8022069
S31500001DB0FFF7FBF931BD000090DD03202003030C83
S31500001DC02004090A20050A0220050A0320040A0540
S31500001DD0A014050020040A04E0140500E4D603203C
S31500001DE0B9EC0320BAEC0320BBEC03202015050058
S31500001DF0B0150500C8150500E4150500EC1505002D
S31500001E00DCD60320BEEC03202416050010160500C0
S31500001E10FC150500BFEC03202C1605004416050032
S31500001E20CCD603205C16050054160500D4D6032034
S31500001E30ECD6032044EC0320F800FFFFE41805006D
S31500001E40A0000100A0000300A0000800A0000A00F6
S31500001E50A0000801A0000901A0000A01A0000302D9
S31500001E60A0000802A0000902A0000A02A0000A03BE
S31500001E70A0000904A0000805A0000F05A00009069F
S31500001E80CC1B0500D05E0320E41B0500D45E0320B6
S31500001E90200001006816050078160500801605006A
S31500001EA08816050098160500B81605006415050085
S31500001EB0F4160500381705006C170500BDEC032065
S31500001EC0CC170500B81A0500D41A0500EC1A05004F
S31500001ED0041B0500181B0500201B0500281B050018
S31500001EE03C1B0500E4170500101805004418050002
S31500001EF070180500A4180500EC1805002001090D4E
S31500001F00381905009019050098190500E81905000B
S31500001F10681A05009C170500DC18050046EC03202E
S31500001F209C1A0500BCD60320581B0500C4D6032006
S31500001F3020D70320B05E03202002010A6C1B050097
S31500001F40781B0500881B0500A81B0500785E03208A
S31500001F50985E0320002000900723A022A02170474E
S31500001F600120009000230022042170472A780446AD
S31500001F70012005F016B900EB05200860316851F81C
S31500001F80040B07F0E7BD704780B54C490020087088
S31500001F9008F002FA4A49088052220021494801F015
S31500001FA02CFA4949002008800C22BDE8084000218F
S31500001FB0464801F022BA10B543490A88522A07DA80
S31500001FC0404CA054521C0A8092B2A018401E10BD6C
S31500001FD0002010BD38B50546C0B2FFF7ECFF044639
S31500001FE0280AFFF7E8FF002C18BF002801D020467A
S31500001FF032BD002032BDF8B50746C0B2FFF7DBFFA1
S3150000200006463804000EFFF7D6FF05463802000ED6
S31500002010FFF7D1FF0446380EFFF7CDFF002E18BF9D
S31500002020002D05D0002C18BF002801D03046F2BD87
S315000020300020F2BDF8B5244D2B880C462646F11833
S3150000204052290CDA1F4F01462246F81801F092F980
S31500002050288824182C80A4B2A41B3819F2BD0020AD
S31500002060F2BD30B504460020CD18AA4208DA30BDCC
S3150000207051FA83F222445B1E12F8012C02EB002077
S31500002080DAB2002AF4D130BD0423EAE70323E8E7F5
S3150000209080B50223FFF7E5FF80B202BD18B50346FF
S315000020A091420B4808D25C5CFF2C08BF00240C1937
S315000020B0641CA242A8BF581812BD0000D6EC03202B
S315000020C04CEC0320E0D803204EEC0320D4D80320A8
S315000020D050EC03200078FF2808BF0020704780B529
S315000020E002220021FFF7D4FF4FF6FF71884208BF96
S315000020F0002002BD2DE9F74F02291D4640F39E80C0
S31500002100290007D0BDF804100529F7DB42F00402C8
S315000021108DF80820834602A8FEF73AFE9DF80810BF
S315000021208BF800100124280005D0280A8BF80150EE
S315000021308BF802000324DDF838A00C9DFEF7FDFDA8
S315000021400BF80400641CA4B200270BF80450641CAE
S3150000215007E02A4641460BEB040001F00BF92C1967
S315000021607F1C0D98FFB2C05D002869D000264FF095
S3150000217000097328C84637DC4C285AF8048B1CBF64
S315000021805328622814D15AF8045B4C2807D1ADB203
S31500002190A9464FF6FF70814538D0022636E053280F
S315000021A034D15FFA85F9B9F1FF0F2FD001262DE062
S315000021B06C2804D14046FFF792FF851C26E0732861
S315000021C004D14046FFF786FF451C1FE0A0F1300111
S315000021D00A2938BFA0F1300518D3A0F14102072A19
S315000021E02CD2A0F1370511E00025752808BF01267D
S315000021F00AD0762808BF022606D0782808BF03260C
S3150000220002D077281AD104265AF8049BADB2BDF83D
S31500002210040015FA84F18919884206DA0EE00BF8F3
S315000022200490641C4FEA1929761EF1B20029A4B263
S31500002230F5D1002D94D0B8F1000F8AD1002000E02E
S31500002240A0B2BDE8FE8F10B5484C2060484801801A
S31500002250484802604848036010BD70B584B00C461B
S3150000226009AD08990295009301911346404D3F4EE2
S315000022702988024630680CE070B584B00C4608A97F
S31500002280009202913A4D394E0193024629883068F0
S315000022900023FFF72FFF37490A68054636481580A1
S315000022A04FF4825100684480C180801DFEF75DFDB9
S315000022B0284604B070BD38B52E4C256829880346DB
S315000022C02A4802682C48006801B0BDE8304006F094
S315000022D00DBC0020EFE770B584B000F01DF806F0E5
S315000022E04FFB04B070BD0023F5E77CB50192214D8C
S315000022F01E4A2E68146800941F4C3388226806F024
S31500002300C8FB76BD0022F0E770B584B000F004F893
S3150000231006F0A2FB04B070BD164C174E256800915E
S315000023200293019211490B682A883168704700238D
S31500002330EAE7F0B50D4D0F4F2E6885B003963E685F
S315000023400A9C3588019402950B4C25686E88009688
S3150000235006F000FC05B0F0BD074800687047064A65
S3150000236013681871106841717047000014D8032073
S3150000237048EC032018D803201CD803203FB5DFF80B
S315000023802829DFF8280913680088ADF8060003A994
S31500002390DFF81C090568DFF81C0900880B60ADF83A
S315000023A0020002ACDFF81019DFF810090988ADF851
S315000023B004100222002102702560ADF80010DFF83B
S315000023C000090DF10603DFF8FC285B5C02EB011245
S315000023D0137003AB33F81130538002AB33F811306E
S315000023E0938001AB5B5C93710DF102035B5C00EBC8
S315000023F0C30494601DF801301373491C012302299C
S315000024005373DEDB3FBDDFF8B40800787047DFF8B2
S31500002410B41801EB0010407B00F001007047412822
S3150000242018BF422881B003D0432818BF442801D1E1
S31500002430012000E0002001B07047412818BF422863
S3150000244001D10120704700207047432818BF442857
S3150000245001D10120704700207047F8B51546069A4D
S3150000246004461E4600F03CFA60B1042100F0BCFBB5
S31500002470070007D0204600F0FBFF324629462046DB
S31500002480B84792E0F1BD2DE9FC4714001CBF0A9D38
S31500002490002D814688461F461ED0EFB128780107D9
S315000024A0618820794CBF4022802200F019FA98B149
S315000024B0082100F099FB824670B10B9E207900F04E
S315000024C0D7FF019600953B46224641464846D047EF
S315000024D0BDE8F34700F0D5BFBDE8F387F8B516466B
S315000024E005461A4600F0FCF9D8B1069C21000BD12E
S315000024F0022100F079FB040013D0284600F0B8FF53
S3150000250031462846A0470BE0102100F06DFB07007E
S3150000251007D0284600F0ACFF224631462846B84789
S3150000252043E0F1BD2DE9F843904606461A4600F011
S31500002530D7F908B9862017E00899002499B920210F
S3150000254000F052FB814670B10B9F0A9C099D3046F4
S3150000255000F08EFF009723462A4641463046C8477C
S31500002560044600F08EFF2046BDE8F283F8B5044627
S31500002570A568207800F07CFF002612E02968F6B2F4
S31500002580142010FB06F00F182078398804F07FFD20
S315000025900121384600F028FB01001CBF207888473F
S315000025A0761C2979F0B28842E8D3BDE8F14000F004
S315000025B068BF38B50024DFF804570AE0DFF80407DF
S315000025C0E4B200EB0410417BCA0748BFFFF7CEFF19
S315000025D0641C2978E0B28842F0D331BD30B585B0AD
S315000025E0089C8DF80800ADF80A108DF80C30ADF88F
S315000025F00E2000250195ADF810400095002300221D
S3150000260001A902A800F057F8019805B030BD10B531
S31500002610002301E05B1C001D9CB28C4204D204889E
S315000026209442F7D1408810BD002010BD0288B2F553
S315000026307C4FA8BF00F00BB8DFF88C06091A0C22F5
S3150000264091FBF2F18AB20021DFF88006DFE7DFF8BE
S315000026508016401A142290FBF2F292B20021DFF8A3
S315000026607406D4E710B50C460188628891420DD1F4
S31500002670027B23791A4209D0B1F57C4F04DBFFF7C0
S31500002680E6FF2189884201D1012010BD002010BD3E
S3150000269010B514460A88E3889A420AD10288B2F530
S315000026A07C4F04DAFFF7C2FF2189884201D101205D
S315000026B010BD002010BD2DE9F74F002605469846AF
S315000026C0B14606E0C8888619B6B209F101005FFA7C
S315000026D080F9DFF8E8150A78914580F0D080DFF8B8
S315000026E0E4052A7800EB0910017891428168E9D166
S315000026F00091407BC107E8D54FF0000A04E07889D5
S315000027008619B6B20AF1010A00990A795FFA8AF0C7
S315000027109042DAD209685FFA8AFA142212FB0AF2A8
S315000027208F1829463846FFF79DFF0028E7D04FF05F
S31500002730000B08E0207910F0300F02D1E07836184F
S31500002740B6B20BF1010B39891FFA8BF08842D9D248
S3150000275078681FFA8BFB0C2101FB0BF144182A4603
S3150000276021463846FFF794FF0028E3D001990097E9
S3150000277001B10C6021798A0611D5DFF84C050021DC
S3150000278006E00279930602D5C278891889B20C3020
S31500002790A042F6D3DFF8400500EB010A03E0DFF8BC
S315000027A03C1501EB060ADDF83090029EB9F1000FE8
S315000027B048461BD00098DFF828B52146FFF736FFBC
S315000027C0024623886988287804F05FFC3746F8B10A
S315000027D02079C1061ED500982146FFF727FF0096EF
S315000027E00346698828782246D84749E0002E47D014
S315000027F00098DFF8F0B42146FFF718FF0246238859
S315000028006988287804F03FFC57460028B246DFD195
S315000028107E2035E0A678B8F1000F0CBFE578454676
S315000028203046FFF70AFE30B16A1ED2B2394650462C
S31500002830FEF79BFB21E03046FFF707FE30B1AA1EEC
S3150000284092B239465046FEF7A8FB16E0B9F1000FE2
S3150000285007D1B8F1000F04D0E078804538BF892051
S315000028600ED3002F2A4604D10021504600F0C5FDA4
S3150000287003E03946504600F07DFD002000E086204A
S31500002880BDE8FE8FE0B500250679EBB2B34218D25B
S315000028900368EDB2142616FB05F633441E888E42F5
S315000028A00DD1160004D0802A04D11E7B370606D52A
S315000028B01846E0BD402A02D11E7B7706F8D46D1C6F
S315000028C0E2E70020E0BD80B5002201E080B54022AD
S315000028D000F006F800B1012002BD80B58022F7E7BE
S315000028E038B50C46154600F099F8FF2801D10020AE
S315000028F032BD05E038B50C461546002100F031F82A
S31500002900DFF8C03303EB00102A4680682146BDE895
S315000029103840B7E74022FFE72DE9F0478246884670
S315000029209146FFF7DDFF002408B9FF2017E00027D6
S31500002930DFF89053DFF884633178F8B288420DD21D
S31500002940FFB23801285C504508D04A464146FFF799
S31500002950D1FF08B1641CE4B27F1CEDE72046BDE858
S31500002960F08770B50022DFF85C33DFF850532E781D
S31500002970D4B2B4420CD2D2B214011E5D864205D145
S315000029800D0007D01C44647BE50703D4521CECE71A
S31500002990FF2070BD104670BD80B50021FFF7E1FF36
S315000029A0FF2801D1002002BD00F065F8407B00F051
S315000029B0010002BD70B50D4682B004460021FFF746
S315000029C0D0FFFF2801D1002076BDDFF8F81201EB19
S315000029D000162A00707B00F0010114BF40F00100D0
S315000029E0002095EA010F707316D085B13046FFF7C7
S315000029F0BDFD11E00068EDB2142111FB05F108449C
S31500002A00027B0188D209204600F0F8FD6D1CB068F3
S31500002A100279E9B29142EDD3012076BD0121A0E70A
S31500002A20DFF8A0120001085C704738B50C46FFF7C6
S31500002A30F5FF01460020FF291FBFDFF8882202EBC1
S31500002A4001118968002915D000220D79D3B2AB4255
S31500002A500FD20B68D2B2142515FB02F52B44451C88
S31500002A601B7B0CB91B0600E05B0648BF2846521CC0
S31500002A70EBE7C0B232BD934901EB00107047F8B5E1
S31500002A800C461546FFF7CAFF0021FF281DD08D4BC7
S31500002A90002203EB001301E0491C521C98680779D9
S31500002AA0D6B2BE4211D20068D2B2142616FB02F686
S31500002AB030442F00067B02D0760602D4EDE73606B8
S31500002AC0EBD5CEB2A642E7D1F2BD0020F2BD002181
S31500002AD009E010B50446012100F005F82046BDE8DE
S31500002AE0104005F0B0BB2DE9F04F85B0814605F0EA
S31500002AF098FA04900026DFF8CCA107E0F6B20AEBBC
S31500002B000610017B049881420ED0761C6B490A7828
S31500002B10F0B2904249D2B9F1FF0FEFD04846FFF725
S31500002B207DFF0646FF2E40D04FF0000B4FEA0618F9
S31500002B3040E00328ACBFA26804F10802012000901F
S31500002B400023002101A8FFF7B6FD7F1C2989B8B232
S31500002B5088422DD26868BFB20C2179434418207987
S31500002B60C106F2D41AF808108DF804102888ADF8BA
S31500002B700600207941064CBF802040208DF80800D1
S31500002B8021462088ADF80A002846FFF74FFDADF82C
S31500002B900C002179E0784A07CBD5A2680328CDDB63
S31500002BA01268CBE7B9F1FF0FAFD005B0BDE8F08FE3
S31500002BB00BF1010B0AF108005FFA8BF150F80800DF
S31500002BC002799142EED200685FFA8BFB142111FB69
S31500002BD00BF1451840F22D1128898842A8BF08F04C
S31500002BE063FB0027B2E7704730B5047B0122002360
S31500002BF00C4205D1002030BD144218BF5B1C5200A8
S31500002C00D5B28D42F8D30069DBB250F8230030BD4F
S31500002C102DE9F04F9A460E4601230028707D914615
S31500002C204FF0000C07D010B94FF0020E09E0012852
S31500002C3005D19E4605E010B94FF0080E01E04FF0B1
S31500002C40040EDDF830800B990A9CDDF824B00025CF
S31500002C503246254800EB8506308848451BD1F0787A
S31500002C6010EA0E0F17D0B078884214D3F778D07BCD
S31500002C70FF0601D508B90EE068B9E04511D0DC457C
S31500002C800FDAB0780AF80C002088401C20800CF17E
S31500002C9001001FFA80FC6D1C3C2DDADB1846BDE8EE
S31500002CA0F08F0023FAE70000FC2205008AC3050026
S31500002CB0002305008EC305008CC30500C2EC03206B
S31500002CC07426050098D70320A82405008826050049
S31500002CD0D425050084260500ECD70320B8D70320A9
S31500002CE0AD700000A9700000B82305002DE9F0477B
S31500002CF086B00F9F109D0E9C0295019706468A4648
S31500002D0090469946009404F0BCF918B1022803D005
S31500002D1002D310E001200EE00CBF012000200021AC
S31500002D20049103900295019700944B464246514602
S31500002D30304600F0FCF906B0BDE8F087F0B585B086
S31500002D400A9D0B9C00F021F8009617E070B586B03E
S31500002D5000F00BF8802304E070B586B000F005F8AB
S31500002D60402300F0E4F906B070BD0A9C01930025EB
S31500002D7001260495039602940095704700F0D7F952
S31500002D8005B0F0BD0A9D0B9C009300260127049612
S31500002D900397029401957047F0B585B00127049713
S31500002DA00A9D0B9E0C9C00270397029401960095A2
S31500002DB0E4E77FB5099C089D0A9E029403960024C9
S31500002DC00195009410E030B585B000F006F8402378
S31500002DD0FFE700F075FA05B030BD089C01930025A9
S31500002DE0039502940095704700F06AFA04B070BD2E
S31500002DF02DE9F04F16469B4685B005468A465A464B
S31500002E00FFF76EFD00270400BDF838008DF804506A
S31500002E10B846B946ADF806A08DF808B0ADF80A6018
S31500002E20ADF80C004ED001A92046FFF71BFC002888
S31500002E3048D0DDF840B0DDF83CA0ADF800600025D4
S31500002E4015E0B9B251450FD2FFF7C4F8B078FFF7D5
S31500002E50B2F85FEA0B0006D03079C10754BF0520EF
S31500002E600720FFF7A8F87F1C09F101096D1C2189CD
S31500002E70A8B288421ED26068ADB20C2169434618DA
S31500002E802088B0F57C4F09DA3188ADF80A1001AA1E
S31500002E9031462046FFF7FCFB0028E7D03088BDF816
S31500002EA000209042CDD208F10108DDE7002005B0F0
S31500002EB0BDE8F08F1FFA88F111FA87F01FFA89F141
S31500002EC08842F3D10120F2E72DE9F04F8DB00025BD
S31500002ED0DFF83C8400E06D1CFFF795FAE9B2814209
S31500002EE080F09A80EDB24FEA051ADFF8281418F838
S31500002EF00A2000F0D5F9DFF8201400F0CEF94FF0E3
S31500002F00000B8EE0E07808E0A078FFF79EFA002834
S31500002F10F8D004A8FFF7E3F8801C82B2012304A9C5
S31500002F20042004F041FA3088FDF780FD4FF6FF716A
S31500002F30884207D0DFF8E41351F83020DFF8E013B9
S31500002F4000F0AEF97F1C3189B8B2884267D270684A
S31500002F50BFB20C217943441808F0A6F9207941063E
S31500002F602088DFF8C01300904CBFDFF8BC33DFF8D1
S31500002F70BC333288042004F01AF921463046FFF7A4
S31500002F8055FB814628B9DFF8A813042004F00FF991
S31500002F9004E04A4661A1042004F009F9207981077A
S31500002FA048BFDFF8901305D4C1064CBFDFF888137D
S31500002FB0DFF88813C00754BF59A05AA001910090AA
S31500002FC0E378A278DFF87813042004F0F0F820798B
S31500002FD0CDF8009041064CBF8023402304AA002070
S31500002FE021210192039002912288318818F80A0063
S31500002FF000F066F9862804D1DFF8481300F04DF991
S31500003000A0E7A078FFF719FA00283FF47DAF04A8DF
S31500003010FFF760F8401C80E70DB0BDE8F08F0BF1BC
S31500003020010B08F108005FFA8BF150F80A000279EB
S315000030309142BFF450AF00685FFA8BFB142111FB7D
S315000030400BF1461800277EE72DE9F0438FB0179C59
S31500003050042C55DD169D1E46174688468146029568
S315000030600196009743464A46DFF8DC1200F05CF80A
S3150000307004AA212105A803920291019000953346E6
S315000030803A464146484600F01BF905003BD19DF8FB
S315000030901000412818BF422804D105A8FFF71AF8E6
S315000030A0451C0BE0432818BF442804D105A8FFF7A8
S315000030B016F8851C02E008F017F90546EDB2281D42
S315000030C084421DDB3846FEF785FF0020FEF773FFBE
S315000030D09DF810009D4CFEF76EFF20882918522996
S315000030E008DA9B4B2A4605A9184400F043F92088C4
S315000030F02818208000953B464246964900F014F871
S315000031000FB0BDE8F0833846FEF764FF2846FEF7A9
S3150000311052FF00953B4642468F49EFE7253278003D
S31500003120524F000052570000042004F03AB82DE92F
S31500003130F04F89B081460020129C049000900E4604
S31500003140174698468DF81490ADF816608DF81880DD
S31500003150ADF81A70ADF81C400023002204A905A89A
S31500003160FFF7A9FA04987D4A38B9019700964B46AD
S315000031707B49FFF7D9FF86208CE0159890B9049912
S315000031809DF850008B78984204D0764900F088F874
S315000031908D207FE00979C80704D4734900F080F8D0
S315000031A0882077E004980179139D480726D504986E
S315000031B0816848680499029088688168049801913A
S315000031C08078FDF7A3FF83460498C1788DF8001038
S315000031D003290A465B4629462ADA02A8FDF7FEFEBF
S315000031E082469DF800205B46294601A8FDF7F6FEBB
S315000031F0BAF1010F18BF10F1010F28D01698002858
S3150000320044D100F050F803F06CFF010042D100F009
S315000032104AF8FFF787F901003CD10120009000230E
S315000032202A46002105A8FFF746FA010011D031E031
S315000032300298FDF7D3FE012809D09DF800200198D9
S315000032405B462946FDF7CAFE10F1010FD6D187204D
S3150000325020E0049B324649462846FFF7C4FC029507
S31500003260009443469DF8500001903A463146484640
S3150000327001F09BFD00F017F803F032FF009443467F
S315000032803A4631464846FFF729F902E0374900F049
S3150000329004F8002009B0BDE8F08F042003F081BFD8
S315000032A0042003F07EBF039543460498C1789DF839
S315000032B050000291019000943A46314648467047C4
S315000032C0F0B585B01C460A9E0B9D8DF80800ADF83A
S315000032D00A10ADF80E2000270C9B01978DF80C40C4
S315000032E0ADF8106000972A4601A902A8FFF7E3F996
S315000032F0040005D10D9840B101998A78027004E066
S31500003300892C02D11A49FFF7C8FF204605B0F0BD47
S3150000331098D7032094260500A026050038B005009E
S315000033208C260500E0260500F4260500FC2605008F
S3150000333004270500242705002C270500342705004F
S315000033400C2705003C270500482705004EEC032006
S31500003350E0D80320A02705007C270500F4270500F8
S31500003360CC2705000028050014280500282805009C
S3150000337048280500814233D210441144401E491E9C
S3150000338010E011F8013900F80139121F11F801395E
S3150000339000F8013911F8013900F8013911F801393D
S315000033A000F8013992B2042AEBDA93B2002B1EBF61
S315000033B011F8013900F80139521EF6D1704711F89B
S315000033C0013B00F8013B121F11F8013B00F8013BDD
S315000033D011F8013B00F8013B11F8013B00F8013BF5
S315000033E092B2042AEBDA93B2002B1EBF11F8013B0E
S315000033F000F8013B521EF6D17047130003D00A466F
S31500003400194607F081BF704710B5034600E0521E0B
S3150000341090B218B100F00FF8F9D0001B10BD10B52E
S31500003420034600E0521E90B220B100F004F8F9D035
S31500003430001B40B210BD13F8010B11F8014BA0425E
S3150000344070478268521C8260426832B10268531C1F
S31500003450036011704168491E416070470C490D4870
S3150000346008600020704700B1702070470020704748
S3150000347080B500F013F8FF2801D1A32002BD00207B
S3150000348002BD00207047704700BF034800787047B0
S3150000349034D9032090C3050098D7032080B5FFF7E1
S315000034A0BDFAFF2818BF002002BD00210170704739
S315000034B000F05EB870B5044616460D463046FFF776
S315000034C0D7FF002020703046A847BDE87040FFF7C0
S315000034D0D8BF01223E493F48ECE701223E493F481A
S315000034E0E8E701223E493F48E4E7F2223C493E48EC
S315000034F0E0E780B5012006F072FC3C4806F007FCC8
S315000035003B49087001BD80B507F032FF012805D0A0
S3150000351037480078BDE8024006F0E1BB01BD70B552
S31500003520002300E05B1C334D2E88DCB2B4420FD280
S31500003530DBB20C26304C16FB03F634442578854264
S3150000354001BF65888D4225799542EBD1204670BD35
S31500003550002070BD80B519B906F040FB002002BD01
S31500003560B1F1004F02D206F043FBF7E7022002BD9D
S31500003570B1F5000F3CBF0902FFF7ECBF0220704710
S3150000358070B505461E46FFF7CAFF04000ED0284652
S31500003590FFF702FA50B1A0683146FFF7DBFF28B902
S315000035A005980499A0716171002070BD022070BD5C
S315000035B01CB500931346049C01940022FFF7E0FF1C
S315000035C016BD80B500230093FFF7F2FF02BD000091
S315000035D0DB7D020028D703205F81020030D703205D
S315000035E0217F020038D7032040D70320E41E0500C0
S315000035F0C0EC03205E630320D85E032080B5FFF78E
S315000036008EFF20B1806800210170002002BD0220DB
S3150000361002BD0022F2E7000010B51D4C2046FEF761
S3150000362059FB052020721B48E06041F634302082A9
S31500003630204610BDE0B502A800210190009148F295
S31500003640080300221021144807F0C6FE9DF8081052
S31500003650481E8041C00F0EBD70473EB502A80190BE
S3150000366000250D4C009548F2081300221021204633
S3150000367007F0B2FE9DF8080048B908490868FEF749
S315000036801BF802AB00222021204607F0B3FF37BD0E
S31500003690405E032000B1032080D6032034CC0320F3
S315000036A010B5394A28B9F0242102104606F0A0FACE
S315000036B00AE0506828240028F6D042F210718842A9
S315000036C0F2D2840808BF0124204610BD0120E7E796
S315000036D080B565E02C4800210170416001202B492E
S315000036E003F05FBDA92818BFAA2808D12848017889
S315000036F0491C0170C9B20329A8BFFFF7E7BF70478D
S3150000370001001CBF012802280AD1662B08D12148D6
S315000037100178491C0170C9B2002918BFFFF7D6BF4E
S31500003720704708F0C1B880B519491A4A00200870D8
S315000037301070194A1378012B08D0684606F0D9FF95
S31500003740002804BF9DF80000012807D100214FF68C
S31500003750F87008F08DFA08B903F0B9FC0020FFF7FD
S315000037609FFF01BDBEE7912800D0704780B501F0EC
S315000037708FFF38B90949012003F013FDBDE8014068
S3150000378009F01DBC01BD0000F8B00320B812050009
S31500003790B3EC0320B4EC0320BB630320E012050066
S315000037A009F08FFCBDE80240002079E780B5502281
S315000037B000216248FFF721FEBDE808407DE02DE9C3
S315000037C0F64182B0804603F065FB0646404603F0AC
S315000037D06FFB5B499DF808500A8947464FF6FF7311
S315000037E0DEB1039E3678022EB8BF212F15DA4220AD
S315000037F0544C4643A01930F817609E421CBF761CF5
S3150000380020F81760032F18BF052F06D10689AC19BB
S315000038109442BABFAE1906810281DFF820E131F881
S3150000382017603EF81740B4428041C043C00F9C4227
S315000038301CBF641C2EF81740032F18BF052F0AD192
S31500003840BEF808106B189342AEBFAEF80820691890
S31500003850AEF808101DE0092F8A8A18BF0B2F08D171
S31500003860BEF814106B18934211DA6918AEF81410EA
S315000038700FE01D2F0DD1BEF83A30498FEB188B4261
S3150000388005DA3EF8171069182EF8171001E0AEF8A1
S3150000389014203EF81710B14203D310B9404603F086
S315000038A017FC2946404604B0BDE8F0410EE0502220
S315000038B000212248FFF7A1BD00BF5022FF2120486A
S315000038C0FFF79BBD1E4A22F810107047F8B5044654
S315000038D00E4600251C48415DA1422CD06D1CEDB260
S315000038E0112DF8DBF1BD04F09EFB07461748017861
S315000038F08F4203DBDC21164807F022FB2220154904
S315000039004743C8194FF6FF7230F8151091421CBF95
S31500003910491C20F81510032C18BF052C03D101896A
S3150000392076180681F1BD092C18BF0B2C02D1818AAD
S3150000393076188682F1BD112DD5DBF1BDB0AF03201F
S3150000394000B0032074B00320D4100500CA6303201E
S31500003950C410050050B0032015E02F4800787047CA
S3150000396010B52E4C207860B900F00DF809F0DDFB9B
S315000039700121217028B10188B1F5817FA4BF007DA6
S315000039802070207810BD10B5234C207840BB09F07C
S31500003990ADFB02462249012003F003FC0120207002
S315000039A0204C2078FF281BD109F0BFFBB8B1408816
S315000039B00006400E00F0010020701022FF211A4878
S315000039C0FFF71BFD207801280AD1FFF7C9FF02285F
S315000039D006DDBDE81040B621144807F0B1BA2070E4
S315000039E010BD80B5FFF7CFFFBDE8014009F09DBBD4
S315000039F070B504460D461646FFF7C5FF3246294602
S31500003A002046BDE8704009F0C2BB80B5FFF7BBFF9A
S31500003A10BDE8014009F0CABBB0EC0320B1EC0320BD
S31500003A20600D0500BA63032040AF0320540D050066
S31500003A301CB5DFF8BC4B0A2200212046FFF7DDFC4F
S31500003A4060220021DFF8BC0BFFF7D7FCA0206080C6
S31500003A50202105208DF80400009101AB10222121C0
S31500003A60F220FFF773F913BD38B505460846194627
S31500003A700300287201D12A6031BD022804D1049CBA
S31500003A80082200F0E7F96C7231BD10B5DFF8604B23
S31500003A90207A88B080B1002104918DF8181003F0C7
S31500003AA0F4F8002000210023207203900291019077
S31500003AB0009304AA09F088FEDFF84C1B002008706A
S31500003AC008B010BDDFF8281BDFF8402B0020087077
S31500003AD0107070472DE9F04700F00108C0F342046A
S31500003AE08946924606094509DFF8240B01680A68EB
S31500003AF05379F22B06F0010605F0010526D1DFF811
S31500003B00F07A387820B10AF028F9F98888421DD170
S31500003B10B8F1000F18D00AF020F9F88001203870AB
S31500003B20A02078807C70E1077D7146BF4FF47A71E2
S31500003B3001FB09F1DFF8DC1ADFF8D00A06F058F8C5
S31500003B4026B187F804A001E0002038700120BDE806
S31500003B50F087002070472DE9F04381464FEA592748
S31500003B604FEAD9268FB007F00307C9F3411806F0CC
S31500003B70070602B909AA169C04B909AC1B9D05B92A
S31500003B8009AD009306A813460A4609F00701FFF798
S31500003B906BFFDFF8841A012003F009FBDFF8700AD7
S31500003BA001680A685079F2282BD1012F29D09DF897
S31500003BB0200050B3022824D10022082106A803F0D1
S31500003BC014FAF0B909F0180018281AD0761F022E38
S31500003BD017D31D981C99189A1A9F05900191009267
S31500003BE00497039502944246179B06A948460AF095
S31500003BF0CFFB30B1DFF8F80941788A0744BF0022CD
S31500003C00027001200FB0BDE8F08306980028F8D0B6
S31500003C1010F1070FD6D310F1010FF2D1D2E770B52C
S31500003C200D46DFF8EC1914460A688AB016687179F1
S31500003C30F22954D11099F02932D0F3294FD100201E
S31500003C408DF8240007900BB1012049E00AF09AFD97
S31500003C50854222D106F0A6FB0B3840F0100004AADC
S31500003C6001238DF810000021019200930391029127
S31500003C70F32307AA012009F0A7FD06F093FBDFF85E
S31500003C80701908720B34E0B202F0FFFF41F288317E
S31500003C90DFF8740905F0ACFF21E0FFF7F6FE1EE041
S31500003CA010F003008DF8180008BF04930AD00F988F
S31500003CB00E998DF8190002228DF8182004A8082202
S31500003CC0FFF758FB11980021421C039102910192C3
S31500003CD0F0230078009004AA012009F075FD002069
S31500003CE00AB070BD002070472DE9F04704468846AB
S31500003CF0626892B200214046FDF729F9207C08F15E
S31500003D00020520B9A26800F09FF82D1D07E00228E1
S31500003D1005D1082204F1080100F09CF80835207C42
S31500003D20022804BF617C05F8011B6068810403D585
S31500003D30A28A00F094F8AD1C606841040ED5A07DFF
S31500003D4005F8010B0021A26900F07FF82D1D102255
S31500003D5004F11C0100F07EF8103505E0800603D55D
S31500003D60A26900F071F82D1D207941064FF00C0A6A
S31500003D700FD50026A94605F8016B00F05DF805D1C0
S31500003D8000F066F800F069F800F04FF8761C022E95
S31500003D90F3DB6068C10517D50026A94605F8016B57
S31500003DA004F12C001AFB06F147183878022808D1CE
S31500003DB07A8800F054F8AD1CBA8800F050F800F08C
S31500003DC034F8761C022EEBDB04F14400017805F88A
S31500003DD0011B217901F0180118291CBF407805F84C
S31500003DE0010B6268100403D5120C00F038F8AD1C04
S31500003DF06068C10314D50020FEF7DDF80026814671
S31500003E0000F01AF809D100F023F800F026F899F826
S31500003E1000000A30AD1C89F80000761C022EEFDB8C
S31500003E20A5EB080188B2BDE8F08799F80000401CB0
S31500003E30AD1C89F80000704704F12C001AFB06F14E
S31500003E40471838780328704700212846FDF784B8BC
S31500003E500822B91C2846FFF78DBA08357A89002151
S31500003E602846FDF774B82DE9F04F9DB00F4600F0D7
S31500003E7007018DF80410C0F3C100DFF89417096834
S31500003E8000900025087900240028904699464FD1D5
S31500003E9009684879F2283ED10AA9204609F09AFF16
S31500003EA0002838D19DF82800FF2818BF6D1C641C17
S31500003EB0E4B2042CF0DD269CDFF8DC68DFF8DCA831
S31500003EC0DFF8DCB8EDB20695009878BB9DF80410D3
S31500003ED0CDF8009043463A4607A8FFF7C5FD07A868
S31500003EE009F0E2FF0746FF2F25D0002005900021AC
S31500003EF006980122FF2304910392029301900091F8
S31500003F005B460B2221210120FEF7B6F90AA93846A5
S31500003F1009F060FF002845D130880AEB00010AA8A5
S31500003F20FFF7E2FE31884018308035E0009801281E
S31500003F3034D1AC4208D300210591049103918B2121
S31500003F40069800F031F827E0002005900021069A37
S31500003F5006980491121B039200F026F80027B84633
S31500003F600AA9404609F036FFE0B99DF82800FF2867
S31500003F700BD07F1CF9B28C4207D2318851440AA873
S31500003F80FFF7B2FE32888018308008F101005FFA30
S31500003F9080F8B8F1040FE3DDFCF749FF01201DB0FE
S31500003FA0BDE8F08F0020FAE70190009102945B468D
S31500003FB00B2221210120FEF75FB9F0B5F22808BFD8
S31500003FC0212993B035D1112A08BF802B31D11898F9
S31500003FD078BB1120FDF7FEFF0020FDF7ECFF432024
S31500003FE0DFF8B457DFF8B467FDF7E5FF2988B01CA2
S31500003FF0441800276946384609F0ECFEC8B99DF812
S315000040000000FF2804D021466846FFF76DFE0444F1
S315000040107F1CFFB2052FEDDB2988B01C0844241A4B
S31500004020A0B2FDF7D7FF288824182C80012013B0F2
S31500004030F0BD0020FBE72DE9F04FDFF8B4658BB04B
S31500004040307850B10A93187A002807BF19680029FA
S31500004050199CE02C01D0179901B1CCE0DDF87490E1
S315000040601C9DDDF868A0DDF85480149F8DF824208F
S3150000407083460AF087FB0690FF2118980791029065
S31500004080CDF820A09DF824000A99CDF81490049547
S315000040900394019700900A464B7A09684BEA071089
S315000040A040EA881444F400600AF060FCFEF754F914
S315000040B00446F22020716071052007F070FC7079CB
S315000040C020B1F1880020FEF71DF90DE09DF82400CF
S315000040D0A0F10C05E088A57240F00200E0800A9885
S315000040E00AF0CAFC00F003F800F020F9B5E7014633
S315000040F0EAB24FF6FD70FEF71AB92DE9F04F1C46ED
S315000041008BB00546207A002804BF2368002B72D0A6
S3150000411030B9236813F1070F02D313F1010F6AD1E7
S31500004120022808D10023E05C18B95B1CDBB2082B1F
S31500004130F9DB082B5FD0169800285CD1DDF85CA06F
S31500004140237A5FEA0A0018BF43F0080315987E2D0C
S3150000415003D143F4007300B10420149FDFF890B438
S31500004160DDF874801C9DDDF868908DF8242043EA04
S315000041708013380140F4006003439BF80500ADF856
S3150000418026300E4678B10AF0FDFA00F038F8BAF19A
S31500004190000F14BF2020052007F001FCFEF7DCF815
S315000041A000F0BCF825E00AF0EDFA00F028F8FEF77A
S315000041B0D3F800F01AF9BAF1000F9DF82410A1F116
S315000041C00C05C188857241F00201C18009D07609CB
S315000041D006F00606C6F103067607360E2036B0B29E
S315000041E000E0052007F0DBFB20460AF045FCFFF760
S315000041F07EFF00F09BF801200BB0BDE8F08FCDF8F4
S31500004200209007960690CDF81480049501972246D3
S315000042109DF864001899039002919DF8240000907F
S31500004220637A2168BDF826000AF0A0BB2DE9F04F9D
S315000042308BB0DDF854E0DDF858C0DDF85080179FEC
S31500004240DDF86090199EDDF868A01B9D1C9CDDF8CA
S3150000425074B0CDF808C0CDF804E0CDF824B00894C9
S315000042600795CDF818A00596CDF810900397CDF8D0
S315000042700080FFF742FFBFE72DE9F04F8BB01F46E6
S31500004280189E387ADFF868B3199CDDF868901C9D93
S31500004290DDF874A0ADF8240090469BF8050058B1EF
S315000042A00AF070FA00F024F8052007F078FBFEF714
S315000042B053F800F033F818E00AF064FA00F018F842
S315000042C0FEF74AF800F091F8A8F10C04C188847250
S315000042D041F00201C180052007F061FB38460AF073
S315000042E0CBFB0146E2B2FFF704FF00F01FF882E7BE
S315000042F0FF21CDF8209007910690CDF814A00495E3
S3150000430003940296CDF800803A469DF8500001903D
S315000043107B7A3968BDF824000AF028BBF2210171C6
S3150000432041710020BBF80610FDF7ECBF002007F036
S3150000433036BB2DE9F04FAE4F8BB00E4639780029CB
S315000043400446934698464FD0387A20B106F02AF8AC
S31500004350397A814248D108217E2C1598149DDDF8C2
S3150000436074901C9CDDF868A008BF4FF402718001B0
S3150000437040EA051040F400600843ADF8240078795F
S3150000438078B10AF0FFF900F034F8FDF7E5FF00F028
S315000043902CF8202007F003FBF9880020FDF7B2FF78
S315000043A020E00AF0EFF900F024F8FDF7D5FF00F061
S315000043B01CF8760906F00606C188C6F103067607DC
S315000043C0ABF10C0441F00201360E8472C180203636
S315000043D0B0B207F0E4FA40460AF04EFB0146E2B2FC
S315000043E0FFF787FEFFF7A2FF05E7F2210171417192
S315000043F07047FF2106900791CDF820A0CDF81490C4
S3150000440004940195CDF800B000239DF86400189936
S31500004410039002910022BDF8240000210AF0A6BAFA
S315000044202DE9F04F99B0934629980246FF2A0D468A
S31500004430994600F0D88048214A43DFF86813096896
S315000044400B1D0C1D9B5843F40073A350091D43F428
S3150000445080638B5007A909F0BDFC002840F0C3809B
S3150000446099F8087000214FF00C0807A808FB01F224
S31500004470104490F82C00002814BF032847F00807C2
S3150000448003D0022808BF47F02007491C0229ECDBAD
S315000044909DF82000279E259C01062299239844BF5B
S315000044A047F01007BFB247EA811747EA0027E02E18
S315000044B047F4A04718BFE12EBFB202D14C4A10788C
S315000044C010B10CB147F40067DDF898A08DF818B06C
S315000044D001B9DA46DDF8ACB00AF054F90490FF21D0
S315000044E09DF8A8000591CDF80CB002900196CDF884
S315000044F000A099F80930D9F800104A4638466D09E7
S315000045000AF0F4F905F00605C5F103056D079DF8F7
S3150000451018002D0E4FF0000A2035A0F1090607A954
S3150000452008FB0AF0084400F12C073878002818BF69
S3150000453003280ED1FDF710FFFFF757FF002C14BF1D
S315000045402020052007F02BFA79890020FDF7DAFEF6
S315000045501BE002281BD1FDF7FFFEFFF746FF867220
S31500004560002C00F047F814BFA8B2052007F017FA90
S31500004570B8884FF6FF71884204BF48460AF07CFAB5
S3150000458001467888F2B2FDF7AEFEFFF7CFFE0AF1DC
S31500004590010ABAF1020FC2DB9DF82000010622D5FE
S315000045A0FDF7DAFEFFF721FF002C9DF81810817247
S315000045B000F020F814BFA8B2052007F0F0F908981B
S315000045C0810448BFBDF8308003D448460AF054FA47
S315000045D0804648460AF050FA9DF818204146FDF7F5
S315000045E082FEFFF7A3FE012019B0BDE8F08F0000A0
S315000045F020AC0320C18841F00201C1809DF8601003
S31500004600C17270472CAC032094AC03208CAC032001
S315000046106CD903200071020004FB040001207047DE
S315000046202DE9F04FDFF880C19CF808408DB0002CD2
S315000046301CBF9DF86C50E32D6DD18DF82800044603
S315000046409DF828000C94002818BF7C2C05D07F2CE0
S3150000465061D19CF8000000285DD09CF80000DDF8D0
S315000046607C901E9C1D9DDDF870A0DDF868B0199E3B
S31500004670189FDDF85C800B9300288DF829208DF8B3
S315000046802A1044D0380003D000F048F8FFF7D3FCD6
S315000046909DF86C10E02906D01BD3E2290DD006D375
S315000046A0E32910D015E0E02000F052F82CE0E120DC
S315000046B000F04EF8FFF7BAFD2DE0E22000F048F8D2
S315000046C0FFF7DAFD27E0E32000F042F8FFF731FEBE
S315000046D021E00C987F281AD19DF86C109DF858009F
S315000046E00B9B9DF8292005910090CDF82490089405
S315000046F00795CDF818A0CDF810B003960297CDF81F
S3150000470004807E209DF82A10FFF7F7FC03E000F0F6
S3150000471005F8FFF785FE0DB0BDE8F08F9DF86C003B
S315000047200B9B9DF829209DF82A100590CDF8249022
S3150000473008940795CDF818A0CDF810B00396029707
S31500004740CDF804809DF8580000909DF82800704729
S315000047500590CDF8249008940795CDF818A0CDF8CB
S3150000476010B003960297CDF804809DF858000B9B75
S315000047709DF829209DF82A1000909DF82800704782
S31500004780002800D0704710B5074C207A18B102F007
S315000047907CFA0020207210BD4EEC0320E0D80320E6
S315000047A01CFB0400B85F032020AC032038B50AF0D8
S315000047B07BF90AF080F978B1FCF766FF60B1094C25
S315000047C0207805F0C6FA0546207805F001FB3DB1D4
S315000047D0BDE83140FCF75ABFBDE831400AF0BEB92A
S315000047E031BD0000C0EC03207047000000B5A1B049
S315000047F080787D22694605F0CBFE01001CBF694624
S3150000480003F041FE21B000BD38B50A460146104608
S315000048100AF0A1FA0446FF2C01D1182032BD0BF094
S3150000482090F9054620460AF013FA284632BD80B5AF
S3150000483003F02AFDBDE80240012010B5040014BFB4
S31500004840084800200BF07BFA50B1002CBDE8104060
S3150000485014BF054A054A03460549022002F0A1BCD9
S3150000486010BD0000E0F70400C8F70400D4F7040008
S315000048709CF7040010B582B0059C1CB1049C009402
S3150000488004F02BF913BD0246084614231F210BF032
S31500004890E8BB0A46014614231F200BF028BC9028CB
S315000048A008BF0BF0ADBC704730B585B00024DFF80B
S315000048B02C586946E0B2FFF7E6FF9DF8011039B1C2
S315000048C09DF8000020B9182262432A440121117480
S315000048D0641C052CEDDB00F006FB05B030BD2DE9B0
S315000048E0F04F002497B0A246A046A146002705A98E
S315000048F0F8B2FFF7C8FF06F02EFC02461821DFF8D3
S31500004900DC07794345182868121A9DF81500002817
S315000049100FD09DF81410002925D1BDF820304FF492
S315000049207A714B439A420AD3297C51B9BDF82210B9
S31500004930002900F0A5804FF47A7359438A42C0F0EB
S315000049409F8004A903912122BDF81C1002920EAB90
S31500004950019300919DF81A30BDF81820BDF8161085
S31500004960FEF7AEFC002840F08B809DF81000FDF7A6
S3150000497056FD20B10EA8FDF7ADFB401C03E09DF8E7
S31500004980100006F0B1FC5FFA80FB0BF10302DCB10C
S3150000499020799DF815306188834204BFBDF8163032
S315000049A08B420FD19DF81A30DB09434504BFBDF891
S315000049B01C30534506D1DFF828371B88D2B21A447B
S315000049C0914540DA00F06AF8FDF7C6FC04469DF80A
S315000049D01A00BDF81C208DA100915FEAD01814BF03
S315000049E000200820BDF816100A23FDF736FC9DF8B6
S315000049F0150020714FF0FF094FF48250E080002629
S31500004A00BDF81CA00AA9304604F065FE002802BFC6
S31500004A109DF829009DF81510884202BFBDF82A00AE
S31500004A20BDF8161088420BD19DF835109DF8280068
S31500004A302246FCF75FFA4A468146914588BF914671
S31500004A40761C022EDEDBBDF81800FDF7C3FA9DF8D2
S31500004A501000FDF7B0FA59460EA8FDF7EBFA002054
S31500004A60287406F078FBBBF1090F286008D20020F5
S31500004A70C5E902005A460EA905F10800FEF77AFCC0
S31500004A807F1C042F7FF733AF1CB16188207900F0BB
S31500004A9005F800F028FA17B0BDE8F08F10B50C46FF
S31500004AA0FBF704FF08B9032C09D1DFF83806FDF738
S31500004AB002FCB42803D1BDE81040FDF70ABC10BDC6
S31500004AC02DE9F04F054687B02C7D687D00264FA165
S31500004AD00028009107BF08204FF0400800204FF043
S31500004AE080082F682A8A79880723FDF7B6FB8DF898
S31500004AF00580AA89A4B2E01C90427DDAA868015D0F
S31500004B008DF80610641CA1B2FDF7C2FA80469DF826
S31500004B100600A41C10B1012853D05DE0A868A4B219
S31500004B204FF0000A015D8DF80410641CAA89A1B239
S31500004B30FDF7AEFA0746A41C00F06AF881469DF818
S31500004B400400FCF79DFAA41C60B99DF8040006F069
S31500004B50CBFB8346AA89A8685B46A1B2FDF781FA1A
S31500004B6082465C442868298A9DF8053000914246B1
S31500004B7041884079FDF732FD00281FBF80789DF8F7
S31500004B80041088428D2728D1286841798DF80910AC
S31500004B90286841889DF805008DF80E00ADF80A10CA
S31500004BA0ADF80C80288AADF81000ADF81470ADF899
S31500004BB01690CDF818A002A800F0EFF9070098D0DB
S31500004BC00BE000F025F803469DF8052041462846EF
S31500004BD000F08CFAA41CF1E785273846FDF7EBF9BF
S31500004BE09DF80600FDF7E7F94046FDF7F3F90126C3
S31500004BF0852F7FF47EAF03E016B90020FDF7DBF9C1
S31500004C00FCF715F9012007B0BDE8F08F00000000A1
S31500004C10AA89A868A1B2FDF73BBA2DE9F047044678
S31500004C2086B0277D607D8BA10028009107BF0820F4
S31500004C304FF0400900204FF080092668228A7188CB
S31500004C400923FDF70AFB13E02068218A00914B46F1
S31500004C50418840794246FDF7C1FC06001FD18620F7
S31500004C60FDF7A9F90020FDF7A6F94046FDF7B2F9D0
S31500004C70A289BFB2F81C824254DBA068C55D7F1CC6
S31500004C80B9B20026FDF704FABF1C002D8046DBD022
S31500004C90012D04D08520FDF78EF92846E3E74FF075
S31500004CA0000A01A95046FFF7EEFD9DF80400A84250
S31500004CB001BF21689DF805004A7990421ED1BDF8D2
S31500004CC006004A88904204BFBDF80800404515D149
S31500004CD09DF80A00484502BFBDF80C00228A9042A2
S31500004CE00CD19DF8040008B3BDF81000E28890428C
S31500004CF002BF9DF812000979884217D00AF1010017
S31500004D005FFA80FABAF1050FCBDB8B20C3E75FFAB7
S31500004D1088F0FDF750F94FEA1828761E2BE0BDF80B
S31500004D201400A3E7FCF783F801201BE10020FDF740
S31500004D3042F92846FDF73FF94046FDF74BF915B114
S31500004D40012DECD094E7002E92D0B078FDF733F920
S31500004D50BDF81000FDF73EF9BDF81200FDF73AF96F
S31500004D60B078FCF78DF9002882D1B07806F0BCFA4D
S31500004D70DDF814800646F0B20028C8D178E710B5F1
S31500004D800024204600F0F1F8641C052CF9DBDFF85E
S31500004D9058130020087010BD80B5B121052802DA2D
S31500004DA000F0F5F80021084602BD2DE9F04387B072
S31500004DB081460E9C0E4617469846002501A92846B0
S31500004DC0FFF761FD9DF80400002804BF9DF805006B
S31500004DD048450FD1BDF80600B04204BFBDF8080033
S31500004DE0B84207D19DF80A00404504BFBDF80C0043
S31500004DF0A04206D06D1CEDB2042DDFDD07B0BDE884
S31500004E00F0830F9E109C304606F06EFA1821B34AC6
S31500004E1000904D4357192046D7E90223FBF765FD5D
S31500004E2004460D463046FCF72BF9012804D1002232
S31500004E30954208BF944207D10028DFD1002105988A
S31500004E408D4201D88442D9D30120387400F04BF842
S31500004E50D4E700000000000042784B789A4202BF77
S31500004E6042884B889A421AD182888B889A4202BF1E
S31500004E7082798B799A4212D102890B899A4202BFB2
S31500004E8002780B789A420AD13AB182898B899A4282
S31500004E9002BF807B897B884201D1012070470020B8
S31500004EA0704730B585B00446002500F089F92146E3
S31500004EB06846FFF7D1FF80B96D1CEDB2052DF4DB16
S31500004EC0002500F07DF99DF8010030B16D1CEDB2B2
S31500004ED0052DF6DBFF2005B030BD21462846FFF73D
S31500004EE0D8FC2846F7E72DE9F0474FF0FF3986B0A2
S31500004EF0C8460025DFF8E4A14FF47A7700F060F9A0
S31500004F009DF8011009B39DF80000F0B9BDF80C60DA
S31500004F10BDF80E4006F01FF9182111FB05F17E437E
S31500004F205AF801205144801A097C7C434A4619B13B
S31500004F30864204D3321A05E024B1844201D200220B
S31500004F4000E0221A424598BF90466D1C052DD5DB20
S31500004F5018F1010F644803D04146FEF7FBFA01E061
S31500004F600021017006B0BDE8F08710B586B0044692
S31500004F706946FFF788FC00208DF801006946204647
S31500004F80FFF787FC684602F0A7F806B010BD80B5AB
S31500004F90FFF7EBFFBDE80140A5E72DE9F041044628
S31500004FA086B020890090A379A28861886078FDF791
S31500004FB015FBFF26012708B986208BE0E08920B182
S31500004FC0A189884238BF8720F7D3002501A9284642
S31500004FD0FFF759FC9DF804109DF80500002904BF51
S31500004FE06278904213D1BDF806106288914202BFE2
S31500004FF0BDF80810A288914209D19DF80A10A2793D
S31500005000914202BFBDF80C102289914212D00028AD
S3150000501004BFFF2E2E466D1CEDB2042DD6DDE089B1
S315000050204FF6FF71884208D117B93046FFF7AFFF38
S3150000503000204FE000272E46F1E70025002804BF98
S31500005040A08988420AD11422214601A8FEF792F9C6
S3150000505001A80BF016F908B101270125FF2E08BF9C
S31500005060892037D00FB300208DF80400042E617814
S315000050708DF805106088ADF80600A088ADF8080028
S31500005080A0798DF80A002089ADF80C000DDC1820F7
S3150000509000FB06F8114F06F05EF847F8080007F126
S315000050A0080242440020C2E900003DB9A089ADF8DB
S315000050B01000E089ADF812002069059001A802F001
S315000050C00BF8040005D101A93046FFF7E2FBFFF714
S315000050D00AFF204606B0BDE8F0810000386F0320C5
S315000050E04EEC032075480000187403202DE9F047A4
S315000050F086B00646894692469846FF270124002533
S3150000510000F05EF89DF80000012801BF30689DF8A8
S315000051100110427991421BD1BDF80210428891429A
S3150000512004BFBDF80410494512D19DF8061051453B
S3150000513002BFBDF80810328A914209D1BDF80C10A1
S31500005140F288914202BF9DF80E10007981420DD07F
S315000051509DF80100002804BFFF2F2F466D1CEDB2FD
S31500005160042DCDDDFF2F04D1892028E000242F4611
S31500005170F8E7C4B101208DF80000316848798DF850
S31500005180010031684888ADF80200ADF804908DF84A
S3150000519006A0308AADF80800F088ADF80C0031683A
S315000051A008798DF80E00ADF81080684601F094FF7E
S315000051B0040003D169463846FFF76BFB2046D1E66B
S315000051C069462846FFF75FBB30B585B00446002523
S315000051D0FFF7F6FF21466846FFF73EFE40B96D1C15
S315000051E0EDB2052DF4DB2046FFF75BFE05B030BDC2
S315000051F00020FBE700200BF013BCF8B504460D4673
S31500005200E0894CF25E01884204BF218AB1F5805FD5
S31500005210164601D00020F2BD207800283CD1217D21
S31500005220880739D5072D37DB3078B77840B1112894
S3150000523002D1032F04D12FE0192808BF032F2BD149
S315000052402A4603213046FCF71FFF022F04D0062F03
S315000052500AD0072F1BD01FE0072D1DDDF27901466E
S31500005260601C00F0F9F817E0082D15DD2A46072125
S315000052703046FCF70DFF04460BF0CCFB022802D1AA
S3150000528000F072F940B12046FCF710FA04E000F095
S315000052906BF908B900F0BAF80120F2BDA14910B5C2
S315000052A00A7812F08F0F88B02ED090281AD10020DD
S315000052B0088001A9684605F012FA9B4C9DF80F007C
S315000052C0A0700822BDF80C00208001A9201DFEF761
S315000052D051F89DF814006073002200212046FCF767
S315000052E0DBF913E005F05CF801280FD000F0D0F9E7
S315000052F060B98E4800F081F80090022001F051FF5D
S31500005300022000F07EF801E00BF067FC08B010BD4B
S3150000531070B590B005A88649282202F041FF05F035
S315000053203FF808B100201BE001A801F06DFE040063
S31500005330804D814E03D000943246804B0BE005A889
S31500005340FCF7A9F905A901A80BF091F8040006D00D
S31500005350009432467A4B2946022001F022FF20466D
S3150000536010B070BD70B58CB005460C4616462C22A2
S3150000537000216846FEF741F88DF80250ADF800604E
S3150000538001A80BF0F2FB8020ADF826006D490868F5
S315000053900078012808BF02208DF82800FFF7B8FF23
S315000053A0214668460BF018F80CB070BD70207047A7
S315000053B070207047702070477020704702200BF0F5
S315000053C02FBB38B5574C207810F08F0F14D05E4D98
S315000053D000F013F80095022001F0E3FE2088410654
S315000053E003D5BDE8324000200BE040F020002080CD
S315000053F0BDE831400BF0DABC31BD544B4E4A54493E
S315000054007047484A00211180FCF747B980B505F07E
S31500005410B2FB20B102464F49022001F0C2FEFF2036
S31500005420FDF757FBFF2002F02AFAFF200CF02AF9BD
S31500005430BDE80140FCF73BB97047704780B50146AF
S315000054402C223948FDF796FF364A8021118001BD8E
S3150000545041490020087070472DE9F04F85B080461D
S315000054600E461546FCF7CFFF0746029501970096B4
S315000054702BA303224FF480511920FCF7FDFE03A84D
S3150000548005F029F9354936480A88DFF89C908418D2
S315000054900020FCF790FD01974CF25E0600940199FE
S315000054A0EDB28D42BEBF00990A78042A2CDA2D4B44
S315000054B003EB05142846A779FDF7B2FA824699F858
S315000054C02600010654BFB346B4F802B0082103A86B
S315000054D0FCF7B0FD5046FCF76EFD5846FCF77AFD2A
S315000054E0A088FCF777FD3846FCF765FD5046FCF7CB
S315000054F0D5F8FCF760FD2846FCF75DFD00980178BD
S31500005500491C01706D1CCAE74FF6FF7041460096B4
S3150000551000230246FCF70DFF05B0BDE8F08F000042
S315000055207775750032DE03200C6F03202CED040026
S315000055303CED040064ED04000CED040078ED04007D
S3150000554090ED040034D90320A8ED040014ED040006
S3150000555004ED0400C0ED04000C7103204EEC0320A2
S31500005560E0D8032098D7032000B585B068460BF035
S3150000557015FA009800F0010005B000BDDFF8642BB5
S315000055801268127882420AD019B1012A03D1022880
S3150000559005D000207047022A08BF0128F9D1012052
S315000055A07047DFF8441B8875704710B5DFF8344B39
S315000055B02068407B112805D04FF480710FF20C0053
S315000055C005F0BEFC21684120487310BD6173736FFE
S315000055D063696174696F6E2E6300000080B50220F6
S315000055E002F027FD02F02EFD00F0C7FC001F022886
S315000055F005D2DFF8F40A417D491D417505E04FF4F7
S315000056007A71DFF8E80A04F0F3FABDE8014002F027
S315000056101ABD10B5DFF8D04A0020E0742078FF28C4
S3150000562003D009F015FBFF20207010BD70B582B0C5
S3150000563004460D4609F096FA0646B01D0CF0FAF936
S3150000564000F44040B0F5404F0CBF06200020311852
S31500005650097C4A00490802F00E0201F03801891857
S31500005660401800F11106DFF8400D0068005DF6B243
S3150000567086420BDA831BDBB20F2BA8BF0F23002059
S31500005680009032462146284609F081FB304676BD19
S31500005690DFF8500A0068407B33281CBF4328532894
S315000056A001D101207047002070471FB501200CF082
S315000056B0EFF90CF0F2F906F051F9F0B1DFF8284AEB
S315000056C0A07910B104F10A0005E020786946FFF7D9
S315000056D0ADFF0DF10300DFF8142A00211170617986
S315000056E001F023FAFFF795FF00F008F80CF062FED0
S315000056F00CF021FA012001F04CFB1FBD10B501F0A2
S31500005700A3F800F0F6FC05D2408801F016FB08BFAE
S31500005710032008D001F0DAFB044601F0DBFB21464A
S3150000572003F061FF022001F0DDFB0DF009F800F047
S31500005730BAFEBDE810400CF069BE38B5DFF8A849DE
S31500005740DFF8245DA075FFF764FF00214FF6FF70B8
S3150000575001F0E5FA2868417B032918BF00291CD00F
S31500005760332918BF432912D101F089FA286800F0BD
S31500005770C0FC06D203214173A07DBDE8324002F091
S31500005780BCBCA07D02F0B9FCBDE83140B6E72121E2
S315000057904173BDE8314005F046BA31BD10B5DFF8BA
S315000057A04419DFF844490968002048734FF6FE7033
S315000057B008F0ECFF4FF6FF7008F0F0FF01F05FFA1B
S315000057C0A07DBDE8104002F098BC70B5044684B0D8
S315000057D0E07A0FF2C401DFF8905C0290234694F958
S315000057E00A0001901522208901F0F8F82868407B0C
S315000057F070B9208901F0A1FA0AD0DFF8C40C00784C
S315000058000A2805D102F020FC10B902F01FFC10B1E5
S31500005810702004B070BD2868007D800702D50DF0A9
S3150000582072F900E00020214601F042F906000DD190
S315000058302868007D80074CBF0220012001F01BF97B
S31500005840002101200DF089FB060001D03046E0E77B
S31500005850DFF89408007F08B10EF0A9FC00220821A9
S31500005860204601F0C2FB30B1042120460EF0D2FDE5
S3150000587008B9A520CDE7DFF8540C00782074DFF8CE
S31500005880500C60610020E081204600F005F90646D4
S3150000589002F095FBDAE700004238705742420000FA
S315000058A010B504462346182201F0EBF9DFF8240C64
S315000058B00021017114B1FF2C02D10121017007E012
S315000058C0012100F8041BA100491C090204F090F90B
S315000058D000F0E9FD002010BDDFF8F80B00787047F6
S315000058E0DFF8F01B00200871DAE730B50D4689B005
S315000058F0044668690FF2941107902346287C0690A7
S315000059001622E8890590287B0490E87A039095F999
S315000059100A00029028890190009501F060F8287B22
S3150000592000280CBF4FF6FE7008F02CFF2B462246CF
S3150000593009B0BDE83040014601202DE9F041DFF80D
S31500005940284B80462068407B00280F4616461D4699
S315000059504BD1300049D0062E47DADFF8640B0078C9
S315000059600A2842D102F070FB00283ED102F06EFBFD
S3150000597008B1042E39DB287B032816D14FF6FE70BA
S31500005980874214D1012E08BF002710D0022E2CD139
S3150000599008F0F8FE4FF6FC71884202DA08F0F2FED3
S315000059A001E00DF0B0F8074601E0012E1DD0B8F178
S315000059B0000F0CD0287B03280CBF01210021012EEB
S315000059C00CBF012000200DF0C8FA01005CD1294669
S315000059D0384601F06DF8010056D102F02FFB02F0B7
S315000059E014FB20B102F032FB08B170204CE02068B5
S315000059F0DFF8F476407B33281EBF53280020F87565
S31500005A00304601F038F8387F20B102F01FFB08B9A4
S31500005A100EF0CDFB287B032803D12846BDE8F041D4
S31500005A203AE00822294607F10A00FDF7A3FC287B85
S31500005A300328A8BF0020B874FFF7EBFD9420B875C3
S31500005A40B87C216800280CBF01203120487301234F
S31500005A50002038752068817B4809020003D1BA7F8F
S31500005A6003FA01F108E001F01F0140F0180003FA03
S31500005A7001F1052241EAC06103200BF0F9F80100AB
S31500005A8002D0226800215173BDE8F081424238708D
S31500005A90574242425742440010B5044600220821AC
S31500005AA001F0A3FA08B1012010BD08F06BFE002238
S31500005AB04FF6FF7101F01FF8217C204601F035F802
S31500005AC06269E189207C0CF06FFEDFF89C090068B2
S31500005AD0007B012808BF0DF0CAFFFFF70FFE00206C
S31500005AE010BD38B5DFF8804901462068407B0028A4
S31500005AF002BFDFF8CC0900780A2801D0702032BD39
S31500005B00DFF8E85521B1022205F10800FDF732FC65
S31500005B10684601F0DBF808B1932032BD9DF80030ED
S31500005B20142201F0AEF801F04FF801004ED19DF8B5
S31500005B30000000F0A0FF2068007B012818BF0228A3
S31500005B4006D0C01E032824D2002001F0FAF800B3C4
S31500005B5001F051F82068007BC01E032838BF0FF003
S31500005B6046FEFFF7CBFD01200FF06AFE01002DD1A6
S31500005B702068007BC01E032827D2287A800724D5F8
S31500005B800522DFF84C19012000F034F801001CD082
S31500005B9032BD2168132048730020DFF84C150875C4
S31500005BA001222068817B4809030008BF02FA01F13F
S31500005BB007D001F01F0140F0180002FA01F141EA96
S31500005BC0C061052205200BF053F8002032BDFF22EC
S31500005BD010E038B504461046032818BF04280D46C1
S31500005BE001D0022032BD00F046FF29462046BDE81E
S31500005BF03440ECE72DE9FC41804600F025FE0D46D9
S31500005C00017B0129164627D0407B022818BF0328AE
S31500005C1022D1332001F066F92806DFF8CC74400F54
S31500005C2014BF0522BA7F294603200BF021F804464B
S31500005C3098B9FFF7EEFC08F0ADFD38815FEA080081
S31500005C4014BF02200120B87407F10A0001F056F8CB
S31500005C5000203875FE7500E07024019400954346D7
S31500005C602C220FF20C0100F0BAFE2046BDE8F681A8
S31500005C70424244420000000038B5044608F072FF74
S31500005C80054620460FF0FFFD2C1820460BF0D2FEED
S31500005C904FF6FF5101402046BDE834400BF0D1BE1F
S31500005CA070B584B008F06EFDDFF83C44DFF8B857F5
S31500005CB00646208B002101F032F801F0AEF960B102
S31500005CC0300003D04FF6F870864206DB0CF01BFF5F
S31500005CD02968498888420646F8D0304608F056FDBD
S31500005CE0207809210FF0AEFD08F058FD2E68307BB4
S31500005CF0052813D101F00DF88DF8080002ABA07C41
S31500005D0000280CBF4FF4804244F2010201200090AB
S31500005D104FF4806170880FF0F5FF0FE006208DF8D4
S31500005D20080000F0F6FF8DF809000223002001901C
S31500005D30009002AA7088012110F0F9FC0646FF2E99
S31500005D4008BF002011D02868418830460FF0DDFDDD
S31500005D50A07C02281CBF3046FFF78EFF00F046F8F5
S31500005D600446304608F074FF204604B070BD70B596
S31500005D7088B00C4616461D4630B9204610F0A4FEE3
S31500005D8003A90EF01AF903A807218DF8081001904F
S31500005D90310A8DF80A1001200C998DF80B1000902D
S31500005DA08DF80960042302AA0121204610F0BFFCE9
S31500005DB00646FF2E18D021460FF0A7FD15B930462E
S31500005DC0FFF75AFF0D9808B930460DE020460EF051
S31500005DD030F918B1304610F0A5FE01E000F006F8E3
S31500005DE0304608F035FFFF2008B070BD00220021C4
S31500005DF0304611F0CFB92DE9F34F85B091461D46D7
S31500005E0000274FF6FF7455B1284610F0CCFC8046AB
S31500005E10687840084FF0010A00F0010605E04846A0
S31500005E200FF0DBFDBA460026804600F0A6F8C01E3D
S31500005E300328C0F09F801098411CC9B2484609F05B
S31500005E409FF88346400800F001008DF808009DF891
S31500005E50180020B95FEA0B6058BF4BF0800B00F0CA
S31500005E6030FF06D1DFF86C169DF814000978084358
S31500005E7001D102272CE0404608F035FCADF80000C1
S31500005E80032148460FF0F9FC9DF8141004009DF814
S31500005E90180008BF012481F001010840BAF1000F83
S31500005EA0039003D0281D0BF0C5FD01E0BDF80000EE
S31500005EB0012100910146039B0194DBB25A464046FC
S31500005EC00DF0C0FF04464FF6FF70844208BF01275D
S31500005ED0EDB19DF8140018B94FF6FF70844204D155
S31500005EE0281D0BF0A7FD014600E021460120019088
S31500005EF00097334622464046FFF739FF9DF80800D3
S31500005F0050B94FF6FF71404611F00BFC04E03A46DB
S31500005F102146404612F05CF867BB9DF8080088B140
S31500005F204146204611F024FCDFF83C150968896AD1
S31500005F300E2212FB00F211444A7942F040024A71E5
S31500005F4011F050FCB5B1DFF8405C85F8009008F020
S31500005F5019FC0EB1002605E09DF81410002914BFA7
S31500005F6003260126014643462246304612F08EF8A5
S31500005F70FF20287007B0BDE8F08FDFF8EC0400685A
S31500005F80007B70472DE9FC478046894601A8002121
S31500005F900160164648460FF080FC05465FEA080099
S31500005FA0DFF8E87B08D0284610F0FDFB824628463D
S31500005FB010F0EEFB044604E048460FF00EFD824664
S31500005FC03C460020009004233246494601A808F0CA
S31500005FD0DEFE0DF105000BF02DFD81469DF80760F4
S31500005FE05FEA080006D0082239462046FDF70CFA7B
S31500005FF0002872D13B4F00F07BF818D2C17E11B158
S315000060006978890713D55FEA080110D0407B02281A
S3150000601008BF002E0BD1484608F0B8FB0CF0CAF9B1
S31500006020992300F02DFE992002F067F855E000F064
S31500006030F4FF002818BF002E03D09420FFF77DFB45
S315000060404BE000F0EAFF002847D0504611F006FA70
S31500006050FF2818BF5FEA080104D138684088514616
S3150000606011F086FB11F0BEFB3868204E418852467F
S31500006070484600F040FD38681B4C417B012916BF9D
S315000060803129112143214173022001F0D1FF40F64D
S31500006090B831304603F0ACFD0FF0A9FB0020607567
S315000060A03868C17E19B9304603F098FD12E0B8F1A0
S315000060B0000F05D06978890702D5FFF7F6FA09E0DF
S315000060C0007B001F022805D20521304603F090FD13
S315000060D006206075AD20FFF764FA01F070FFBDE899
S315000060E0F3870000C8DA03207460032044DA032033
S315000060F03868017BC91E032970472DE9F04F8DB022
S3150000610082460FF0CAFB81460FF012FC0390504600
S315000061100FF063FC804602AB052205A9504612F03B
S31500006120ABFA02288DF80000019022D050460FF0FD
S31500006130AAFB0399DFF8405CCB4E08189DF80810BF
S315000061400F185046FFB2394608F01AFFFC1C01280A
S315000061504FF6FF7B0ED0022814D0042800F0F18001
S3150000616006281BD007286DD0082828D07C2800F0E8
S31500006170AE8015E100970023524600210020FFF76C
S315000061803AFE0DE13068407B012804BFA87C002858
S3150000619003D13A465146FFF7F5FE01E140460DF0C0
S315000061A0F0FE014659451CBF404611F0DDFE306841
S315000061B0407B022802D1404612F082FAF0E000202D
S315000061C00BF066FC791C00F0F1F88146E1B200F0B4
S315000061D0EEF80446B91D00F0E9F807465F45EDD034
S315000061E00FF005FB3068407B132808D100F003FD53
S315000061F050460FF0F2FB0146204611F0B9FA30681E
S31500006200407B022818BF13281BD1384608F0BEFA77
S31500006210484608F0C3FA0021002000F086FC4146FB
S31500006220204600F07CFDE878DFF8001C087000F0DE
S315000062303AF93068417B132903D1232141730AF0CF
S31500006240BFFDADE003980121484408F084FD0446F3
S31500006250002300222146012012F033FA204608F0DE
S31500006260F7FC3068407B022802BFDFF8C46B307948
S315000062700028E6D1404612F035FA0028E1D09DF814
S31500006280001005AA504612F027FA00281ED012F078
S315000062904DFA95F91D2001219140C1EB011189B2FA
S315000062A090FBF1F201FB1200451C002001F0C0FE3C
S315000062B00198012806D130700822414606F10C00EB
S315000062C0FDF758F8A9B2301D03F092FC68E050467D
S315000062D008F048FCC0194178652904BF80786D280C
S315000062E05ED13149096811F80A10E0B2884257D2E6
S315000062F00822414603A8FDF73DF86B460022E1B2AD
S31500006300504610F0EFF800284AD19DF80000FF280B
S3150000631046D0DFF8244BDFF870580120207085F84E
S3150000632000A001F08AFE9DF8001003A812F0C2F941
S3150000633001F089FEFF202870002020709DF80000E3
S315000063402CE050460FF068FB0446DFF8F00A0078B0
S31500006350FE2809DB50460FF0B0FA000B00F00101F1
S31500006360204612F0ABF91BE00FF61C300088ADF8A2
S315000063700A0002230020019000900DF10A0201217B
S31500006380204610F0D4F90546FF2D09D021460FF01E
S31500006390BCFA0021284609F0F9F8284608F058FC0E
S315000063A00DB0BDE8F08F0000705F0320C9B2504603
S315000063B008F09DBE70B5022001F03BFE01F042FEE2
S315000063C0454D294E0020287005F0C8FA28B13068DE
S315000063D0C07E10B9FFF769F93DE005F0BFFADFF8B6
S315000063E0984910B900F019FE58B1607D48B1C8212E
S315000063F0284603F0FDFB607D401E607509F0B8F984
S3150000640029E03068407B132809D000F006FE30B939
S315000064103068407B11281CBF4328412803D1A07D4A
S31500006420FFF78BF917E0022818BF032803D00028CE
S3150000643018BF21280FD10024DFF8045A07E001F025
S3150000644001FE002000F0A5FC01F0FDFD641C29788A
S31500006450E0B28842F3D3BDE8704001F0F4BDDFF846
S315000064601819002048757047C8DA032010B50020B7
S3150000647001F0DFFD01F0E6FDDFF8B44900202071F0
S3150000648000F0E2F9417B02290CD1007BC01E0328F3
S3150000649008D3207810B111F0F6FC01E011F094FC5D
S315000064A0002020700EE080B501F0DAFDFF281ABF4B
S315000064B0084800780020BDE8024011F073BC0000D7
S315000064C0E5630320BDE8104001F0BDBDDFEC03200D
S315000064D000F8FF0738DA032044DA03202DE9F04FED
S315000064E097B0804606A8102112F032F90DF1090383
S315000064F005220EA9404612F0BFF807460026022FD5
S31500006500B24600F09981404608F02CFB0446A01DD7
S315000065100BF090FA059004F109000BF08BFAADF838
S315000065200A0004F10B000BF085FA8146DFF8140926
S31500006530006810F808000190012F6AD1012004902C
S31500006540002706210EA879434418208802285CD12A
S31500006550E07800F074F91B2857D1E078C11C00F0F0
S315000065606FF9192851D1E078011D00F069F94A2820
S315000065704BD10525E0782818411C00F061F94FEA57
S31500006580002BE078291800F05BF9584480B2932874
S3150000659000F03F0B1BD1E0782818801C5FFA80F9C9
S315000065A0002000900F234A46414606A808F0EFFB5C
S315000065B009F10F01C9B2404608F099FD064609F1F6
S315000065C01101C9B2404608F092FD814616E0412805
S315000065D014D1E078281800F032F9DFF86C18097841
S315000065E0401AA0F14D0ADFF864080068007BC01E5F
S315000065F003283CBF4FFA8AF012F0BAF80BEB0500FD
S31500006600851C2179EDB28D42B4D37F1C052F0BDAA0
S3150000661097E7CDF810A004F10D000BF00BFA064633
S3150000662006A94046FFF702F8F00B8DF80800002394
S315000066300D224146062012F044F806AFB878C0F3A2
S31500006640C3000390787800F00F040198202800F02A
S31500006650FFF8ACBF9DF826500025022814D1BDF8DE
S315000066600AB008F097F883450ED10AA800F046FB59
S315000066700198202806DB08220DF11B010AA8FCF769
S31500006680C3FE08B10CF0CBF90598B0F5004F11BF69
S31500006690B0F5624F26F4404040F6FF71884262D161
S315000066A001982028C0F2C880002208210DF11B00A5
S315000066B000F09BFC002856D1DFF8940700780128EB
S315000066C032D1019427229DF80800BDF80A300FF256
S315000066D0BC71DFF8B46400F081F9DFF87807007860
S315000066E08DF82A008DF834408DF835500822BDF813
S315000066F00A00ADF828000DF11B019DF808008DF881
S315000067002B000BA8FCF736FE00F0A2F801281CBFF0
S31500006710332886F8008001F090FC0AA804F02CF8D3
S31500006720FF20307001F08FFCDFF84C66307D0028CA
S3150000673019D100F072FC002824D00120F074002248
S31500006740082106F10A0000F050FC20B1BDF80A004D
S315000067503189884208D008220DF11B0106F10A0092
S31500006760FCF752FE002867D19DF8080028B900F012
S315000067706FF8312818BF33285ED101212046FEF775
S31500006780FDFE002858D09DF81800002802BF787832
S315000067900009022850D100F057F8017BBA78022987
S315000067A002D1500707D447E0120604D405291CBFBE
S315000067B04088484540D13078DFF89C76FF2814D0D1
S315000067C0707985420DD1DFF8801696F9020091F9AD
S315000067D00010884209DB2FD170783978884204D3BB
S315000067E02AE0281AC0B2812826DAFEF712FF86F8B8
S315000067F00080404608F01EFA387870700DF11B01D3
S31500006800DFF844060078B07003980F28B4BF401C28
S315000068100F20F07034717571A6F818900822BDF833
S315000068200A00308186F807A006F10A00FCF7A2FDEF
S31500006830049800B10120B07117B0BDE8F08F811C3B
S31500006840C9B2404608F09CBBDFF8000600687047F6
S31500006850DFF8F8050068407B70472DE9FF410746E1
S31500006860DFF81445012020750D46164609F0E5FEB1
S31500006870002813D1B846B8F1010F18BF002F0ED16A
S3150000688000962B462622BFA100F0A9F801F0D5FB01
S315000068903146284603F08DFF01F0D5FB92E0DFF884
S315000068A0AC753868407B23280DD100F00FFB0446F9
S315000068B000F010FB214602F096FE022000F012FBCB
S315000068C00BF039F97EE0002E7CD121281CBF04286C
S315000068D0532802D104F0A7F974E000F09EFB0028CB
S315000068E052D02578FF2D05D1E07C00280CBFAB20C7
S315000068F094205BE03868007BC01E0328894120791C
S31500006900C90FFEF73BFE08B998204FE00EF091F94B
S31500006910052128460EF0B1FF3968887301F04FFB58
S31500006920A07C20BB3868007B052820D000F0F1F958
S3150000693002462189208B11F072FBE0B99420FEF704
S3150000694030FE022001F074FB3968DFF810054A7B3F
S31500006950012A07D0312A18BF332A0ED1097B091F15
S3150000696002290AD2C82103F043F903200AE0FFF7FF
S3150000697097F90028E2D1942018E04FF4167103F03D
S3150000698037F9002060751DE03868407B132813D165
S3150000699000F012F9BDF8000007F000FF00F02BF937
S315000069A0FFF7A6FB05D2332141739620FEF7C5FEFD
S315000069B008E0FEF7A3FE05E0B8F1020F04BF284683
S315000069C012F01DF84FF400600DF08DF910B910F0BB
S315000069D03CFC08B108F02CFEBDE8FF8100900320C6
S315000069E012F0F0B81FB5044600208DF80000FFF73E
S315000069F02BFF007840F020008DF801000DF1030018
S31500006A0000F07CF90322FF210DF10B00FCF7F5FCE9
S31500006A100BF0B4FE8DF80E00DFF84414DFF81C040A
S31500006A20DFF840240078DFF84034097812781B78C4
S31500006A30FE28A8BF0020091A9B1A9042B4BF101A5C
S31500006A400020DFF8E8231278C0B2D20050FA83F0B3
S31500006A50C9B242F004028842B8BF42F080028DF803
S31500006A60022069460F22204608F002FA401E8041A5
S31500006A70C00F04B010BD38B5DFF8D05304462868FF
S31500006A80017BA14203D00473204601F033FB24B1FD
S31500006A902868007B001F022805D201F09DFAFF2816
S31500006AA008BF012000D00020BDE8324009F07DB8C3
S31500006AB038B50D46044695F90A0000F0BAFA08B151
S31500006AC08B2032BDDFF884030268E97A917300688F
S31500006AD0A97AC173204607F059FE4FF6FE7084422C
S31500006AE00CBF4FF6FF70288907F058FE2889A24987
S31500006AF00881002032BD38B50C46154607F046FE23
S31500006B000BF0D4FF2946204600F009F99A4801788F
S31500006B10FF2918BFC07805D1FFF72FFA01280CBF4F
S31500006B2000200120C149087031BD7FB504460D46DD
S31500006B3000F042F8C54E94B1CC4A002128460BF02D
S31500006B4033FE306801788DF804100822007B8DF83A
S31500006B500500214602A8FCF70DFC12F0DBF83068B0
S31500006B60817B8DF80310C07B8DF8020007F012FEC2
S31500006B70ADF8000007F006FEADF8060000F01EF8BE
S31500006B807FBD000042424200E86303203CDC032054
S31500006B901FB5044600F010F81CB100208DF8050062
S31500006BA007E007F0EFFDADF8060007F0F3FDADF8DE
S31500006BB0000000F003F81FBD684635E010230722E9
S31500006BC06946002012F031BB00B58BB0FFF7F4FF29
S31500006BD0BDF80000ADF8180004A99DF803008DF873
S31500006BE01B009DF802008DF81A00BDF80600FFF79D
S31500006BF05FFF0BB000BD1FB5012000F0A2F80446F0
S31500006C0012F093F8FFF7D8FF1CB900224FF6FF7178
S31500006C1003E0FFF719FE4188021DBDF80600FFF7E5
S31500006C206AFF07F0BAFA1FBD0146102307220120AA
S31500006C3012F0FBBA38B5082001F0FBF9044601F062
S31500006C4001FA824D8A4829680078887301F0F8F9BC
S31500006C50A04208BF01F089F900210020FFF765FF77
S31500006C609B2300F00DF89B2001F047FA28680021CD
S31500006C7020F8441F4180BDE8314001F0E4B9A37D0E
S31500006C8013226CA1032011F09DBF10B504460DF030
S31500006C907EFDFF2801D18A2010BD00F012F818BF32
S31500006CA0032801D0702010BD71480470082001F03F
S31500006CB0BFF9704808F029FC08B9A12010BD0020D2
S31500006CC010BD62480068407B022870471FB5044625
S31500006CD06846FFF7A9FF9DF80500010008D00628C1
S31500006CE006DA5A4909689DF804200978914201D0CC
S31500006CF0932001E02070002004B010BD1FB50446AB
S31500006D006846FFF791FF082202A92046FCF732FBEE
S31500006D101FBD4E4958480968097B405C70474B4A7D
S31500006D201368588019B90822181DFCF766BB08229B
S31500006D30181DFCF71FBBBDF808004FF6FF7188420F
S31500006D40704710B504464548007AC00784B007D599
S31500006D5000F014F8FFF7EFFF02D000F015F808B1C5
S31500006D60002006E024B1BDF808006946FFF7D7FF0A
S31500006D70012004B010BD0000746003200A230A221B
S31500006D806946012012F051BA0822FF21684600F038
S31500006D902CB970B5314D0446287AC00784B00CD59D
S31500006DA02A4E306841884FF6FF72914207D1002281
S31500006DB00821001D00F019F908B100201DE044B1BA
S31500006DC0022001F035F94FF4F041284602F010FF99
S31500006DD012E030684188ADF808100822011D6846A7
S31500006DE0FCF7C8FA0A230A22FFF7EAFE02230B225F
S31500006DF02249002012F019FA012004B070BD204A81
S31500006E00107048B11F480088010005D04FF47A7110
S31500006E104143101D02F0ECBE7047194800787047D8
S31500006E20174800210171017070470000F3EC032040
S31500006E3050DA03204242000074DD0320CAEC03202E
S31500006E40CA630320705F032012E00320C8DA032020
S31500006E50E563032013E0032011E0032044DA032056
S31500006E60D763032065EC032064EC032000F8FF07DA
S31500006E70E0EC0320356C00000C44010066DE0320C4
S31500006E8064DA03208C630320046000004257424208
S31500006E900000000000210FF2D812535C834201D19A
S31500006EA001207047491CC9B20829F6D30020704753
S31500006EB000210FF2C412535C834201D101207047B6
S31500006EC0491CC9B20829F6D30020704764480068F7
S31500006ED04088704762480068001D70476048006837
S31500006EE0C07E704738B55E4C5E4D216848730228F7
S31500006EF05D4916D12068007B001F022824BF084682
S31500006F0002F06CFE2068007BC01E032824BF2846C2
S31500006F1002F064FE20684069C00054BF9024BC247F
S31500006F2005E0002008702870912412F03DFA2046F2
S31500006F3009F0F2F950B92346132248A1032011F0B3
S31500006F4041FE2046BDE8324001F0D7B831BD444885
S31500006F500068407B00F00F00704741480068407BA6
S31500006F6000F00F00022801D1012070470020704771
S31500006F7038B50446FFF7F1FF394D28B92868407B3C
S31500006F80032801D0932032BD07F004FC2081286835
S31500006F90C07BA0722868807BE0722046FFF7AEFEB9
S31500006FA00020207304F1140104F110000BF0D2FB51
S31500006FB0E081002032BD70B5294D2E680C46FFF7E2
S31500006FC0CCFF20B9707B032801D0932070BDF07BE5
S31500006FD020702868807B0DF0EFFA60702868807B4F
S31500006FE000F01F00A070002070BD10B5002300E067
S31500006FF05B1CDCB28C4205D210F8014B9442F7D0F0
S31500007000002010BD012010BD80B508210DF002FA48
S3150000701008B1002002BDA52002BD11480068407BD2
S3150000702001281CBF3128332801D1012070470020D8
S31500007030704710B504460DF069FB010002D10849FE
S315000070400968CC7310BD0648006890F90F007047B8
S3150000705003480068807B7047000000004242000041
S31500007060C8DA032004DE03200CDE0320012070476B
S315000070700001020304051D200203040508090A0B8A
S315000070807047012070470120704701207047704704
S31500007090002070470020704700207047002070478E
S315000070A0002070470020704701207047012070477C
S315000070B0002070470020704700207047002070476E
S315000070C07047002070477047B5207047704770477B
S315000070D07047704711F02ABB0020704701207047A7
S315000070E0704700207047002070470020704700203E
S315000070F070477047B52070470020704700207047E2
S3150000710070470020704770477047704700207047EF
S315000071107047000001464FF6FF70814207D0080A0B
S3150000712001D0002070473F4A1078084000D0012067
S315000071307047020A07D13B4A1378002914BF184347
S3150000714023EA000010707047830800EB5373C108F0
S31500007150DB080122A0EBC30002FA00F000EB0120DD
S3150000716080B27047F8B504460D4616461F46FFF72F
S31500007170D1FF58B13A463146202012F073FA1DB1BC
S3150000718025A1202012F066FA27480480F1BD80B5BB
S31500007190FFF7C0FF20B1BDE80240202012F0B7BAC9
S315000071A001BD0CB480B50A4602AB012104E00CB463
S315000071B080B50A4602AB0021FFF7D4FF01BC5DF89B
S315000071C00CFB2DE9F04182B00024184DDFF86080F9
S315000071D012A713A6E0B2FFF7B7FFFFF79BFF002841
S315000071E014BF304638460090224658F824302946C7
S315000071F0202012F01BFA202012F089FA641C042CBD
S31500007200E8DBBDE8F3810122FF2101E00122002134
S315000072100448FCF7F2B800000D0A00006E6F00008B
S3150000722059455300DF63032052EC03202CA90500C7
S315000072304060032080B5FFF787FFBDE804400121C9
S3150000724077E780B5FFF780FFBDE80440002170E7CF
S315000072500A464049F8B53C260446B4FBF1F301FB67
S3150000726013444FF46161B4FBF1F111714FF46161A4
S3150000727015794D43611BB1FBF6F151713C215679ED
S3150000728011FB0655641B94714FF4FA6101201180BD
S315000072909070D07000242E4E03E0002000E0012004
S315000072A0641C9C4235D29178070003D0022908BF9E
S315000072B01D2502D0751815F8015CD778BD4203BFAD
S315000072C0491C917001277F1C9178D7700D29E7D151
S315000072D015886D1C158001209070ADB2680805EB0D
S315000072E090708008B5EB8001D7D1642095FBF0F053
S315000072F0642707FB10500028D1D14FF4C87195FBC5
S31500007300F1F14FF4C87000FB1155681E8041C00FA3
S31500007310C6E7F1BD10B588B0044605A9FFF798FF8A
S315000073209DF81A009DF819109DF817309DF8162043
S315000073300390029104949DF81800BDF81410019072
S315000073400091054805490088FFF72BFF08B010BDDE
S31500007350C4AB05008051010052EC0320A0AB050030
S31500007360FFF7D2BEFFF7A4BE2DE9F04104460D4655
S3150000737016469846FFF7CEFEA0B1002710E0EA5D5C
S3150000738041462046FFF713FFF81007EB1070001177
S31500007390A7EB0011062904BF2046FFF7F8FE7F1C65
S315000073A0B742ECDBBDE8F081002B14BF3CA33DA344
S315000073B0DAE738B504460D462846FAF78BFE02464C
S315000073C0691CFFE7204601B0BDE8304036A3CBE795
S315000073D010B588B001783A4C06913E224178059165
S315000073E081780491C17803910179029141790191E3
S315000073F081790091C37920883249FFF7D8FE08B019
S3150000740010BD014600220220FFE72DE9F84F804615
S3150000741089469246002726A426A50FF2900B284EF1
S31500007420474518DA30880123082209EBC701FFF720
S31500007430BBFFBAF1000F04D1791C414518BF5A466B
S3150000744000D12A4630882146FFF7B1FE3088FFF783
S315000074509EFE7F1CE4E7BDE8F18F2DE9F041184D53
S3150000746004462888FFF756FEC0B10120002612A761
S315000074700FF24808E1070DD518B928884146FFF7ED
S3150000748096FE288832463946FFF791FE2888FFF790
S315000074907EFE00206408761C1B2EEBDBBDE8F08127
S315000074A025782000257800002563000000000000F4
S315000074B0202570000D0A0000256400002C20000025
S315000074C052EC0320D8A8050010B584B00446FAF79C
S315000074D0E0F88DF8080002A91820019000914023D9
S315000074E0002204212046FBF729FC1FBD2DE9FF41A0
S315000074F080460F46144600F0E5F918B100F026F86C
S315000075008A201CE000263D0A00F0D8F9002804BFB6
S315000075109DF8000000280DD103218DF800108DF88C
S3150000752005708DF806508DF801806946304602F0E8
S31500007530DDF838B1761CF6B2012EE5DD892004B0FF
S31500007540BDE8F08100F002F80020F8E7224639464F
S315000075504046FAF79DB87CB5C64D2B681E680446B2
S315000075600A4670792146FFF7C1FF064609F026FA5A
S3150000757000281FBF286800790028012809D1019436
S315000075800096B9A3002204210920FAF775FEF9F73F
S315000075904EFC012076BD70B5B64E88B0044603A8F1
S315000075A0142111F0D5F830680368587903AA2146EA
S315000075B0FAF76DF809F002FA8B2500281FBF30682C
S315000075C000790028012813D13068026850792146D5
S315000075D000F078F900B1002503A802900194009507
S315000075E0A2A3012204210920FAF746FEF9F71FFC9F
S315000075F0012008B070BD2DE9F04F814689B00F46D5
S3150000760000240026002000E0401CC1B24945FBD3FF
S3150000761009F0D4F9974D00281FBF28680079002883
S31500007620012873D1B9F1000F0DF1110B0DF1100AFC
S315000076301ED100276946384602F04DF89DF8000035
S31500007640032811D129680A689DF8010053799842E8
S315000076500AD19DF805000AF80600641C9DF806008C
S315000076600BF80600B61CF6B27F1C012FE2DD3AE0ED
S31500007670019700270198FFB20222002100EB470084
S31500007680FAF706FD4FF00008009005A9404602F003
S3150000769022F89DF8140003281AD129680A689DF873
S315000076A015005379984201BF9DF81900009AD2B28D
S315000076B090420DD1009B9DF81A101B04B1EB136F7D
S315000076C006D10AF806000BF80610B61CF6B2641CC2
S315000076D008F10108B8F1010FD7DD7F1CF8B2484563
S315000076E0C8D3E0B278B1039604A80290E4B2FF20B2
S315000076F0009001945EA3022204210920FAF7BCFD42
S31500007700F9F795FB02E08B20F9F793FB012009B00E
S31500007710BDE8F08FF0B5574D0446286885B001687E
S315000077204E792146304600F0CDF800B30027694671
S31500007730384601F0D0FF6A462146304600F0D8F8B8
S3150000774020B97F1CFFB2012FF1DDFF27384602F07A
S3150000775018F850B96846142110F0FAFF6A46214617
S315000077603046F9F795FF002602E0012600E08B2659
S3150000777009F024F900281FBF28680079002801288D
S315000077800FD128680268507921460AF00AF9019457
S31500007790009635A3032204210920FAF76DFDF9F7B7
S315000077A046FB012005B0F0BD2DE9F043314CDFF872
S315000077B0C880206889B0016891F8059001270025E6
S315000077C06946284601F087FF002801BF9DF80000A2
S315000077D003289DF8011089451CD1284601F0D1FFE8
S315000077E008B1002716E004A84146142200F0D8FC90
S315000077F09DF806009DF8051001EB002604AAB1B21B
S315000078004846F9F745FF380018BF0127B1B2484688
S315000078100AF0C7F86D1C012DD2DD20680268507988
S3150000782000210AF0BEF887F00107F8B2F9F701FB6C
S31500007830012009B0BDE8F08370B50E4E0D463168E3
S315000078400A6804465079F9F73EF808B9012006E0BF
S315000078503068036858792A462146FFF747FEF9F74C
S31500007860E8FA012070BD0000757600007576730099
S31500007870757562006CD90320C0FA040022E07FB55A
S31500007880044600F0CEFB0546002600F017F8002857
S3150000789004BF9DF8000003280CD19DF801108C420E
S315000078A005D0FF2C04BF9DF80D00854202D130465D
S315000078B001F067FF761C012EE7DD7FBD6946304685
S315000078C001F009BF7FB504460D460026FFF7F6FF17
S315000078D028B96A462946204600F00AF830B9761CCF
S315000078E0F6B2022EF2DB002004B070BD0120FBE7E9
S315000078F010B51378032B02BF5479CBB29C4208D142
S315000079009379B3EB112F04BF5178814201D1012045
S3150000791010BD002010BD00001CB504462168487942
S31500007920F8F7C4FF88B92068418803290DD0E27CA6
S315000079300192009143790A4A0A490120FFF731FC76
S3150000794001212046F9F7B7FA07E0204611F003FFB8
S3150000795001001CBF2046F9F7AEFA012016BD00BF94
S3150000796068A905003CA905000098002100E0491C13
S31500007970CAB28242FBD370472DE9F04F064687B064
S315000079803168707DB1F80290F47CD6F808A0B7890A
S31500007990357D002848790CBF4FF040084FF080082D
S315000079A0F8F784FF80B9002C18BF022C0CD0032CEA
S315000079B01CBF052CB9F1030F06D0DFF80415012012
S315000079C0FFF7EFFB01210BE2F07B18B1318A0029AA
S315000079D000F05F81DFF8EC3400221A80717D002907
S315000079E00CBF0821002108B141F004010846FAF74E
S315000079F0E2FAF07B10B1308AFAF7ECFAB07CFAF7CB
S31500007A00DAFA681C791B162C80B2ADF800100AEB66
S31500007A10050B00F23A81DFE814F0170044019600E6
S31500007A2035006E019600330173013E0178017D0138
S31500007A308201F7009501380138013801A601CE010F
S31500007A40A601D801F70095014B46DFF87C24DFF844
S31500007A507C140420FFF7A5FB0120FAF7ACFAA81C5A
S31500007A608742C0F2CE8000F015FA044600F017FAFD
S31500007A7000F0EEFB18B900F012FAFBF7E5FAAD1CC0
S31500007A80ADB2ECE70420FAF796FA05964FF0000B34
S31500007A90ADF80E90CDF810A08DF80C8038E0059862
S31500007AA0CDF808A0CDF80490424600F0E6F9D0F8EB
S31500007AB000C0BDF80E109CF80500FBF76DF9814675
S31500007AC018B30FE0504603F00FFC06465046FAF78F
S31500007AD0A6FC0028F6B2E2D0781B801BC01EDED5BD
S31500007AE04FF080094846FAF766FA4046FAF772FA06
S31500007AF0BDF80E20DFF8D81343460420FFF751FBEC
S31500007B004A4600F0C0F90BF1010B7519ED1CADB238
S31500007B10E81C8742C0F26D8104983A462946FAF776
S31500007B20B7FA804600F0A3F901EB05095046FAF7CB
S31500007B3076FC0028C6D04846FAF7CCFA461CC5E7BC
S31500007B40DFF8801308804FF0000B8DF800B004209A
S31500007B50FAF731FA0596ADF80E90CDF810A0069713
S31500007B608DF80C809DF800802FE0FAF724FA304655
S31500007B70FAF730FA3A4600F086F90BF1010B20E0ED
S31500007B80504603F0B1FB8146CDF808A00197324676
S31500007B90059800F072F90768BDF80E107879FBF7C2
S31500007BA0A5F80746BDF80E20C94933460420FFF75D
S31500007BB0FEFA3800D9D1B6A10420FFF7F2FA08F18F
S31500007BC0010855FA89F5ED1CADB20699E81C884204
S31500007BD080F221818AB204982946FAF759FA0646B4
S31500007BE000F045F94F195046FAF719FC0028C7D09E
S31500007BF03846FAF76FFA00F10109C5E70020FAF7EF
S31500007C00DAF9F9F714F9EEE0152C0CBFB14BABA37A
S31500007C10CDF800900420B04AB049FFF7C2FA0C2C08
S31500007C200CBF0D201620FAF7C6F900F033F9074607
S31500007C300AF10200162C455D03D11A2D06DB192523
S31500007C4004E0152C02D1142DA8BF13259D49A44884
S31500007C500A8800EB020A0020FAF7ADF9152C0CBFD2
S31500007C6001200020029001954346308A00903A4652
S31500007C70306840794946FBF7BBF88AF80000C0E750
S31500007C803046FCF71DFF0028BDD1F07B002800F030
S31500007C90AE808421A4E03046FCF7BFFF0028B2D1B5
S31500007CA0F3E7B9F10A0F1FD18E4C2178E1B1F07BD1
S31500007CB0002804BF781B082816D100F0EBF800282E
S31500007CC002BF0AF10200405D002804BF9BF80310C2
S31500007CD0E22909D12D1D3A46A9B25046FAF7D4F940
S31500007CE0FFF73EFB002020705946BDF800204846AD
S31500007CF000F0C6FA72E000F0A8F8FFF707FA6DE0A8
S31500007D0000F0A3F8FFF7C6F968E000F09EF8FFF769
S31500007D10EEF963E000F099F800F0B4FA5EE09BF843
S31500007D2000401AF80050CDF800802B4630684079A4
S31500007D3022464946FAF791FB2A4621464846FFF76E
S31500007D40ABF950E09BF8001001B10121162C0CBFD5
S31500007D500122002200923F1A0AEB0002BBB24846FB
S31500007D60FFF79CF93AE09BF800509BF80170112C44
S31500007D7004D11220FAF71FF9002003E01420FAF7C5
S31500007D801AF901204F490C88039701910295C4F115
S31500007D90510189B200914A46514921444B1C314652
S31500007DA0FAF736FF00B101204D49085545480188CC
S31500007DB0491C018025E700F04DF80020FFF7D4FDAF
S31500007DC000F03CF8FFF76EF908E000F043F80120F8
S31500007DD0FFF7CAFD00F032F8FFF762F918B9002183
S31500007DE03046F9F768F8012007B0BDE8F08F822128
S31500007DF0F6E75FFA8BF0059EBDF80E90DDF810A051
S31500007E009DF80C800028D5D1F07B357D002814BF65
S31500007E100420022094E6059D052CE4D05FFA8BF041
S31500007E200028C7D15FFA88F000287FF4E7AE2E4914
S31500007E300420FFF7B6F980212846D2E7BFB20097A3
S31500007E402B46318A224648467047BDF800205946DF
S31500007E50484670479BF8004004B101240AEB000530
S31500007E603F1AB8B200902B462246494670470498FE
S31500007E70811C11F805A0C11C7047018A05989DF860
S31500007E800C300091704719490420FFF78AB90000A9
S31500007E904F4B00003A4629465046FAF7F9B80948CA
S31500007EA00188C1F1520189B201914346318A00919C
S31500007EB022463068407949467047000000000000BD
S31500007EC070A905004EEC03208CA905007CA90500CD
S31500007ED098A90500ECA90500E0A90500D0A90500B0
S31500007EE0E0D80320CFEC0320BCA90500B4A9050007
S31500007EF010B57348734C006820606060482200210A
S31500007F00FBF77BFA7048216800780870002021682A
S31500007F100873216848730B20216888731420216830
S31500007F20C8734FF6FE71206801824FF6FF714182D9
S31500007F3010F0FCFB2168087610F0F8FB2168487603
S31500007F4010F0F4FB21688876604821680078C876CE
S31500007F505F492068096840F8281F5E490978017161
S31500007F605D4821680068086310BD10B50CF0BBFBC6
S31500007F70544C6168897B884203D008460CF062FB4A
S31500007F8050B90CF0B4FB0146606890F90F008142CD
S31500007F9004D00CF0BBFB08B1012010BD6068008A5C
S31500007FA00CF0FCFF6068408A0DF016F86068007BF4
S31500007FB0012818BF00200CF0DDFF002010BD10B511
S31500007FC0464C0020207007F006FE20B92046BDE88A
S31500007FD0104001F003BE67E080B5002000F015F800
S31500007FE028B1002000F005F808B1002002BDFF20EE
S31500007FF002BD34480068407B02281CBF1128432874
S3150000800001D101207047002070472E480068007B90
S3150000801001281CBF0228032801D101207047002037
S31500008020704700207047002070472D490870704740
S315000080307047002070470120704770470020704746
S3150000804000207047704770470020704780B50020B9
S31500008050FFF7CFFF18B1BDE802400020D5E702BD0B
S3150000806080B50020FFF7C5FF30B116480068007BD9
S31500008070032801DA002002BDFF2002BD10B504006E
S3150000808005D04FF4A4710FF2DC0002F059FF14483A
S31500008090007808B9702010BD09480068482111FB16
S315000080A004F1084407494860BDE810405DE705480B
S315000080B04068008A704703484068408A704700005D
S315000080C0A85F0320C8DA0320D5630320D663032004
S315000080D0AC5F0320CB630320B05F0320B8DA032034
S315000080E0EB6303207047002070470020704707F0BD
S315000080F03FBB7047704702F07EBB02F03CBA82B0CD
S315000081008DF80010DDE9002311461A4602B0FBF790
S3150000811056BB30B585B004468DF80420FEF7BAFE8E
S3150000812005462046FEF7C4FE80F001010D4204D04C
S31500008130FEF78EFFCDF808D00AE0294308BF0DF1FF
S31500008140020004D0054203D0FEF782FF03A8029086
S31500008150DDE901010A4601462046FBF730FB05B082
S3150000816030BD0000656D6265722D6D756C74692D8C
S315000081706E6574776F726B2D737475622E63000073
S3150000818062B38B0708D0521E11F8013B00F8013B81
S3150000819000F024808B07F6D1830740F0208000BFD3
S315000081A0103A07D330B4B1E83810103AA0E83810C6
S315000081B0F9D230BC530724BFB1E80810A0E8081074
S315000081C044BF51F8043B40F8043BD20724BF31F8C2
S315000081D0022B20F8022B44BF0B7803707047121F46
S315000081E017D35B0009D151F8043B20F8023B1B0C66
S315000081F0121F20F8023BF6D20BE051F8043B00F8C0
S31500008200013B1B0A20F8023B1B0C121F00F8013B26
S31500008210F3D238BF121D521E24BF11F8013B00F8DD
S31500008220013BF8D8704780B5F9F7EBF9BDE8014096
S31500008230F8F7B9BB80B5FEF746FFF8F7E6FBBDE8F1
S315000082400140FCF7B3BA7047F9F7DABCF9F70CBD91
S3150000825030B583B0069D079C01940095FBF7ADFEF3
S315000082603EBD38B504460D46FEF752FF2946204668
S3150000827011F0EAFE29462046BDE8344012F017B850
S31500008280FEF733BFFEF73DBFDFF8C41401200870C8
S315000082907047DFF8BC140A7882421CBF0870FCF7EE
S315000082A0CCBA70470170090A4170801C704710B53E
S315000082B004460822FBF75EF804F1080010BD2DE91C
S315000082C0F041044684B0207D0A9E0F46810720783F
S315000082D01D464CBF4CF601484CF601080028338871
S315000082E00CBF1E21202103EB010C624508DA009227
S315000082F002200A46DFF85C14FEF759FF742045E0B9
S3150000830008B948F0200801A802F0E5F941463846C8
S31500008310FFF7C8FFA189401CFFF7C4FF217D8A072C
S3150000832003D5611CFFF7C3FF02E06189FFF7BAFFBF
S31500008330804602F033F801464046FFF7B3FF01A935
S31500008340FFF7B5FF0B21FFF7ADFF217841F00301E1
S3150000835000F8011B22780C2A04BF618AFFF7A2FFEE
S31500008360218AFFF79FFFE189FFF79CFF328880464D
S315000083702946FAF7FFFF207DC10748BFB72005D47D
S3150000838031880B984144CF1B0780002004B0BDE81C
S31500008390F081F8B504460E461546162200212846F9
S315000083A0FBF72BF86178227802EB01214FF6DF709C
S315000083B001404CF60140814219D104F10D00871CA1
S315000083C041780278A88A02EB012240F00200AA81D5
S315000083D0A88208223946681CFAF7CCFF317807F1E3
S315000083E00800091A6118C9B2072906DA45E04CF6F1
S315000083F00100814241D1E01DE1E74278037803EBB9
S3150000840002230B2B39D18378DFF84C238E1EC11C37
S3150000841023F02C000328F6B218BFDFF8401329D149
S3150000842013F00C0018BF0828287002D00C2803D0BF
S315000084301EE0052E08DA20E0072E1EDB487811F82C
S31500008440026B06EB00266E8248780E7806EB002655
S31500008450881C2E824178067806EB01269906EE8165
S315000084600DD5A88ABE4940F00100A882B52301E0D7
S315000084700346BC490220FEF794FE0020F2BD801C94
S31500008480041BE0B2F2BD71B58BB00E4605AA0BA96E
S315000084903046FFF77EFF04006BD005A800F0C4F855
S315000084A09DF82C502D1B34442246E9B205A8FCF752
S315000084B0A4FE08B1012050E02246E9B205A800F06A
S315000084C05AF8002855D09DF8280081070DD54FF69B
S315000084D0FF71ADF81E100822A3490DF11500FAF739
S315000084E093FF401E8041C00F07E001F055FFBDF825
S315000084F01E1088420CBF01200020BDF82210ADF8E6
S3150000850008100122BDF82410ADF80A108DF80C20D1
S3150000851096490A789DF828108DF80D20CA074CBF99
S3150000852020210021ADF80E100022BDF82610ADF86E
S3150000853010108DF812209DF8141021B108290ED0C4
S315000085400C2911D015E0BDF81E20009205A8019057
S31500008550EBB2224602A8F8F75AFB0CB070BD002811
S315000085600CBF04210521EEE700280CBF02210321E0
S31500008570E9E70020F1E7F0B500251446022983B0AB
S315000085800346754A07DC032000900B467849022013
S31500008590FEF707FE46E0187DC60743D42678B007E7
S315000085A003D5744900F08EF83CE016F0040018BFBD
S315000085B00825F70758BF45F0040536074CBF0226C5
S315000085C00126354338B1042903DC6B4900F07AF8FB
S315000085D028E0207900E0A078DC89002101E0491C30
S315000085E0C9B20627654E17FB01F73E444FF6FF7CDE
S315000085F0378867450ED0A74202BF7788B3F810C008
S31500008600674504BF37798742E9D176792E42E6D0AD
S315000086100120FEBD01905A49188A00902346022087
S31500008620FEF7BFFD0020FEBD38B5044655490220C1
S31500008630FEF7BDFD207808B943A106E0082808BF6B
S31500008640514902D00C2803D150490220FEF7AFFD54
S315000086504F4900F034F8A2894E4900F033F8207DE6
S3150000866081073AA509D54C490220FEF7A0FD601CFA
S31500008670FEF7AEFE00F022F803E06289474900F0FB
S3150000868021F8E289464900F01DF8228A4549022070
S31500008690FEF78DFD0220FEF73DFD10B1208AF8F7AA
S315000086A0D7F900F00BF820780C2806D1628A3E49EB
S315000086B0BDE838400220FEF774BD31BD29460220D0
S315000086C0FEF76FBD0220FEF76CBD12B5A3B00178B0
S315000086D01F4B1446002919780CBF1E22202209B907
S315000086E070202CE0BDF88C1089187E2929DA02AB9F
S315000086F023AA0193009223467D2203A9FFF7DFFDFB
S31500008700010005D1BDF8080003A9C0B2FCF77CF84A
S31500008710010014D1FEF726FEBDF88C30234902462F
S315000087200220FEF744FDBDF88C20012321460220DD
S31500008730FEF73AFE00221E49FFF7C4FF002024B0D0
S3150000874010BD7420FBE70000756E69000000000094
S3150000875097EC0320FCF704004CF804002CF8040006
S3150000876078F804005CF804003CDC032098D703206A
S3150000877098F80400B8F80400D8F80400FCF90400DE
S31500008780F0F804002CF9040044F904004CF9040044
S3150000879054F904005CF9040070F9040080F904003F
S315000087A098F90400ACF90400C4F90400D8F90400EF
S315000087B0F4F9040000E000BF0021017070470000DA
S315000087C00020DFF8EC1801EBC003FF221A7100222B
S315000087D041F83020401C0A28F5DB70472DE9F84F98
S315000087E08A4690B08346BDF84010FF2002298DF8D6
S315000087F0110005DD1A9E33785C0707D5042903DCD2
S31500008800012011B0BDE8F08F317900E0B1788DF824
S3150000881008100027DFF8988808F1040111F83710CE
S31500008820FF2904D07F1CFFB20A2FF5DBFF27DDF8F6
S3150000883078905FEA090003D0FF2F08BFB420E0D08C
S3150000884000208DF8120014460AAA20790DF11201B3
S31500008850FEF734FC58B1BDF8340020809DF81200B4
S31500008860FAF701FE00288DF810003DD113E02079BB
S31500008870FAF7D4F80546FF2D08BFA320C1D020790A
S31500008880FAF7F6FD8DF8100070BBDFF8281801EB3B
S31500008890051148882080BBF1000F0CBF50464FF6EB
S315000088A0FF700190002160881B9D00902A46238856
S315000088B09DF80800F8F701FB18B1E08840F02000A9
S315000088C0E080CDF8149006940796ADF820A08DF8B8
S315000088D024B08DF8255004A9BDF84000ADF822005B
S315000088E005A8F9F791F910B19DF8100089E722461D
S315000088F051465846F8F7FEFABDF84010884225D38F
S315000089001D981C99BDF84030039002910DF111009D
S3150000891001900096DBB222465146584601F094FE7D
S315000089208DF810005FEA090014D09DF8100088B990
S315000089309DF81110FF291DD00A2F1BDA084608F1F1
S31500008940040101F8370048F8379013E074208DF8D9
S31500008950100012E09DF81010BA2908D1A079C106BE
S3150000896005D500218DF81010012002F004FD9DF8B8
S31500008970100010B91120FEF783FBFAF782FDB3E76A
S3150000898070B586B00A9D0B9C0C9E088100F070F8AD
S31500008990042069E050B587B001260A9C088100F0E2
S315000089A055F8014603940294019603204AE010B557
S315000089B082B000240094FFF7EDFF16BDF0B5040069
S315000089C085B00E46154603D0300018BF002D01D1E4
S315000089D002202AE000276946384600F07CFE0100A6
S315000089E023D19DF80010032902BF9DF801102279BA
S315000089F0914202BFBDF802106288914211D19DF8E2
S31500008A0005009DF8061000EB012020812B469DF8FD
S31500008A10041061713246214680B2FFF7C8FF01009B
S31500008A2003D17F1CFFB2022FD5DB05B0F0BD50B5D8
S31500008A3087B00A9C00F00AF80126014603940294C6
S31500008A4001960620FFF7CAFE07B050BD00930494B6
S31500008A5013460A460024704770B586B00B9C0A9DE3
S31500008A600C9E00F005F80520FFF7B8FE06B070BDB5
S31500008A700093039413460A46012401460496029580
S31500008A800194704710B582B000240094FFF7CFFF21
S31500008A9016BDF0B50446022C85B00D4616461F4697
S31500008AA00BD16946E8B200F016FE010013D19DF81D
S31500008AB0010030719DF8040070713B460B990A98CD
S31500008AC004910090002103910291019132462946BA
S31500008AD02046FFF783FE05B0F0BD30B583B0002514
S31500008AE0069C01950094FFF7D4FF3EBD2DE9F041A9
S31500008AF08AB00446884616461F46002505A928461C
S31500008B0000F0E9FD010022D19DF81410012902BFF1
S31500008B109DF815102279914202BFBDF816106288A1
S31500008B20914210D19DF818006071049700200390BF
S31500008B300290019000964346224629460220FFF7FE
S31500008B404DFE010003D16D1CEDB2022DD6DB0AB03D
S31500008B50BDE8F081F0B587B005460C4616461F46BF
S31500008B60162200216846FAF748FCADF80C50ADF81D
S31500008B700A606CB1082221460DF10100FAF7FAFBF2
S31500008B80BDF8140040F00200ADF8140000200BE020
S31500008B90380003D0ADF812700C2005E04FF6FC71DA
S31500008BA08E42B4BF002008208DF800000D980C9B63
S31500008BB00F9A0E99ADF80E00ADF810306846FFF723
S31500008BC084FD07B0F0BD80B50346DFF8EC040088ED
S31500008BD00A0007D1BDE80050DFF8E024DFF8E01412
S31500008BE0FEF7E5BA0091DFF8DC24DFF8DC14FEF7C7
S31500008BF0DEFA01BD10B5FF280C4604D1DFF8CC140F
S31500008C0000F017F9FE202146BDE810407CB5044669
S31500008C100D46FCF745FE064633462246DFF8B014FD
S31500008C200220FEF7BEFA300011D185B1DFF8A41498
S31500008C300A6801A801AB0260032000908DF8054088
S31500008C40002236214FF6FC7011F065FC06463046D0
S31500008C5076BDF8B50D460446288816461F4608B167
S31500008C600020F2BD2046FFF7F1FA70B93B463246C6
S31500008C702946204611F0ECFA688848F2210188421C
S31500008C8003D171782046FEF721FA688848F201017F
S31500008C908842A4BF0820FEF733FA0120F2BD2DE971
S31500008CA0F04788B0109C119D81460E469246984624
S31500008CB005F053F88DF80890039607460495ADF82D
S31500008CC01440ADF816708DF818A08DF8198001F0D3
S31500008CD06BFB8DF81A0001F069FB8DF81B00FFF79E
S31500008CE0A0F98DF81C0002A8F8F78CFFA8B9234656
S31500008CF02A463146384611F072FD70B923462A4697
S31500008D0031463846FFF7A5FF38B90190009723464C
S31500008D102A4649463046F7F77AFF08B0BDE8F0879D
S31500008D202DE9FC471F000A9D0B9C80468946164686
S31500008D3031D0DFF8A423DFF8A4130220FEF737FAB8
S31500008D4033880BB9A1A20AE040F209118B4208BF91
S31500008D509FA204D0B3F5827F0CBF9EA29EA201956E
S31500008D607088DFF87C1300900220FEF720FA308826
S31500008D7070B1022D0CDD2178A378C8074CBFDFF84F
S31500008D806423DFF86423DFF864130220FEF70FFA8A
S31500008D90A1A100F04EF80C98C54A0021131D13F846
S31500008DA0313083420FD0491CC9B20A29F6DB4FF095
S31500008DB0000A0021131D13F83130834206D0491CE6
S31500008DC00A29F7DB09E052F831A0F2E7131DFF206C
S31500008DD003F83100002042F83100002F04BF30882C
S31500008DE0002806D17188B1F5004FBCBF0820FEF7F8
S31500008DF047F90120FEF784F934B12078C10703D57D
S31500008E0000F01AF8F9F73FFBBAF1000F02D000F0B4
S31500008E1013F8D047019400953B46324649464046F2
S31500008E20FAF76EFC00F008F8F8F7C4FEBDE8F38721
S31500008E3000000220FEF7B5B9019700942B46324692
S31500008E404946404670472DE9FC4105469038A84EF4
S31500008E50DFF8A0820CD0401E4DD0C01E4BD0801E25
S31500008E6049D0801E47D01338042844D9113850D130
S31500008E700020ADF8040011F070FD044601F08CFAF4
S31500008E80471EBF41FF0F3CB1002F19BFA088ADF8A8
S31500008E9004002189ADF804100DF106000AF034F83B
S31500008EA0BDF80600810605D5BDF8040040F0200097
S31500008EB0ADF804003A4601A90020FEF724F9BDF8F2
S31500008EC004000AF008F801F067FA009043463246BB
S31500008ED089490220FEF765F9BC2D07D18749FFF7BE
S31500008EE0A8FFFEF706F9FEF705F901E010F016FAFD
S31500008EF0FEF700F90DE0912D03D143463246804935
S31500008F0002E0804B804932460220FEF74AF9F7F725
S31500008F107EFD2846FAF727FC284611F07FF82846FA
S31500008F20FBF7BDFC2846FCF7B9F92846F8F74AFBDB
S31500008F3010B17649FFF77DFFBDE8F38110B582B029
S31500008F400020734CFAF78FFA206890B10078012858
S31500008F5008BF11F021FD684601F0CBFB48B9206837
S31500008F609DF800100078814203D0012808BF02292D
S31500008F7006D168490A88ADF800206846FCF7B1FDBD
S31500008F80FAF77FFA13BD10B50446FAF76FFA2046D2
S31500008F9007F0CEFDBDE81040FAF773BA10B55C498C
S31500008FA00968044682B0702071B10A78012A0BD193
S31500008FB0012011F006FD2189574A00F027F82046C6
S31500008FC0BDE81640FCF701BC16BD00005A444F0030
S31500008FD053450000484100003F3F000038B54C496A
S31500008FE009680446702081B10D78012D08BF02255D
S31500008FF0012011F0AFFD2189484A00F007F821460B
S315000090002846BDE83440FCF770BC32BD0091012013
S31500009010E37A4349FEF7C5B80000000010B50446E0
S3150000902001F0B3F900200022215CFF2908BF225479
S31500009030401C1028F8DB227410BD10B584B0002245
S31500009040CDE901010024374B0AE013F832009DF800
S315000090500A10884204BF181D50F83240521CD2B282
S31500009060181D50F832000028EFD19DF808009DF831
S3150000907007309DF806202C4900900220FEF797F84D
S315000090809DF809201AB108A10220FEF790F804B94C
S3150000909006A4BDF80430224604B0BDE810402349BA
S315000090A00220FEF77EB800002E2564003F3F3F00F9
S315000090B048D7032098D7032052EC0320EC1F050065
S315000090C0E41F050004200500F41F0500102005001C
S315000090D04C2005000C200500C4200500B820050022
S315000090E064200500A8200500B02005009420050096
S315000090F0DC200500E4200500CC200500F02005005A
S3150000910010210500282105001C210500302105003D
S3150000911034D9032088C305007C210500842105007D
S3150000912060210500B42105008C210500A42105005D
S31500009130F8F742BDDFF8DC0300780C2110FB01F2E2
S31500009140DFF8D403006892B2FF21FAF756B970B57A
S315000091500C46DFF8C01309788842054601D36A2019
S3150000916070BD12F0B5F908B1762070BD204605F045
S31500009170BAFA4FF6FF71884208BF4FF6FD700C2110
S31500009180DFF894634D4331684853204600F070F988
S31500009190316829448872FEF751FF042804DB2D212B
S315000091A00FF2983001F0CCFEFEF748FF31682944F3
S315000091B08A7A42EA400088720822306828442146AA
S315000091C0801CFAF7D7F8002070BD38B5DFF84433B5
S315000091D01B78984224D20C22CF4D12FB00F42A6849
S315000091E011534FF6FF72914208BF12F073F9FEF762
S315000091F025FFCA490978884204D347210FF23C303B
S3150000920001F09EFE28682044817A01F0F101817206
S31500009210FEF714FF296821448A7A42EA40008872E0
S3150000922031BD10B5BB4A12780346934208460AD2AE
S31500009230B94909680C246343BDE810401944082263
S31500009240891CFAF797B8BDE8104008220021FAF702
S31500009250D4B8B04A1278904205D2AF4909680C22B8
S315000092605043085A70474FF6FF707047F8B50746E7
S315000092700C46A84DA84E00E00C37297830680C2221
S3150000928051430844874214D238884FF6FF7188420A
S31500009290F2D008222146B81CFAF7B6F80028EBD11E
S315000092A0FEF7CCFEB97AC1F342018142E4D13846D9
S315000092B0F2BD0020F2BDF8B5044600F073F99648F9
S315000092C0944F066800250EE03088A04209D1FEF7CB
S315000092D0B5FEB17AC1F34201814204BF4FF6FD707B
S315000092E030806D1C0C363978E8B28842ECD3F1BD7B
S315000092F070B504460D462846FFF7DDFF2946204691
S3150000930000F071F984480068214605E0358011F0C7
S31500009310A5FC214606F10C00FFF7A8FF0600F5D1D3
S3150000932070BD7FB5044608227D49FAF76DF810B97D
S3150000933005F028FA34E07B4D2868011D08222046F6
S31500009340FAF762F810B92868408829E000200090F2
S315000093504FF6FF75002301222146284600F06EFADB
S31500009360FF284FF6FC7605D06F49096831F81000E2
S31500009370B04215DB01A809F0D1FD50B9BDF80400D3
S31500009380400606D5082221460DF10600FAF73CF8FC
S3150000939030B100F087F810B10088B04200DB2846F3
S315000093A004B070BD2DE9FF410446884605F0EAF990
S315000093B0844202D108225A493EE05A4E3068428819
S315000093C0944209D100220821001DFDF70EFE18B9AE
S315000093D030680822011D2FE00020009000230122A2
S315000093E00021204600F02AFAFF280AD0694600F03C
S315000093F072F930B908220DF105014046F9F7BAFFB6
S315000094001DE04548434F0568002601E0761C0C35F3
S315000094103978F0B2884214D228884FF6FC71884217
S31500009420F4DAA042F2D1FEF709FEA97AC1F34201AD
S315000094308142EBD10822A91C4046F9F79BFF012087
S3150000944000E0002004B0BDE8F08110B5044600201D
S315000094500AF092FCFF2808D03449096831F8100058
S315000094600006800E00F0010010BD04F0010010BDE2
S3150000947038B5044600F016F8002508B1857A0CE0E8
S3150000948000900023012221464FF6FF7000F0D6F926
S31500009490FF2802D0264909680D5C21462846BDE80A
S315000094A03440D2E71C4800682146DFE638B504465A
S315000094B00D4600F0E1F818480068214602E0857282
S315000094C021460C30FFF7D2FE0028F8D131BDF8B5A1
S315000094D005462946002000F081F9FF2815D11548D8
S315000094E0154E0768002401E0641C3F1D3178E0B288
S315000094F088420CD23888A842F6D1FEF79FFDF9784B
S315000095008142F1D1B8780028EED00120F2BD0020CA
S31500009510F2BD0000D0630320CC5F0320CA630320A2
S315000095203CDC0320C8DA0320C05F0320845F0320ED
S31500009530C45F0320A05F0320C863032061646472D4
S315000095406573732D7461626C652E63001FB50C46DE
S3150000955002460D231521684606F083FD0D22694655
S315000095602046F9F707FF207840096073207800F05D
S315000095701F0020701FBD30B585B004460D460D2274
S315000095806846F9F7F7FE9DF80000697B40EA41104E
S315000095908DF800000D236A462146152006F0A7FD2A
S315000095A005B030BD2DE9FF41044600F05FF814E038
S315000095B03068EDB2A84630F81800A0420CD16946D2
S315000095C0284600F088F89DF80000022804D031688B
S315000095D04FF6FD7021F818006D1CE8B23978884204
S315000095E0E6D3BDE8FF812DE9F04588464FF6FF7AC0
S315000095F0D04585B0044605D100F0C0F910B905F094
S31500009600C1F830E000F032F80CE0D04508D0306800
S3150000961030F81510414504BF4FF6FD7120F81510BE
S315000096206D1CEDB2387885421CDA306830F81500CA
S3150000963000F000F9F4DA69462846FFF787FF0822AA
S3150000964021460DF10500F9F7DFFE0028DDD130686F
S31500009650D04502D130F8150005E020F8158011F04C
S31500009660FDFADDE7504605B0BDE8F0850025DFF8D8
S315000096709463DFF8947370472DE9FF478046894667
S315000096800026DFF88873DFF87C43DFF87C5316E0AA
S315000096902068F6B2B24630F81A0000F0CBF80DDAC0
S315000096A069463046FFF752FF082241460DF1050094
S315000096B0F9F7AAFE10B9386800F80A90761CF0B2DD
S315000096C029788842E4D3BDE8FF87DFF838130968B4
S315000096D031F81000704780B5CB4B1B78984201D308
S315000096E0692002BDFFF732FF002002BD70B50446B7
S315000096F00D4623460022B4A103200FF063FA287812
S315000097000028204602D1BDE870403AE0BE490978FB
S31500009710884201D3692070BD11F0D8FE08B17520CA
S3150000972070BDFEF78BFC6873681DFFF7A1FE064649
S315000097304FF6FF71681DFFF756FF0246297833463C
S31500009740204600F006F829462046FFF714FF0020C1
S3150000975070BD30B54FF6FF740D0008BF224608D025
S31500009760032908BF4FF6FE7203D0A24208BF4FF688
S31500009770FD72A449096821F81020A44909680B5410
S3150000978030BD30B505462C4685B0234601228EA154
S3150000979003200FF017FA9C4909782846884228BF0B
S315000097A0692019D211F092FE08B1752014E06946BD
S315000097B02846FFF7CBFE9DF8000030B100208DF85B
S315000097C0000069462846FFF7D6FE8E4909684FF61F
S315000097D0FF7021F81400002005B030BDF0B585B04B
S315000097E007460C46874D884E00E07F1C3178F8B25C
S315000097F088421CD22868FFB230F8170000F01AF829
S31500009800F3D169463846FFF7A1FE9DF80500E1B29F
S31500009810884204BF9DF80610B1EB142FE5D1FEF780
S315000098200DFC9DF80D108142DFD1384600E0FF2087
S3150000983005B0F0BD4FF6FE71884270472DE9F14F35
S3150000984084B00D460E9C6F4FDFF8BCA1904699463A
S31500009850002607E03868BDF8101030F81B00884273
S315000098602CD0761C9AF80010F0B2884228D23868BC
S31500009870F6B2B34630F81B00FFF7DCFFF1DA6946B3
S315000098803046FFF763FE5FEA080007D19DF8010046
S31500009890484504BF9DF80400A042E2D1FEF7CEFB86
S315000098A09DF80D108142DCD1002DD3D008220DF198
S315000098B005012846F9F7A8FD0028D2D1304600E078
S315000098C0FF2005B0BDE8F08F10B51446FFF73EFE49
S315000098D02046BDE8104008224D49F9F74BBD2DE959
S315000098E0FF470446084615461E4600F047F808B1ED
S315000098F0002040E00027DFF80C81DFF80C9100E043
S315000099007F1C99F80010F8B2884223D2D8F80000DC
S31500009910FFB2BA4630F81A004FF6FF718842EFD010
S3150000992069463846FFF712FE0C220DF10101601C54
S31500009930F9F76AFD0028E3D1BAF1FF0F0CD1002038
S315000099403070FEF77AFB307855B138B9204600F012
S3150000995069FD09E0FF27F2E70120F1E7012006E0B3
S3150000996028B1384600F08DFD401E8041C00F307092
S31500009970FEF769FB012004B0BDE8F0870822244900
S31500009980F9F742BD30B585B000241F4D16E0694693
S31500009990FFF7DCFD9DF80000042806DB00208DF8AB
S315000099A000006946E0B2FFF7E6FD9DF800100023CF
S315000099B04FF6FF72E0B2FFF7CCFE641C2978E0B2E6
S315000099C08842E4D305B030BD4242000030B585B0D0
S315000099D002220BA103200FF0F5F800208DF80000FD
S315000099E00024094D03E06946FFF7C5FD641C29788C
S315000099F0E0B28842F7D3FFF7C5FF002005B030BDBF
S31500009A0042000000C05F0320CF630320C45F032031
S31500009A103CDC032030B58BB004460D4609AB002272
S31500009A2059495A4801F0ACFC09AA5949594811F05C
S31500009A3095FD00F023F840F277112522564B04904D
S31500009A40039102920193009500230FF259025349A4
S31500009A50534811F0FBFF00F011F8AF211122514BD2
S31500009A600490039102920193009400230FF2C50221
S31500009A704D494E4811F0EAFF0BB030BD09A803214D
S31500009A80002208900791069205920020704703462F
S31500009A900022022102E00346002201213B4801F098
S31500009AA0A9BD00002DE9F04184B02125404CDFF826
S31500009AB0DC80404E404F03E0A9062AD545F001055B
S31500009AC068070BD53168386812F0CEFB02AB00226E
S31500009AD00821404601F08EFD25F0040505F0210021
S31500009AE021280ED112F0A2FD206040B102AB002267
S31500009AF01021404601F07EFD25F0200501E06D08AD
S31500009B006D0012F05DFD0028D6D010F1010F08BFE0
S31500009B100020002202A90092019102464FF48473AC
S31500009B202521404601F058FC05439DF808002128F0
S31500009B30C6D1C3E73EB5154C002502A80190009595
S31500009B404FF4847300220221204601F045FC12F0F6
S31500009B50AFFDF2E7174A10B5116084B016490B4CF9
S31500009B60086002AB00220421204601F043FD02A852
S31500009B700021019000914FF48473002208212046B1
S31500009B8001F02AFC1FBD00006413050080D60320E7
S31500009B907413050038CC03202CCD03208413050054
S31500009BA070CC0320C4D303209413050008D30320EC
S31500009BB034CC03206CCC032068CC032038B5447821
S31500009BC0456812F0A5FD00F09CF85B1BB3F1004F51
S31500009BD098BF5550BDE8324012F0A0BD10B500F058
S31500009BE07BF86060042020702046BDE81040E5E761
S31500009BF038B504460D4601F0AEFA2818606001201B
S31500009C0020702046BDE83240D8E710B504462078DB
S31500009C1001000CD0042806D001F09DFA6168421AB2
S31500009C20B2F1004F01D8002010BD081A10BD4FF048
S31500009C30FF3010BD70B500F04FF8054612F068FD14
S31500009C40064660686FF0004100F02CF8401920606D
S31500009C503046BDE8704012F061BDF8B504460D46C9
S31500009C60164601F078FA002156B1FF22327007E05D
S31500009C70121AAA4202D2154606B13170491C08349E
S31500009C8022680AB92846F2BD13781F00F6D0042BC5
S31500009C9004D05268831AB3F1004FE9D806B1317087
S31500009CA00020F2BD0022D8E738B500F015F80546C9
S31500009CB00EE001780A000AD0042904D04168691A26
S31500009CC0B1F1004F03D80421017061688847083458
S31500009CD020680028EDD131BD044601F03CBA10B52C
S31500009CE0FFF7FAFF00F00DF8C01AB0F1004F07D8E1
S31500009CF054186068FFF7D8FF2046BDE8104099E782
S31500009D0010BD0C2111FB04F1364A5358704770B54B
S31500009D10354E3649097804467078884204D3E121E5
S31500009D200FF2CC0001F00CF97578681C70700C21EC
S31500009D302C4811FB05F1084401214460017200E042
S31500009D404D7054F8081B0029FAD1FFF773FF284617
S31500009D5070BDF8B54FF0FF310C2400916043214DE2
S31500009D60214E284400210172307820B312F0D9FC2C
S31500009D7028B94FF48C710FF2780001F0E1F801F088
S31500009D80EAF9002105E0009B9A4288BF1A46009234
S31500009D90491C7378CAB29A4211D2C9B214FB01F3B4
S31500009DA0EA58871AB7F1004F05D92B44121A1B7AC5
S31500009DB00BB9002AE7D104F0D1FE0020F2BD6846B7
S31500009DC012F03CFD10B9684601F0E1F90120F2BD40
S31500009DD00C23044A5843104401210172704702497A
S31500009DE008707047A0D80320E9E90320BDC3050029
S31500009DF06576656E742D636F6E74726F6C2E63007C
S31500009E0030B504460D008BB008BF022016D02822BC
S31500009E1000216846F9F7F1FA082221460DF11D00E6
S31500009E20F9F7A8FA102229460DF10300F9F7A2FA6C
S31500009E3001208DF80200684600F012F80BB030BD24
S31500009E40DFF8E403018901B9704710B50021DFF896
S31500009E50DC430181207804F0FBFEFF20207010BD5A
S31500009E6010B50FF2F4318CB00446D1E9002301A8F5
S31500009E70C0E90023A078012818BF702047D120220E
S31500009E80002103A8F9F7B9FADFF8A40300884FF414
S31500009E907A7148430A90082204F11D0103A8F9F7D4
S31500009EA069FA1022E11C05A8F9F764FA2078400740
S31500009EB04CBFA06900200990082201A903A8F9F760
S31500009EC0A3FA40B1694604F11D0000F022F810B172
S31500009ED003A800F07FF800F01EF9DFF85043207861
S31500009EE0FF2805D1012004F048FEFF28207005D088
S31500009EF02078202203A904F0BBFF08B1182006E051
S31500009F00C9480189491C018100F005F900200CB0FF
S31500009F1010BDF0B5C54E04463078FF2889B00D4611
S31500009F201DD000202880C34F02E02888401C2880CE
S31500009F3031783B6828885B5C42019A420FD2002246
S31500009F40009220234201D2B200F020F908222146D5
S31500009F5001A8F9F759FA0028E7D1012000E000200E
S31500009F6009B0F0BDB048008900B10120C0B2704709
S31500009F7010B58AB00C4601A9FFF7CBFFF0B100F08F
S31500009F801FF802A804F003FF282200212046F9F753
S31500009F9034FA0120A07010220E20208004A9E01CB3
S31500009FA0F9F7E8F9082202A904F11D00F9F7E2F928
S31500009FB00898A06112F0FDFC606101200AB010BD96
S31500009FC0002000902023BDF8040042019748017844
S31500009FD0D2B2704730B583B001A9FFF79AFF40B3FC
S31500009FE0914CBDF804102089904D401A401E400146
S31500009FF081B271B180B20090BDF804002A78401C8D
S3150000A0004301BDF8040041019BB289B2104605F038
S3150000A010A3F82089401E2081410128788AB21AB10E
S3150000A020C9B204F066FF03E004F012FEFF202870B8
S3150000A03001203EBD30B58BB00D4604466946FFF79C
S3150000A04097FF48B12046FFF7C5FF04F09BFB18B900
S3150000A05029462046FEF74FF80BB030BD70B58EB0DE
S3150000A06004460E46082200216846F9F7C6F96946F5
S3150000A070204604F052FB002500284AD104F082FB5A
S3150000A08008B1A32524E07078042818BFAA251FD19B
S3150000A090002300220AA968460EF0EFFE08B1AD259E
S3150000A0A016E003208DF8080006AB012202A90AA8D3
S3150000A0B012F0E2FE102206F10A0106A8F9F7A4F949
S3150000A0C000281ABFAD25332134216846FFF7B2FFB9
S3150000A0D010208DF80C008DF80D5004208DF80E0020
S3150000A0E0082269460DF10F00F9F744F90B2103A880
S3150000A0F004F031FE0646FF2E0BD0002D0CBF0323C5
S3150000A100012332466946204609F0A8F8304604F095
S3150000A1109FFD0EB070BD2DE9F041434C434E002724
S3150000A1208AB0277001F017F8E168A0EB010801F08A
S3150000A13012F8E06007E0012000902023317800F05B
S3150000A14024F87F1CFFB231782089FF2914D087427A
S3150000A15012DA002000907D01202300F016F80898FE
S3150000A160404534BF01464146401A0890E3D13221AA
S3150000A17001A8FFF75FFFE6E720B14FF47A712046AA
S3150000A180FFF736FD0AB0BDE8F081EAB201A804F097
S3150000A190FEBDF0B50FF2C8028DB00446D2E9003517
S3150000A1A002A80027C0E9003514B319B92146FFF704
S3150000A1B0DFFE1EE001A9FFF7ACFEC8B1BDF8040042
S3150000A1C01A4D1C4E0AE000F03FF81022E11C06A8CA
S3150000A1D0F9F71AF900B9012700F02EF8420192B2F8
S3150000A1E029783068405C824201DA3800EBD02FB91A
S3150000A1F000200DB0F0BD00F01FF842012978336849
S3150000A2005B5C90B29842F3D200F01EF8082202A9D5
S3150000A21004A8F9F7F9F80028EDD1102206A9E01CE8
S3150000A220F9F7A8F80120E4E7D0DA0320EC6303206D
S3150000A23062630320705F0320BDF80400401CADF884
S3150000A2400400BDF804007047002000902023D2B21D
S3150000A25004A804F09CBD0000FFFFFFFFFFFFFFFF07
S3150000A260FFFFFFFFFFFFFFFF10B504F077FC0123A0
S3150000A27000224FF4E13120200FF0FAF912F087FEA8
S3150000A280044612F00EFF02462346DFF8A81401200A
S3150000A290FCF787FF12F085FE044612F006FF024621
S3150000A2A02346DFF894140120FCF77BFF12F0F9FE39
S3150000A2B040F2A174C440E0070CD5DFF88044207852
S3150000A2C012F000FF207812F092FF2078BDE81040CF
S3150000A2D013F04EB810BD38B5002200216846FCF7D1
S3150000A2E0F0FE08B1009832BD04F0FCF860B10346F8
S3150000A2F0DFF84C24DFF84C140120FCF752FFA021B4
S3150000A300DFF8440400F01CFEF9F7A8F8FEF758FA47
S3150000A310F8F734F8FDF787FF0221022013F09EF8C4
S3150000A320FEF70CFE13F0EEF8DFF82014DFF8202419
S3150000A330DFF8205441F202000880522111804FF4C8
S3150000A3400040DFF8142411800AF0CDF89DA401E046
S3150000A350F9F799F800F0A8FF04F014F901F008F8ED
S3150000A360012818BFFDF766FF0FF0E6F9F9F7CBF8FD
S3150000A3702021002013F0F8F80028E9D02A462146CB
S3150000A3804FF6FF70FCF713FFE2E7DFF8D0130988FA
S3150000A39010237F2213F068BC04F0F4B904F0FAB974
S3150000A3A0FCF7D5BDFCF754BE0BF0E1BF30B585B068
S3150000A3B002A803F0DAFC88B9002469462046FEF7B5
S3150000A3C030FF082202A96846F9F71EF8C0B1641CDE
S3150000A3D0E4B2022CF1DBFF2005B030BD03F0BDFC7A
S3150000A3E005464FF6FF708542F5D000242046FEF75D
S3150000A3F030FFA84204D0641CE4B2022CF6DBEAE784
S3150000A4002046E9E710B50446F9F732F8010008D10D
S3150000A4104FF4A051204610F004F80446F9F731F83D
S3150000A420204610BD30B585B000F0AFF804F0AAF9AB
S3150000A43038B16088B0F5006F03D1601DFCF744FEAB
S3150000A4401DE02046FCF75AFE05000FD1002569469F
S3150000A4502846FFF740F9002804BF9DF800000028B1
S3150000A46009D06D1CEDB2022DF1DBB425F9F709F820
S3150000A470284605B030BD21462846FFF737F9054680
S3150000A480F4E738B500F081F82046FCF735FE050004
S3150000A49003D12046FFF775F90546F8F7F2FF28467F
S3150000A4A032BD38B5FF2504468DF800506946FCF7E5
S3150000A4B001FE10B19DF8000032BDFDF7B4FDA849BC
S3150000A4C001EB04110B7B834207D12046F7F79FFF70
S3150000A4D018B12046F8F7A4FA0546284632BD70B5ED
S3150000A4E004460D46FCF7E8FDF8B92046F8F796FA5B
S3150000A4F00646FF2E07D0FDF796FD994901EB06119A
S3150000A5000A7B824201D0002070BD48882880888856
S3150000A51068808879287101212046F8F786FA6871E3
S3150000A52000212046F8F781FAA871012070BD2DE9B7
S3150000A530F04105460E469046F8F770FA0746FF2F9B
S3150000A5404FF6FF7414D0FDF76EFD854901EB071138
S3150000A5500A7B82420CD1300008BF012202D0012EB4
S3150000A56006D1002241462846F8F789FA00B1048848
S3150000A5702046BDE8F08110B500F007F82046FEF74A
S3150000A58062FCBDE81040F8F77CBF0446F8F76EBFE2
S3150000A59038B50446084673490B681D5D2B469A423A
S3150000A5A007D200920220664A6F49FCF7FAFD0020A6
S3150000A5B032BD002100910022214604F0E8FB284626
S3150000A5C032BD000025703E0070B598B004460D46B9
S3150000A5D01646F8F74BFF522203A93046FFF7D8FF7D
S3150000A5E0060011D00DF1090003F0B0FB02A803F03C
S3150000A5F0AFFB03A801909DF908309DF8092000964D
S3150000A60029462046FEF74BFBF8F73BFF18B070BD16
S3150000A610F0B599B004460D4616461F46F8F726FFD4
S3150000A620522203A93846FFF7B3FF48B103A90191A7
S3150000A6300090029732461E9B29462046FEF770FB85
S3150000A640F8F71FFF19B0F0BDF0B583B005460E460A
S3150000A65008981446194604F07EFB0746FF2F01D1E1
S3150000A6601820FEBD09990B9A0A980F70062D2CD852
S3150000A670DFE805F00404040B12221B003B462246C9
S3150000A680314628460BF06EFB1DE03B460C220C21A2
S3150000A69020460BF042FC16E0E17A019200903B4620
S3150000A6A00A4620460BF01EFC0DE03B460C222146D6
S3150000A6B030460BF0B7FB06E001972346E17A00919E
S3150000A6C031460BF0D1FB044600E00224384604F084
S3150000A6D0BFFA2046FEBD08222449F8F74BBE10B546
S3150000A6E004460846FCF744FC2046BDE81040FCF74B
S3150000A6F0EDBAFCF7EBBA052070470620704702203A
S3150000A70070470420704701F0BFB802F0E3BC02F0C6
S3150000A710DDBC1748007870474B20704700B583B002
S3150000A720684614490822FDF72BFDDDE90001FEF716
S3150000A73084FC07BDFC21050014220500BF6303202D
S3150000A74048220500342205005022050092630320AA
S3150000A75096630320602205009863032078C30500F2
S3150000A76098D70320705F0320842205003CDC032079
S3150000A770C363032098B8050010B582B0FFF705FF44
S3150000A7800DF1010003F0E2FA684603F0E1FA00F089
S3150000A7900AF813F069FC18B900F005F813F0AFFDDC
S3150000A7A0F8F76FFE13BD9DF900209DF801102046B5
S3150000A7B0704738B504460D46F8F758FE2946204638
S3150000A7C013F01AFC18B92946204613F0A3FD0DE034
S3150000A7D038B504460D46F8F749FE2946204613F0DB
S3150000A7E09DFC18B92946204613F080FDBDE831408E
S3150000A7F0F8F747BE7047FDF734BD000038B5C44CC6
S3150000A80005462078C10702D4FFF7CAFD48B1207873
S3150000A810C04BC14AC14900900120FCF7C2FC702020
S3150000A82032BDBF48BF4A0570BF48016811600020AD
S3150000A830BE49002201F8102001EB4003401C6FF0D6
S3150000A8407F0210285A70F4DB00202070BDE83140EA
S3150000A850DAE0012050E1F0B587B00446ADF80C10FF
S3150000A8608DF80E201D4601A800F024F88DF80F5033
S3150000A8702E460B3D102DA84F07D333463A46AC491A
S3150000A8800120FCF78EFC022012E0A5480470204649
S3150000A8900FF0FDFB04000AD101A8FAF796FF044663
S3150000A8A0009433463A46A3490120FCF77AFC204639
S3150000A8B007B0F0BD38B5044600229F49885C0028E1
S3150000A8C018BFFF280AD1521C082AF7DB00250DF015
S3150000A8D02DFF60556D1C082DF9DB31BD2046BDE806
S3150000A8E038400822F8F746BD2DE9F04F064687B0F6
S3150000A8F030788C4F4FF0010838B1B078396808FAD3
S3150000A90000F021EA000038605CE03089C0B200281F
S3150000A91058D10DF00BFF00F00F04FCF7DBFBADF890
S3150000A9200C000B3403208DF80E00E4B201A8FFF7EB
S3150000A930C1FF7B48DFF8D89100780FF0A8FB05002F
S3150000A9402DD10125DFF8ECA1DFF8CCB104E03968A0
S3150000A95008FA04F081433960386800B3FDB11A2C57
S3150000A9600EBF0B24641CE4B220FA04F1C907F6D525
S3150000A9708DF80F4001A8FAF728FF054600952346F3
S3150000A9805A4651460120FCF70CFC002DDFD199F800
S3150000A9900010490801F0010101A8FCF79AFB357087
S3150000A9A0307868B199F800108A0709D463480268BC
S3150000A9B03A6041F0020189F8001000F025F801E044
S3150000A9C000F09AF807B0BDE8F08F10B50289130AB7
S3150000A9D09C07D1B203D50078BDE810408CE0D205C3
S3150000A9E002D5BDE810407FE7012905D141688A7884
S3150000A9F090F90100002103E029B98278012140562F
S3150000AA00BDE810401AE010BD30B585B068464C4927
S3150000AA10444C1022FDF7C4FB012025688DF8000088
S3150000AA200195684613F018FC00218DF8001001000E
S3150000AA3004BF684613F010FC05B030BD2DE9F043A5
S3150000AA40384D2E6826FA02F3A2F10B04DB07E4B2B6
S3150000AA5050D50127DFF8D4C011B1012906D041E055
S3150000AA601CF81400401C0CF814003BE00CF101012A
S3150000AA7011F91410814235DA0CF10101002301F8B5
S3150000AA801400002100200CF1010E1EF910E01EF149
S3150000AA90800F12D000F10B0826FA08F95FEAC97E8A
S3150000AAA00BD50CF1010E0CF101081EF913E018F993
S3150000AAB01080491CC645B8BF0346401C1028E2DB7F
S3150000AAC0C9B205290EDB0CF101000CEB420110F9AD
S3150000AAD0130011F9151C8842B4BF13460B3307FA4D
S3150000AAE003F39E431CF814001528A4BF07FA02F2CC
S3150000AAF096432E60BDE8F08380B503460448064AB7
S3150000AB000178009101200F49FCF74BFB01BD0000C5
S3150000AB107CEC0320ACF20400A0F2040090F20400E6
S3150000AB20A363032028740320EC5C03202C74032009
S3150000AB30C0F20400E8F2040088D90320F05C032088
S3150000AB4030F304000CF3040080B5DFF88C1300200A
S3150000AB5008710620FDF76DFAFDF774FADFF87C033D
S3150000AB600068407B042814BF532800F05CF8BDE859
S3150000AB700140FDF768BA80B517229AA103200EF0AE
S3150000AB8021F8BDE80240002049E0F8B5DFF84C4363
S3150000AB9023685D7B2F0018BF212D05F00F0607D017
S3150000ABA01D7B012D01D1850602D4CB4D2F790FB126
S3150000ABB07020F2BD2A70012EC94A118004D12120CD
S3150000ABC0587300F030F828E081064CBF5321042169
S3150000ABD059732168097BC91E032934BF00F0200080
S3150000ABE000F0A00001464FF6FD7000F030F9206835
S3150000ABF0407B042804BF0120FBF7CAFF0620FDF7AF
S3150000AC0017FA2068007BC01E032834BF4FF400717A
S3150000AC104FF40061281DFEF7EBFF0020F2BDFF2276
S3150000AC204FF6FF71B1E780B50FF0FFFF0CF012FB96
S3150000AC300CF0EBF8AB4800780A2803D0BDE80140D9
S3150000AC4006F0BEB80620FDF7F3F9BDE802400FF2A4
S3150000AC50090004F05ABC000010B50620FDF7E9F91A
S3150000AC60FDF7F0F99D4C2068417B532906D103215D
S3150000AC70417301200021FAF7AAFF29E0042918BF31
S3150000AC80212925D10120FBF783FF4FF6FE7003F043
S3150000AC907DFD4FF6FF7003F081FD0020FBF7EBFE14
S3150000ACA0FBF701FC00F045FE05F055FE01200AF019
S3150000ACB0C5FD2068407B212802D1FAF76FFD07E029
S3150000ACC00020FCF70FF900214FF400400EF01FF8AA
S3150000ACD0FDF7B9F9BDE81040FDF771B92DE9F84364
S3150000ACE00E468046511CC9B2304604F049F9054665
S3150000ACF030460AF0D2FD0646B01C06F09BFE8146A1
S3150000AD00A809764F00F001043868417B022966D114
S3150000AD10017B032903DB4088804503D022E040699C
S3150000AD20C0011FD484B17078000708D530460BF0F7
S3150000AD302FFD08226C49F8F767FB002802E003F0B4
S3150000AD4021FD81454BD107E00329A4BF4FF6F870DA
S3150000AD50814509DBE80907D00122414605F0A0003C
S3150000AD60FFF713FF002C3AD13868007B032836DA48
S3150000AD707078C00633D530460BF015FD06463146D1
S3150000AD80002008F0F9FF0446FF2C07D0A8065CBF98
S3150000AD90204600F029F8204609F0F5F940460CF067
S3150000ADA076FBFF280BD00CF020FCA80607D403F096
S3150000ADB0E9FC20B102223146404608F02DFB03F0A3
S3150000ADC0E1FC60B9FDF739F94FF6FF73022231460F
S3150000ADD040460FF081FEBDE8F143FDF734B9BDE80A
S3150000ADE0F1830000420000001CB509F0D6F80446C5
S3150000ADF0694609F03CF950B103F0C4FC38B1FCF7E0
S3150000AE006DF820B102226946204608F005FB13BD05
S3150000AE1038B504460D460BF057FE0146FF2901D111
S3150000AE20012032BD2D4A1268D27E4AB12F4A1268DD
S3150000AE3032F81110490403D509F0A5F9002032BDF6
S3150000AE40FFF7D2FF45F040012046BDE8344030B55B
S3150000AE500446880985B000F0010504208DF8080035
S3150000AE608DF80910280008D003A9204609F0FFF83C
S3150000AE7008B901202DE003A800E00020019000950C
S3150000AE80022302AA012120460BF051FC0546FF2DA4
S3150000AE9008BF18201DD011480068017BC91E032970
S3150000AEA003D2418828460AF030FD4FF6F8708442F6
S3150000AEB005DB0022022128460CF06CF903E021464E
S3150000AEC0284600F0F3FE0446284603F0C1FE84F04F
S3150000AED0010005B030BD00002CDA0320C8DA0320DB
S3150000AEE08A630320E56303203CDC0320845F0320A0
S3150000AEF038B504460AF0D1FC054620460BF036FC70
S3150000AF00411CC9B2204604F03BF8697809070AD506
S3150000AF1028460BF03DFC0146002008F02DFFBDE859
S3150000AF20324009F030B9400602D4BDE831400BE6A4
S3150000AF3031BD7047704770477047000042DE70476A
S3150000AF4038B504460D4609F097FD00F0ADF903F05B
S3150000AF50ABFD2946204613F02CFA2B4622466B49B8
S3150000AF6001200EF0D9FB29462046BDE83440E5E72E
S3150000AF7067482DE9F843674E0168B1654FF42065CF
S3150000AF80016AF16564490A68326649687166416A10
S3150000AF90B166816AF166C16A3167016B7167806B60
S3150000AFA0B06796F8380041074CBF346CF46B13F069
S3150000AFB0C6FB002232658442584B014624BFA3F1EA
S3150000AFC02009A1452746716506F19002DFF850C1B8
S3150000AFD0DFF850E118D3A0697064E469B464B46D15
S3150000AFE0C4F30804062C13D1704511D360450FD263
S3150000AFF000884DF64264A0420AD17468B068546075
S3150000B000906040F2017503E000247464B46407465E
S3150000B0104548814238BF01460846984269D20C68C5
S3150000B020B4F1CD3F08BF091DF6D062E0062C08D169
S3150000B0300C000CBF0521491E06F17C04C9B244F878
S3150000B04021009F4220D253F8040D7045F9D3604584
S3150000B050F7D2C407F5D5002406F17C0858F82480F9
S3150000B0608045E3D0641C062CF6DBDFE7F06F002397
S3150000B07006F17C0C06EB8304D4F880704CF8237040
S3150000B0805B1C042BF6DD10600846411EC0B200288A
S3150000B090ECD1B06DC0F30800032810D0042811D0FD
S3150000B0A0052812D0062813D00C2817D0122818D13C
S3150000B0B01E4801688A0719D540F2025516E040F687
S3150000B0C0012513E040F6022510E040F603250DE0C9
S3150000B0D0B5F5206F0AD140F6042507E040F60525B0
S3150000B0E004E018B1432838BF40F607252846BDE8D6
S3150000B0F0F2830F49081AF0640021002006F17C044F
S3150000B10044F82010401C0628FADB9AE7A0FC04004D
S3150000B11004ED00E00000002000E300E0C859032031
S3150000B12008D60400780700009C0000201C2005407B
S3150000B130C859032080B513F0AEFC13F0B9FC80B2F9
S3150000B14002BD80B513F0A7FC13F0B2FCFA21B0FBE8
S3150000B150F1F080B202BD80B513F09DFCBDE804405D
S3150000B16013F0A6BC80B513F0C6FD1348002141605C
S3150000B170001D13F009FB20B139210FF26C00FFF717
S3150000B180DFFE002002BD0C4901200870704770B533
S3150000B190044682B02268002502B911E000F002F8E8
S3150000B1A0012011E0044E054B3570009500217068B2
S3150000B1B013F062BB00000000B0DA032087B1000084
S3150000B1C003F0CCFC002076BD13F0DCFE307828B905
S3150000B1D07068214613F006FC852501E02560357070
S3150000B1E0284676BD11F02FBB73797374656D2D7487
S3150000B1F0696D65722E63000008B410B585B007ABA3
S3150000B20000240493039400290EBF01940190491E63
S3150000B2100291009404AB01A9074878441A3013F050
S3150000B220B3FE019901B10C70002858BF039805B010
S3150000B23010BC5DF808FB00BF0B82FFFF00F10103A5
S3150000B240810704D010F8011B89B18107FAD1026881
S3150000B250B2F10131914311F0803F04BF50F8042F41
S3150000B260F6E710F8011B11B110F8011BFBE7C01A35
S3150000B2707047000014F0F8B880B50121144814F0A6
S3150000B280B7F90421072014F031FE12481249134A77
S3150000B29001600421116002224262114A1160826A31
S3150000B2A042F00202826201BD0A4814F061BEA5287E
S3150000B2B006D108480068C10702D50A49002008607F
S3150000B2C070470448016811F0010018BF012070475B
S3150000B2D000250800002005400108030080E200E088
S3150000B2E000E100E00000A4420021064A535C8342CC
S3150000B2F005D0891C4B1C302BF8D300207047501802
S3150000B30040787047CC22050062F30F2262F31F4299
S3150000B310401810F0030308D0C91A1FD3DB0748BF33
S3150000B32000F8012D28BF20F8022D130030B4144672
S3150000B3301546103928BF20E93C00FAD8490728BF2E
S3150000B34020E90C0048BF40F8042D890028BF20F8EA
S3150000B350022D48BF00F8012D30BC7047C91818BF30
S3150000B36000F8012DCB0728BF00F8012D704700001B
S3150000B370024800787047014908707047C5EC032001
S3150000B3802DE9F04105460F4616461C0008BF14F08D
S3150000B39022FE00F025F905B9FEE7EFF3108800F06C
S3150000B3A026F9DFF8940328606F602E620020686239
S3150000B3B005F1080015F0E5F8284600F0AEF9DFF8CB
S3150000B3C07C030188491C018014F032FE88F3108842
S3150000B3D000202070BDE8F0812DE9FE4F0D9F064646
S3150000B3E00D4691461C460FB914F0F5FD00F0F8F82D
S3150000B3F0DFF84C231178012900D0FEE706B9FEE7F5
S3150000B400012C18BF022CADF8004031D0042C18BF17
S3150000B410082C2DD040F201118C4218BFB4F5817F63
S3150000B42026D0B4F5827F18BFB4F5847F20D048F2C9
S3150000B43001018C421CBF48F202018C4218D048F22E
S3150000B44004018C421CBF48F208018C4210D048F21D
S3150000B45001118C421CBF48F202118C4208D048F2FE
S3150000B46004118C421CBF48F208118C4240F0AD809A
S3150000B4703068DFF8C412884240F0A880BDF80000AA
S3150000B4800C9C000A00F001080CB100202060019518
S3150000B490EFF3108ABDF8000000F00F00029000F0F4
S3150000B4A0A6F80298DFF89CB2042802D0082807D034
S3150000B4B037E0306A019D019905408D4211D103E0C4
S3150000B4C0306A019D05400CD0B8F1000F1CBFA8439F
S3150000B4D03062DBF80000002C85676DD0706A206052
S3150000B4E06AE0BDF80000010405D514F0A1FD8AF359
S3150000B4F010881C2051E09449087830B114F098FD6A
S3150000B5008AF310882921397050E0BDF8002001998E
S3150000B5104B46304600F0F2F814F08AFD8AF31088A4
S3150000B52003E014F085FD00F052F814F09DFEEFF3F1
S3150000B530108A00F05CF8DBF8000090F83D10032953
S3150000B5402DD8DFE801F00216251C0CB1006D206035
S3150000B55000203870B8F1000FDBF80000856F2BD0A3
S3150000B5600298042818BF082822D1306AA8433062FE
S3150000B57022E000F030F88AF3108820200DE00CB1AC
S3150000B5800020206014F054FD8AF31088212004E086
S3150000B59000F021F88AF310882D20387006E014F0A8
S3150000B5A047FD00F014F838780028D3D000200AE0D0
S3150000B5B014F03EFD00F00BF814F03AFD8AF3108803
S3150000B5C0002038702846BDE8FE8FFEE7FEE78AF3C6
S3150000B5D0108814F000BD0CB1006D206014F028BD79
S3150000B5E05A49087800B1FEE77047EFF3108972B642
S3150000B5F014F00EBD2DE9F84307460E4614465FEAE1
S3150000B600030808BF14F0E7FC00F072F807B9FEE77C
S3150000B610002C18BF012C06D0B4F5004F1CBF48F211
S3150000B62001018C425CD138684349884259D115F0F2
S3150000B6304EF90546FFF7D9FF4CB1012C0AD0B4F5F7
S3150000B640004F04D048F201018C4203D007E0386A6B
S3150000B650064302E0386A20EA06063E6205E014F078
S3150000B660E7FC89F3108814F0B6FCB8687D6228B947
S3150000B67014F0DEFC00F036F8386A2FE090F87C1003
S3150000B680066B01F00F01042902D0082906D00DE04F
S3150000B690426F396A114091420ED103E0396A426F16
S3150000B6A0114009D02A4600F055F805E014F0C0FC18
S3150000B6B089F3108814F08FFC3000DFD114F0B8FC49
S3150000B6C089F31088200458BF14F0CEFDFFF78DFFD4
S3150000B6D03D6A14F0ADFC00F005F82846BDE8F2839B
S3150000B6E0FEE7FEE789F31088002088F8000070471F
S3150000B6F013480178012900D0FEE7704710B51446BB
S3150000B7001A46104B1B685967A3F87C4000219967BD
S3150000B7100121BDE8104014F0ABBE06A1C1610021B5
S3150000B72041610B4A1168816100291CBF116848619B
S3150000B7301060704720000000464C414724EC03206F
S3150000B7408DEC032064A4032091EC03208CEC0320F1
S3150000B750D0A0032038B50446002004F13C056870EB
S3150000B7602870E9636A61A878072812D8DFE800F034
S3150000B7701313040413130E0E032804BF204615F0FA
S3150000B78087F9204614F0A0FF002000E00420A870EE
S3150000B79001E014F020FC2046BDE8324014F021BF41
S3150000B7A0002A08BF01F064BCFF2101F013BC2DE99B
S3150000B7B0F041074615461E4611F058FE44490878E2
S3150000B7C0B8B10C2D15DA069CFF21384601F002FCB3
S3150000B7D0804600270AE004EB4701C9B2304603F071
S3150000B7E086FC414601F0F6FB80467F1CF8B2A84273
S3150000B7F0F1D3BDE8F0812DE9F843894601F0C8FB95
S3150000B80034490A68074648460025165CFF2F17D0BC
S3150000B8103946DFF8C48000E06D1CD8F80020921C81
S3150000B82012F82110FF29F7D1EDB20C2D08DA6C00C1
S3150000B830A41CFF2825D0A119C9B203F05AFB08B1F0
S3150000B84000201FE02A463146484603F09EFB761C40
S3150000B850280014BF6A1E0022D2B2F1B2484603F095
S3150000B86094FB761C06E030F82720F1B2484603F038
S3150000B8704AFCB61CD8F80000811C11F82770FF2F6F
S3150000B880F1D1E0B2BDE8F28310B5FF280AD0124B21
S3150000B8901B6833F820400C8003EB80008178117020
S3150000B8A0002010BD032010BD10B501F071FB00246F
S3150000B8B0FF280AD008490A68022401E0A41CE4B261
S3150000B8C002EB80008078FF28F8D1204610BD0000EA
S3150000B8D0CE630320705F0320BC5F032038B5DFF81A
S3150000B8E00C18DFF80C58002008700024DFF8041844
S3150000B8F0087015F0E5F915F0FBFC0BF0C0FC08F03C
S3150000B9003DF915F040FD01F063FC06F0E7F808E0AC
S3150000B910FCF798FB0BF065FD15F03EFDFCF793FB7D
S3150000B920641C2978E0B28842F2D3BDE8314011F0B8
S3150000B93033B880B5FCF750FBFF2807D115F0C0F9E6
S3150000B94015F0D6FC08F01AF915F01DFD0BF049FDAF
S3150000B95015F022FDBDE8014011F01EB8DFF898078A
S3150000B9600068407B11281CBF4328412801D10120D3
S3150000B97070470020704710B5044609F08EFF801C02
S3150000B98006F058F801F029FA204602DBBDE810401F
S3150000B99009E000F062F8401E8041C00F10BDDFF8DC
S3150000B9A0F81C088070472DE9F041044615F05AFC52
S3150000B9B0002838D100F050F94FF6FF7505D24188BE
S3150000B9C0A94230D0204609F0A0FFDFF8CC0C02884F
S3150000B9D0022120460BF0DEFB28B3204609F05DFF6E
S3150000B9E00646F77902F0CEFE804600F032F942466E
S3150000B9F0394615F049FC20B9CF210FF24820FFF750
S3150000BA009FFAB01C06F016F8A84204BF204615F0AF
S3150000BA1091FF30780321084203D10121204601F02D
S3150000BA2052FA012000E00020BDE8F08138B5044656
S3150000BA30DFF8680C0068005D851AEDB2681A80B2FE
S3150000BA4000908B189BB22246204603F085FB2946C0
S3150000BA502046BDE8344003F04CBA2DE9FE4F0025E0
S3150000BA608246019509F019FF00F0F2F80746B01C6E
S3150000BA7005F0E0FF8046307800F0C00002903846BE
S3150000BA800BF022F88DF80200FF2814BF4FF00109D1
S3150000BA90A94630780321084208D102F073FE874296
S3150000BAA002D05FEA090402D0012400E00024B07944
S3150000BAB0002878D002F066FEC346834510D102F016
S3150000BAC061FE83460020DFF8D01B09884218D2B2F7
S3150000BAD05946504600F0EBF8002864D00020ADE04F
S3150000BAE000F0BAF838BFB0F802B0EBD3404608F021
S3150000BAF0ABFA20B9504609F0E0FE400513D5707840
S3150000BB004007DFD550460AF059FD00F0ACF8401C5E
S3150000BB104200D2B229465046FFF788FF707800F0FF
S3150000BB20FB007070CEE7707840071CD550460AF0CF
S3150000BB3045FD00F098F806466F1CF9B2504603F032
S3150000BB401FFA002E18BFFF2805D10022F9B2504671
S3150000BB5003F01BFAB6E705EB4000811CC9B250465C
S3150000BB6003F0C5FAADE701AA6946404615F062FA48
S3150000BB708346DCB10298802804D0402816D19DF86F
S3150000BB80000098B1307800F03F003070384608F079
S3150000BB905BFA10B902F0F6FD07463A460021404628
S3150000BBA016F010F8002848D0012047E00198B8B3F5
S3150000BBB015F096F98DF801000198007900F0300033
S3150000BBC002909DF80100FF2805D14FF49B710FF2FA
S3150000BBD07400FFF7B5F91CB30298102811D020287D
S3150000BBE01ED1B9F1000F07D09DF802109DF8010093
S3150000BBF015F0A2FA28B113E0019800790C21084249
S3150000BC000ED0F3795A464146384616F05DFB019848
S3150000BC100079019900F0F30040F004000871012555
S3150000BC209DF8000028B1012140460BF056FE20B1D8
S3150000BC30C346002D8ED0302045E70220BDE8FE8F9A
S3150000BC40000000006E6574776F726B2E6300000053
S3150000BC500646301D05F0EEBEDFF8180C0068017BC5
S3150000BC60C91E0329704705462946504603F088B980
S3150000BC7038B5044600F008FD0D4601D2012032BD5C
S3150000BC804FF6F9718C421CBF4FF6F8718C4201D009
S3150000BC90702032BD02F076FD02462946204615F098
S3150000BCA091FF00F0010080F0010032BD0022F8B5DE
S3150000BCB004460D46164609F0F0FD2946007801F0C7
S3150000BCC05FF80CBF01270027204609F01EFE02F090
S3150000BCD059FD854215D0284608F0ABF940B9DFF882
S3150000BCE0980B017832462046BDE8F8400BF052BA70
S3150000BCF06FB902F047FD0023224629460AF03FFBB2
S3150000BD0028B10121204601F0DEF80120F2BD2046CF
S3150000BD1009F0D3FD400505D52046BDE8F4400021D5
S3150000BD200DF030BB20460AF0FDFE401E8041C00FDC
S3150000BD30F2BD2DE9F04104461646884630460AF023
S3150000BD4015FD0746304609F09EFD3E1AF6B2A719C4
S3150000BD50A8EB060292B2394607F10E00F7F70AFB86
S3150000BD602820A055DFF89053286890F820007873B3
S3150000BD7015F020FB0246791C012005F066FE08221C
S3150000BD80DFF8F81A781DF7F7F5FA286890F820001A
S3150000BD9007F035FE08F10E0133460022C9B22046EF
S3150000BDA015F02EFD1220BDE8F0812DE9F04F85B08B
S3150000BDB082460D460AF0DAFC064601A810210CF070
S3150000BDC0C7FC504609F090FD8346504609F05BFDDE
S3150000BDD0074606F10E0189B250460AF007FC002814
S3150000BDE053D0002000900E233246514601A802F09F
S3150000BDF0CEFF0DF10501012005F035FE80469DF8C8
S3150000BE0004009DF81190282840F097800822DFF85A
S3150000BE106C1A0DF10900F7F7F7FA002835D04846F5
S3150000BE2007F0EDFDB44C38BB206890F82000A9EB74
S3150000BE30000000F0FF00802828DA07F074FE0128D1
S3150000BE4006D007F070FE022820D107F057FEE8B9A9
S3150000BE50FFF781F9DFF8907C06463868311A0091C1
S3150000BE6020B107F067FE009981420FD30021002020
S3150000BE70F9F7ADFE3E6009E001200090002332464E
S3150000BE803946504615F0F1FC002856D050460AF0C7
S3150000BE9079FB59460DF1090016F0CDFAFE28064643
S3150000BEA04BD0FF282BD158460BF0F1FA0646FF2E51
S3150000BEB004D00DF109010BF048FD20E000F05FFF12
S3150000BEC008D150460AF052FC0146504603F058F895
S3150000BED0082830D020682C3041780078814205D37C
S3150000BEE0A81C05F0A7FD00F078FF26DA0DF1090180
S3150000BEF058460BF03DFC58460BF0C9FA0646216839
S3150000BF0091F82010894504D04946012007F037FBF7
S3150000BF1098B1206890F82000814503D1304616F08C
S3150000BF20DEFA20B94146304616F06CFA70B1414649
S3150000BF30304616F079FA012008E0504609F038FD3F
S3150000BF40014600221920FCF7E4F8002012E338B578
S3150000BF50DFF8980B03F049F90446FF2C1DD00321A6
S3150000BF60DFF88C5B09F089FC28700421204609F073
S3150000BF7084FC68700521204609F07FFCA87001202A
S3150000BF80FEF7DAFF204600F009F8204602F060FED0
S3150000BF90BDE832400020FEF7CFBF31BD70B582B09C
S3150000BFA0044609F08FFC00F00C05204609F08FFCD2
S3150000BFB0FCF748F8204609F085FC00F00C0008283C
S3150000BFC042D1062200212046FFF730FD204602F02E
S3150000BFD0C9FD03F080FE8DF801008DF802409DF842
S3150000BFE0010048B9204602F0BDFD01460DF10100F1
S3150000BFF003F0C4FE8DF800009DF80100802804BF00
S3150000C0009DF80000012806D1FCF717F8204601F03C
S3150000C0105AFAFCF718F89DF80100402805D1FCF7FC
S3150000C0200CF8204601F04FFA0BE0802804D1684650
S3150000C03016F063FC002856D1FBF7FFFF6846F8F7B9
S3150000C040D5FBFCF700F84EE000F01EFC0646042D7A
S3150000C050204613D109F031FC000519D40220002234
S3150000C0603146FCF756F80C2D14D12146012016F066
S3150000C070FEFF78B12046FAF740F834E009F074FC88
S3150000C080B0F5006FEAD100F0FFFB00F0F9FBE5D157
S3150000C0900020E4E71DB92046FAF720FA23E0042D34
S3150000C0A021D115480568687B02280CD0FFF756FC9D
S3150000C0B048B9687B332818BF312804D0012804BF4B
S3150000C0C0287B05280FD1204609F0E7FB007800F011
S3150000C0D03C000C2807D02146022016F0C8FF10B1FC
S3150000C0E0204600F00BF8FBF7AEFF73BD44DA0320E1
S3150000C0F0CA6303205CDE0320C8DA03202DE9F04F73
S3150000C10085B0804609F0C9FB0546404609F0ECFBC0
S3150000C1108146281D05F08EFC8346A81C05F08AFC86
S3150000C120ADF8040028460AF03EFB03904FF6F8727D
S3150000C1302878697800F024FE0CBF01240024480802
S3150000C14000F001000290BDF80400904201F00100E9
S3150000C1508DF80600ACBF0126002640460AF006FB15
S3150000C16082466878400900F001008DF807002878BB
S3150000C17000F03C0108294BD1DFF82025126812F89F
S3150000C1800820924544D214B90321084240D10298AE
S3150000C19050B100F004FEC07E002839D02946404642
S3150000C1A0FFF703FE002833D06CB14146032016F09A
S3150000C1B05EFF40B9514600F0EFFD0E2828DB002E49
S3150000C1C026D10146C1E1514600F0E6FD0746029838
S3150000C1D080B900F0E4FDC07E60B1BDF804000090B7
S3150000C1E002F0D0FA0099814212D194B1062F18BFFD
S3150000C1F0072F0DD100F0D3FD417B022966D10299AC
S3150000C20011B9C07E002861D1484606F0A9FD60B18B
S3150000C210B0E107F003000128ECD05246294640461B
S3150000C22000F0E3FD0028E5D1A4E1CDF8009002F08E
S3150000C230A9FA009989B2814210D100F025FA09D2F3
S3150000C24002F0A0FA014600F0AAFD40880D2216F081
S3150000C2506BFF8FE1012006F084FC8BE1484607F076
S3150000C260F3FE68B902F096FA4FF6FF71884207D0DE
S3150000C270DFF8840C00780A2804BF48460BF09AF8C9
S3150000C280484607F0E1FE78B102F084FA00F0F8FAC9
S3150000C2900AD0DFF8640C00780A2805D10CB1062F05
S3150000C2A002D0484607F0E9FC03990122584606F0F9
S3150000C2B081FC0028D1D128460AF06AFA0146BDF869
S3150000C2C00400002206F076FC0028C6D19DF807007F
S3150000C2D048B148460AF0F8FBFF28BED01CB968787A
S3150000C2E000F0DF0068704FF6FC71BDF8040088426C
S3150000C2F068D100F0C9F9B0D3A87901001CBF401E6F
S3150000C300A871687840072DD50020029002AA0DF189
S3150000C3100101584614F08EFE029818B314F0E0FDA1
S3150000C3208DF80000BDF804000AF0CEFB02990979E9
S3150000C33001F03003102B1CBF01F00C02082A03D0B9
S3150000C340029A01F0F30111710299097901F03301A2
S3150000C350202907D1FF2805D001469DF800000122BB
S3150000C36014F0D3FE48460AF0AFFBFF280AD0DFF8E8
S3150000C3708C1B0978C90705D5DFF8842B12680021C4
S3150000C38042F820109DF8060030437AD1E9795846E4
S3150000C39014F0E7FF04F024FB08B1039818B14946EE
S3150000C3A0584600F0F3F902F0EDF9BDF804108842A2
S3150000C3B067D0084607F048FE20420ED0012F0CD168
S3150000C3C0002276E04FF6FD71884295D100F0E7FC39
S3150000C3D0007B001F02288FD2CCE074B9BDF80400A0
S3150000C3E007F027FE48B1BDF8041000234246584620
S3150000C3F009F0C5FF002840F0B980DFF8080B007887
S3150000C40048B9584607F020FE28B9BDF8040007F0E1
S3150000C4101BFE0028E0D0D4B1052F18D102F0B2F9E6
S3150000C4208DF8000002F0AEF9000A8DF80100022234
S3150000C4306946404602F01CFD002821D10AF101019F
S3150000C440C9B2404602F076FD0178491C0170687851
S3150000C45040070AD540460AF0B1F8411CC9B2404629
S3150000C46002F068FD0178491E01704046FFF7F5FAB3
S3150000C470404609F09DFA014600221C20FBF749FEC2
S3150000C48078E0002C65D000235246414602200CF08D
S3150000C49018F9781E0C2856D8DFE800F007071015A3
S3150000C4A01B313A404444494D5100022F0CBF012232
S3150000C4B000225146404615F092FD5BE0514640464B
S3150000C4C016F066FE56E0524641465846FEF706FC12
S3150000C4D050E000F05EFC0546DFF82C4A0398206029
S3150000C4E0FBF7ABFD0AF10200C0B20090434621689B
S3150000C4F02A465846FFF75BF9FBF7A5FD3AE0CDF86B
S3150000C50000A02B46424600210120F9F774FC31E0D9
S3150000C510524641460120F9F735FD2BE0404616F01C
S3150000C52035FF27E0404606F04DF91EB31AE04046B7
S3150000C53005F04AFB1EE0404605F099FB1AE040462E
S3150000C5400CF00EF916E0AEB93946484600F0EEFC9E
S3150000C55010E09DF8060020B1287A00F011FC09D100
S3150000C56000E01EB1404600F008F803E00021404616
S3150000C57000F0A9FC05B0BDE8F08F2DE9F84F834621
S3150000C58009F08BF90546584609F0AEF90646281D0E
S3150000C59005F050FA0746A81C05F04CFA804695F8B7
S3150000C5A00790304607F050FD82462946584600F06F
S3150000C5B077F80446022C65D032464946384614F0D0
S3150000C5C017FE00285ED1009702F0DCF8009989B2C8
S3150000C5D0814257D0DFF83409007860B9012C06D0C3
S3150000C5E004F0FEF918B128460AF0DDF818B1314614
S3150000C5F0384600F0CBF832464946384614F044FE39
S3150000C60000283FD028780321084203D1002158464C
S3150000C61000F059FCA879A8B300F036F832D3687850
S3150000C620C00715D52E7A4046FCF751FF40B1F108F8
S3150000C63006F0E00001F01C01084340F0010006E0AE
S3150000C64006F01C001C2803D005281BDB301F2872AF
S3150000C6504FF6FF752946584609F057F9BAF1000F0B
S3150000C66018BF002203D10CF061F800F03F0202214E
S3150000C67058460AF08FFDA84504D15846BDE8F24F4A
S3150000C68015F058B9BDE8F18FDFF884080068007B23
S3150000C690C01E0328704700005EEC0320705F032075
S3150000C6A0F0B587B004460878032108426BD12146CD
S3150000C6B0042016F0DCFC002865D020460AF056F867
S3150000C6C0014600F08FFB032108425CD120460AF0A8
S3150000C6D04DF80546294600F085FB0FF6A40205A98C
S3150000C6E0D2E90036C1E9003603A90022C1E90022D9
S3150000C6F00321084247D1009205236A1CD2B2214683
S3150000C70003A802F044FB052203A905A8F6F787FE55
S3150000C710002838D120460AF0ACF8054601A80021C9
S3150000C720C0E900112046A91CC9B202F029FC060284
S3150000C730691C00F056FB361805F10B0100F051FBA1
S3150000C740074600200090EA1C0823D2B2214601A821
S3150000C75002F01DFB204609F0C7F83A46B1B204F0D4
S3150000C76002F9012201A9B0B206F024FA08B10220AA
S3150000C7700AE002F007F820B91E214FF6F970FFF71C
S3150000C78077FA012000E0002007B0F0BD38B5044676
S3150000C7900D4607F059FC00281CBF2046A84205D0CC
S3150000C7A00AF092F9BDE8324007F0EDBC31BD2DE943
S3150000C7B0F0410446884600265FEA080008BF0126C5
S3150000C7C003D0B8F1310F08BFB046204609F07AF819
S3150000C7D000F00C0008280FD1DFF838673470FBF73B
S3150000C7E02CFC204602F06AFA41460BF065FFFBF787
S3150000C7F02AFCFF20307039E0204609F063F80C214E
S3150000C8000842DFF8147708D100F03EF83A78BDE820
S3150000C810F04101460120FBF77CBC204609F0A4F854
S3150000C8200325B0F5006F06D100F02EF800F028F8C9
S3150000C83008BF012503D05FEA080018BF052500F0F0
S3150000C84023F83A7801462846FBF763FC4146204622
S3150000C85015F0EDF850B9414620460AF040FD28B9DA
S3150000C860324641462046BDE8F04110E0BDE8F08181
S3150000C87000000000C8DA0320EE6303203CDC03203E
S3150000C8804FF6FF7188427047204609F091B82DE9AE
S3150000C890F04F83B007460E46144609F013F800F031
S3150000C8A00C000C28DFF86886384662D108F0F5FFE0
S3150000C8B0824609F03DF850444FF0FF090178DFF851
S3150000C8C05456012906D0022912D0042924D07C29E5
S3150000C8D041D003E14EB99AF804009AF8031001EB2F
S3150000C8E0002080B201F05AFFF8E0F9F7B8FDF5E054
S3150000C8F0002E04BFC178002908D18278407800EB69
S3150000C9000220394680B206F04CFDA9E00AF1050185
S3150000C910002007F031FAADE0D8F80000407B02288D
S3150000C920E5D130000AD105F0C2F8C00702D405F0FF
S3150000C930B8F808B908F05BFF04B93126334622225D
S3150000C9406CA103200CF03EF92F70FBF776FB304606
S3150000C9500BF0AFFE08E02F70FBF76FFB384602F0D6
S3150000C960ADF931460BF0A7FEFBF76DFB85F800909D
S3150000C970B4E008F092FF0446201D05F05BF88146FE
S3150000C980A01C05F057F805464FF6F87B5D450ADA18
S3150000C990D8F8000030F8441F491C0180310002D04D
S3150000C9A04188491C4180207800F00301012964D1A7
S3150000C9B0384609F0DBFE0146384602F0E1FA042863
S3150000C9C006D0072811D00B2818BF0D2804D085E003
S3150000C9D03846FEF78DFA81E0D8F80000007B001F8C
S3150000C9E002287BD202F0C4FE78E0204609F0D0FE91
S3150000C9F001A9002200280A6070D00146002007F035
S3150000CA00BBF90446384609F0B1FE00210091421CEC
S3150000CA100323D2B2394601A802F0B9F9002E02BFAB
S3150000CA20D8F80000407B022823D101A8817801BBF9
S3150000CA3040789DF8041001EB00252046FF280CD015
S3150000CA40DFF8D814096831F810204FF6FF331A4082
S3150000CA5021F81020A9B207F04AFBA8B214F05AFA3E
S3150000CA60384608F0A5FF014600221020FBF751FBCF
S3150000CA7034E0204607F087FB30E0032108422DD141
S3150000CA8001F080FE814504D0384608F016FFC00646
S3150000CA9006D530000CBF0021662138460EF04FFB4C
S3150000CAA0E6B15D451ADA6078800810F0010604D117
S3150000CAB0284614F000FB074600E00027284607F04A
S3150000CAC0B8FA10B1062267B904E00EB10B22FAE7F4
S3150000CAD037B902222946484616F026FBBDE8F78FED
S3150000CAE00C2249462846F7E734DD0320C8610320B7
S3150000CAF011E00320424200002DE9F04F044685B0C4
S3150000CB0094F80080404608F0E2FEFBF79BFA4046A8
S3150000CB1008F0C3FEFFF79CF8ADF80000B01C04F067
S3150000CB2089FF8146404609F021FE8246514600F0C3
S3150000CB3033F98DF80200307800F022F90CBF9DF829
S3150000CB400270FF27FEF7F6FAA188451A01F01AFED1
S3150000CB50BDF8001088420CBF4FF0010B4FF0000BE0
S3150000CB60084606F0FDF80028ADB240F0F9804846C8
S3150000CB7006F0F6F828B1484607F066FA002800F0F5
S3150000CB80EF80FFF781FD27D2062F18BF042F6CD048
S3150000CB9052463146404600F028F9E8B9FEF7DEFE77
S3150000CBA020B19DF8020000F0EBF815D0FAF7D5F9A0
S3150000CBB030B900F0F4F8407B00F00F00042851D1A2
S3150000CBC001F0E0FD0146301D04F03BFF00F0E7F800
S3150000CBD04188404608F099FE012F46D1404608F0AC
S3150000CBE083FEFFF74DFE40D1002300F0CDF805008F
S3150000CBF068D06A799DF80D108A4207D20AF10501BC
S3150000CC00C9B2404602F0C1F900F0B3F80BF08EFD50
S3150000CC107E2190FBF1F17E2202FB110000F580706F
S3150000CC20608018219DF80E00084213D060780F210D
S3150000CC30084208BFBBF1000F0CD1FBF7FEF93046E6
S3150000CC4009F0B1FD01466A79BDF800000BF037FD29
S3150000CC50FBF7F9F9FBF7F7F99DF80F00002800F04C
S3150000CC6086807BE0282060807EE04FF6F870814564
S3150000CC7002DA7078C0072AD5FFF706FD27D340F6FB
S3150000CC80B93085426CDA0BF051FD00F03F00C0F57B
S3150000CC90FA70608014F044FB0546FF2D617814BFDE
S3150000CCA000200120090957D01BEA000F54D1F17961
S3150000CCB0BDF8000014F092FA00281EBF41884FF616
S3150000CCC0FF7291424CD04079A84249DA44E0022FE3
S3150000CCD025D1012300F058F8074601F053FD01461F
S3150000CCE0BDF80A00814202D007F0AEF948B3002F22
S3150000CCF036D07B8801225146404615F01BF900F0DC
S3150000CD004EF8417E491C4176F171BDF806007988DE
S3150000CD10884201D000F02DF84FF4C8701BE0032FB5
S3150000CD200FD1BBF1000F0CD000F033F80C2808D15E
S3150000CD300AF087FEFFF7A4FD03D00146404608F03F
S3150000CD40E4FD607800090BD1FB2D09DA0BF0EEFC4F
S3150000CD5000F01F0010306080FBF775F9012006E037
S3150000CD60607800F0F0006070FBF76DF90020FFF7C7
S3150000CD7001BC607800F0F000801C60707047287875
S3150000CD8000F003000128704701AA5146404615F0FD
S3150000CD9001B80AF10101C9B2404602F0F1B85C4897
S3150000CDA00068704770B5044608F077FD05462046D2
S3150000CDB009F0DCFC014600F015F80646204608F0AE
S3150000CDC093FD00F00AF804DAFFF7D9FF08BF022E38
S3150000CDD001D1012070BD002070BD4FF6F871884268
S3150000CDE07047C9B2204602F0CBB8F8B504461546DE
S3150000CDF0084604F01FFE20F4007041F20801884244
S3150000CE0018D147480068005D401B072812DB002642
S3150000CE100FF274177119FFF7E4FFB95D814203D071
S3150000CE20022E08BF002805D1761CF6B2072EF1D3D4
S3150000CE300120F2BD0020F2BD2DE9F04180460C46EE
S3150000CE4008F040FD00F00C00082830D0201D04F04A
S3150000CE50F1FD0546E679404608F046FD07464046A0
S3150000CE6008F02BFD00060FD529480068017B091F35
S3150000CE70022909D2417B022906D140884FF6FF716B
S3150000CE80884218BFFBF733F9A01C04F0D3FDFFF767
S3150000CE90A4FF02DA6078C0070BD520780321084288
S3150000CEA005D13A463146284614F0A2F905E001209C
S3150000CEB007E03146284614F03FFA00F0010080F002
S3150000CEC00100BDE8F08110B5044641B1FF220321FF
S3150000CED008F0CCFC00220421204608F0C7FC2146BD
S3150000CEE0104802F06DF9204601F0A4FE0E480078C5
S3150000CEF0BDE81040FCF76CBFE563032064DE032049
S3150000CF00885F0320C46303207CDD032046DF032003
S3150000CF10C8DA0320E8630320E9EC0320845F0320DA
S3150000CF20705F0320B0610320E1EC032030B585B0CB
S3150000CF30044603208DF808000D4613208DF80900DD
S3150000CF4001F020FC8DF80A0001F01CFC000A8DF8A7
S3150000CF500B008DF80C50002001900090052302AACA
S3150000CF600021204609F0E3FB0546FF2D05D02146AA
S3150000CF70FEF79CFE284601F06BFE05B030BD0000B2
S3150000CF80001300000000000000FF01400EC0FF007B
S3150000CF9010B5524A0146107878B1002000E0401CD6
S3150000CFA04F4B1C78C2B2A24207D24E4A1468C0B296
S3150000CFB034F820308B42F2D110BDFF2010BD484915
S3150000CFC0464B00200870002146481A7800689200F7
S3150000CFD0F6F713BAF8B50E4640490C780CB9FF209F
S3150000CFE0F2BD0546FFF7D4FF3F4B3E4A1F78DFF8F8
S3150000CFF0F0C0FF2810D19CF80000A04203D2411CCB
S3150000D0008CF8001008E0384600E008461168C91C94
S3150000D01011F82010FF29F8D1B8421BD0002100E0FA
S3150000D020491C9CF800E0CCB274450ED2146804F199
S3150000D030030EC9B21EF821E08645F1D104F1030CB6
S3150000D040E41C1CF820C004F821C01168CC1C04F8AC
S3150000D05020701870FF23116821F8205001EB800121
S3150000D060FF2E8B7003D0126802EB86018870F2BD2A
S3150000D07070B51A4A0446107808B30846FFF788FFC9
S3150000D0800546FF2D1BD0FF212046FFF7A3FF0446D0
S3150000D090FF2C12D021460DE01248006800EB8203F7
S3150000D0A030F822009E78FFF795FFA042294608BF78
S3150000D0B0FF2435462A46FF2AEED1204670BDFF20C2
S3150000D0C070BD074900200870704700E000BF0448A3
S3150000D0D0007870470148007870470000CE6303204F
S3150000D0E0B5EC0320BC5F0320BC63032038B5344C89
S3150000D0F0344D2168080C00041FBF090C0904324A8C
S3150000D100914203D042212846FDF71AFF206880B2DB
S3150000D110B0F5804F03D344212846FDF711FF206860
S3150000D120C169884700B1862032BD10B5244886B053
S3150000D13001688A69D00305D5096B4A686846904735
S3150000D140049808B9002020E08168204CB1F5803FA2
S3150000D15002D2E180418804E0890AE180418841F0F9
S3150000D160100161800422018821804168A180C16884
S3150000D170A1600169E16000F1140104F11000F6F705
S3150000D180F9F80498017E2175204606B010BD38B521
S3150000D19000F007F803D51B6B5C6BA04700B10120BC
S3150000D1A032BD074B1B689C69E5037047044800685D
S3150000D1B08169CA0302D5006B016B084701207047DD
S3150000D1C02808E10F68FB04000000E10FB4AC03205F
S3150000D1D080B500F046FEDFF8841A0FF6B820086026
S3150000D1E00020DFF87C1A087002BD10B50446084618
S3150000D1F00AF088FB0328B8BFC02007DB0528B8BFA4
S3150000D200802003DB0728B4BF40200020092CA8BFDC
S3150000D210082404DA14F16D0FB8BF6FF06C0404F142
S3150000D2206E0100EB6100C0B210BDF8B5002A0546DC
S3150000D2300F460CBF6C46144608F044FB00F00C0089
S3150000D240082804D0D8210FF64020FDF779FEDFF834
S3150000D250140A0068405D000603D5284601F02EFD3D
S3150000D260054600202070002100F0DDF8410600F49C
S3150000D270406206D44FF44041084202D001233FB930
S3150000D280F2BD0023042FFAD12078C01C20700BE0D9
S3150000D2902178891C2170012F08BFC9B200F0948043
S3150000D2A0491C022F217003D1002A00F0B68025E028
S3150000D2B00AB1891C2170032F05D100F44060B0F536
S3150000D2C0006F68D11AE000F44061B1F5006F02D139
S3150000D2D02178891C04E0B1F5406F02D1217808312C
S3150000D2E02170042F0AD013B12178891C2170052FD3
S3150000D2F007D100F44040B0F5004F4CD100F092F851
S3150000D300F2BD00F44041B1F5004F02D12078801CF7
S3150000D31006E000F44040B0F5404F02D120780830D6
S3150000D32020702178DFF84069284601F029FE0D2F8C
S3150000D33005D131682278495D521C91426BDB0106AA
S3150000D34001D500F06FF8062F6BD0010621784CBF8F
S3150000D350891C491C0D2F217008D132682178525D35
S3150000D360914258D200F03C010C2954D140F203718D
S3150000D3700140491E8941C90F072F02D100294AD011
S3150000D38018E011B12178091D2170082F06D100F48B
S3150000D390E060B0F5007F42D1217815E000F4E0614D
S3150000D3A0B1F5007F02D12178491C2170092F03D1E4
S3150000D3B0C00434D5217824E0C10402D52178091DA2
S3150000D3C021700A2F217803D1284601F0D9FDF2BD3C
S3150000D3D00D2F09D133685B5D99421CD2491CC004EC
S3150000D3E0217012D40120F2BD491C0B2F217016D0DA
S3150000D3F00C2F12D1C00412D53068405D011F217078
S3150000D400C9B2284601F08AFEF2BD3068405DC9B255
S3150000D410091D8842E6DA0020F2BDFF2020704FF099
S3150000D420FF30F2BD2178284601F061BE38B50446CA
S3150000D430DFF830080068005D000604D5204601F0DC
S3150000D4403DFC054600E025466A460B2100F016F92C
S3150000D45000F016F9DFF810189DF800200968495DFC
S3150000D460C0044CBF04200020891A081AC0B232BD7D
S3150000D470F0B50546DFF8EC07006883B0405D0006AE
S3150000D4800C4604D5284601F019FC064600E02E4657
S3150000D4902846FFF7CBFF074601AA0B212846FFF7D0
S3150000D4A0C4FE002000903B469DF8042031462046ED
S3150000D4B001F06DFC3846FEBDDFF8B00700210175AE
S3150000D4C01022F5F79ABF2DE9FF41044600220D21EF
S3150000D4D0FFF7ABFE00283ED000F0D2F8000A10F0AD
S3150000D4E0070518BF022D36D100F0CAF80004DFF890
S3150000D4F0806702D5307800282DD000F0C1F84004AE
S3150000D50003D500F0BDF8400625D400F0D4FA8046D5
S3150000D51028008DF80C501FD10022072100F0CDFA0B
S3150000D52001905FFA88F0DFF84477397B884202BFC2
S3150000D5309DF80C00397A814225D1010002BF01997C
S3150000D5403A68914207D002281DD10822394601A81F
S3150000D550F5F75AFFB8B98FE0022DFCD16A460521CE
S3150000D56000F08CF8204601F0FDFA9DF80010014409
S3150000D570082201A8F5F7FEFE0022082100F09DFA18
S3150000D5808DF80D00CDE70C2201A93846F5F7F2FE1D
S3150000D59087F80C804FF4FA6107F11C00FCF728FBB2
S3150000D5A03078002853D100F06BF800F00300012812
S3150000D5B02BD100F085FA00F0F000F0285CD000F0E6
S3150000D5C05FF8C0F3C120002856D100F059F80006D4
S3150000D5D052D4002D50D1DFF888562878002836D04E
S3150000D5E000F04EF8400632D4287B002804BF686855
S3150000D5F000282CD1687C2B7C00902A1D687800219D
S3150000D60000F0B4F80020287021E000F039F810F09E
S3150000D610030F31D100F034F8C0F3C12028B100F077
S3150000D6202FF8C0F3C12002280BD100F049FA00F010
S3150000D630F000F02820D000F043FAC0B2E32806D16B
S3150000D6401AE000F01DF8C0F3C120032814D100220F
S3150000D650092100F032FA054600F012F8064600F0FD
S3150000D6600FF8710B01F00102C00A00F003010094EB
S3150000D6702B4601A800F029FABDE8FF812046D4E533
S3150000D680002206212046D0E510B58EB014460121B1
S3150000D69000B98121207A02280CBF41F4406041F490
S3150000D6A000608DF80000000A8DF801000DF10300FE
S3150000D6B0217A0A0004BF2268002A08D1FF22042129
S3150000D6C0FDF722FE0D208DF8070002A834E00A00BF
S3150000D6D01BD1FF220421FDF717FE8C208DF80700D1
S3150000D6E080208DF8080020688DF809002068000A5F
S3150000D6F08DF80A002068000C8DF80B002068000EDB
S3150000D7008DF80C000DF10D0016E0022914D1FF2052
S3150000D7108DF803008DF8040000210DF10500625C10
S3150000D72000F8012B491C0829F9DB8C2101708221A4
S3150000D7304170617A8170C01C6946411AC9B2684657
S3150000D74001F009FB0EB010BD10B5DFF828452078B2
S3150000D750002102F0E0F9FF2020700020DFF80C1510
S3150000D76008750021BDE81040F7F70AB8F8B582B091
S3150000D770FFF78AFFDFF8F06405463068405D471C16
S3150000D780012202A9284601F073FB3068089C415D1E
S3150000D790005D4118C9B2284601F0ABFB3068005D58
S3150000D7A0009000232246F9B2284601F0D5FCDFF8A6
S3150000D7B0C4049DF808100570DFF8B0040174142144
S3150000D7C01430FCF715FAF7BDF8B50D4616461F4698
S3150000D7D0DFF88C4430B3207850B13146201D01F07B
S3150000D7E023F928B9207B002804BF6068002817D1D8
S3150000D7F0012020700C223146201DF5F7BBFD08984C
S3150000D8000699A074657027740998A082079801F09C
S3150000D810A2FAFF2860740CD1002020701820F2BDF7
S3150000D8200120F2BD3146201D01F0FEF808B10020AE
S3150000D83020700020F2BD2DE9F24F06461446A4B032
S3150000D8409846FFF71DFF800900F001008DF82900BA
S3150000D850FFF716FF800B00F001008DF8280000F09E
S3150000D8602FF982469DF89000DFF8F473079048215F
S3150000D87048430590782E349D4FF0FF3906D07A2E16
S3150000D88000F0EC807B2E00F00181E4E030A815F07A
S3150000D890B3FE49208DF82C0098F80800022804D120
S3150000D8A0082241460DF12D0009E0042241460DF102
S3150000D8B02D00F5F75FFD042241460DF13100F5F725
S3150000D8C059FD0BA8290A81728DF83550290C8DF85F
S3150000D8D0371004AA290E017305208DF839000A2194
S3150000D8E0FFF7CCFE0DF112020621FFF7C7FE0DF180
S3150000D8F011020C21FFF7C2FE814600269DF8110099
S3150000D9003118C9B2204601F03BFB09A98855761C9F
S3150000D910042EF3DBD44E3068005D011FC9B22046E9
S3150000D92001F026F99DF8B8000890032808D19DF863
S3150000D93010100BAA204613F056FE9DF8103001E099
S3150000D9403068035D9DF8122006A8039000210BA8FD
S3150000D9500290002001903068005D0090204613F090
S3150000D9607DFD0BAB0022042106A813F0A2FE0422C3
S3150000D97009A906A8F5F748FD88B90898032804BF41
S3150000D9800AF0F000F0284FF0000B64D0BA48059971
S3150000D990006808448169A9425DD2856101E04FF0C3
S3150000D9A07E0B3068005D011DC9B2204601F0E0F82B
S3150000D9B000F086F88246FFF763FE00F003000128B8
S3150000D9C01CBF3878002808D0391D404601F02CF8D5
S3150000D9D018B100F069F8002038700BA92046FFF74F
S3150000D9E047FD07460798FF280ED0A348059900680B
S3150000D9F0415CFF2908D005990844416841F400714B
S3150000DA00416041F48061416000F055F804469B484E
S3150000DA1001789B4890F90000FFF7E7FB0BA90991F5
S3150000DA200897CDF8189043469DF890100791E2B2FA
S3150000DA305FFA8AF1059104959DF8281003919DF8E7
S3150000DA40291002912F9901919DF8B8100091014675
S3150000DA505846F6F7E5FD25B0BDE8F08F9DF8B8000D
S3150000DA6060B90798FF284FF07C0BA4D000F023F88C
S3150000DA708149059A0968114488619CE700220C21B6
S3150000DA8000F01BF84FF07F0B814694E738780028AA
S3150000DA90E1D0391D404600F0C7FF0028DBD000F07A
S3150000DAA003F800203870D6E7787C3B7C00903A1D5E
S3150000DAB0787800215AE6002201212046FFF7B5BBFF
S3150000DAC000220A212046FFF7B0BB2DE9F04F8BB0AC
S3150000DAD082460E4617461C4600F0E6F98146482067
S3150000DAE010FB09F000903000DDF85080DFF888B1B7
S3150000DAF014D100F05EF8B9F1FF0F0CD0DBF800008E
S3150000DB00009908444168490401D4807D18B100F0A9
S3150000DB1055F8792048E000F051F844E0022E18BF8D
S3150000DB20032E43D1B9F1FF0F2BD007A9484600F0C9
S3150000DB3055FBDBF80000009908447825807DC0F38A
S3150000DB4082014A0701D4072901D117B900E007B1BC
S3150000DB507925069402AB00F00301B14207A918BF6C
S3150000DB607925D1E90072C3E900728008D1E9027211
S3150000DB70C3E902720190009653464246494628463A
S3150000DB8012E000F016F807A80694D0E9003102AAC0
S3150000DB900197C2E900310096D0E90231C2E90231AB
S3150000DBA042465346FF217A20FFF745FE0BB0BDE8FB
S3150000DBB0F08F1022002107A8F5F71FBC07A80694CE
S3150000DBC0D0E9003102AA0197C2E90031D0E9023159
S3150000DBD0C2E902310020009053464246494670474A
S3150000DBE0F8B5044600270026264D01E0761CF6B25D
S3150000DBF0287886422FDA20480068482111FB06F172
S3150000DC00084401780129F1D141680A0606D589043C
S3150000DC1003D5818AA14201D11BE0012700210C22F4
S3150000DC204A43024412F82C3F022B08D192884FF641
S3150000DC30FF739A4208BF012701D0A24209D0491CAE
S3150000DC400229ECDB3900D1D0083000F015FFA042E4
S3150000DC50CCD10120F2BD0020F2BD000034DC03204F
S3150000DC6038DD0320745F0320705F032050DD03203E
S3150000DC709FEC0320EF630320B85F032011E003202D
S3150000DC8012E00320CD63032067702D646174612E5A
S3150000DC906300000002010A0000800000F0B53A4C63
S3150000DCA00D46A16889B00646174629B1082206A87E
S3150000DCB0F5F760FB06A8A06027B900F063FD618850
S3150000DCC0814201D1002700E00127304608F0D1FD4E
S3150000DCD0014605AB3A46304608F004FCA0BB606836
S3150000DCE0C18804912B464179039111220179029151
S3150000DCF04188019100880FF29C01009003200AF0F0
S3150000DD0061FF01202070FAF798F99DF814206168E8
S3150000DD102846FCF759FCFAF796F99DF81400FF28F7
S3150000DD2018BF00F095FF6DB96068C18848F24002DF
S3150000DD301140402906D12178490703D44088FF21A4
S3150000DD4008F0F0FA0020207009B0F0BD0F4900E09D
S3150000DD500F4909780170002070470B48017811B906
S3150000DD604FF6FF7070474088704780B506490A78BD
S3150000DD70002A1CBF8968002901D1702002BD082233
S3150000DD80F5F7F8FA002002BD74DD032011E0032048
S3150000DD9012E003204242575742425700DFF83C2721
S3150000DDA010B512789042044601D3B12010BDDFF8B9
S3150000DDB030271368482010FB04F011B9FF211954CD
S3150000DDC003E048221844F5F7D5FA204600F0D5F8C6
S3150000DDD0002010BDDFF8042710B5127890420C46DB
S3150000DDE001D3B12010BDDFF8F8160968482212FBEE
S3150000DDF000F001442046F5F7BDFA2078012803D14A
S3150000DE00606840F018006060A07D18B1606840F45A
S3150000DE1080406060606801065CBF40F480506060CE
S3150000DE2000200C2111FB00F1214491F82C1021B1A6
S3150000DE30022906D003290BD00EE0616841F4803137
S3150000DE4009E0616841F48071616021F4805102E06B
S3150000DE50616841F040016160401C0228E1DB00205E
S3150000DE6010BD30B50020DFF87816DFF8702607E021
S3150000DE700C68C0B2482515FB00F5FF236355401C0E
S3150000DE801478C3B2A342F3D330BDDFF8502612781C
S3150000DE90904207D2DFF84816096848225043085CCA
S3150000DEA0012800D000207047F8B504460027DFF8A7
S3150000DEB03056DFF8286600E07F1C3178F8B28842D9
S3150000DEC012D2FFF7E2FF0028F6D02868FFB24821F9
S3150000DED011FB07F1084400F10801204600F0A4FDFB
S3150000DEE00028E9D03846F2BDFF20F2BD002000E050
S3150000DEF0401CDFF8E8251278C1B291420AD2DFF859
S3150000DF00E015C0B20968482212FB00F2895CFF29BD
S3150000DF10EED17047FF20704770B50446FFF7C4FF87
S3150000DF200546FF2D27D1FFF7E1FFFF28054622D042
S3150000DF30DFF8AC150968482250430E180C2221461A
S3150000DF4006F10800F5F716FA1022FF2106F11C006B
S3150000DF50F5F753FA0020B061FF2106F12C004FF6C9
S3150000DF60FF720176B282227A72600122327000223A
S3150000DF70B27501700173284670BDF0B5DFF85C1507
S3150000DF80097888428DB004466DD23422FF21684656
S3150000DF90F5F733FA2046FFF778FF00285DD04820D2
S3150000DFA0DFF83C6510FB04F53068284401788DF8ED
S3150000DFB0001041680191017C0A0006D100F10801B8
S3150000DFC0042202A8F5F7D6F90CE002290AD100F1DD
S3150000DFD00801082202A8F5F7CDF930682844407CEC
S3150000DFE08DF810001C2230682844817D8DF81110B0
S3150000DFF0817D114206D000F11C0110220DF11200A4
S3150000E000F5F7B8F9002730680C2128447943014414
S3150000E0100DEB070311F82C2F83F82220032A18BFD3
S3150000E020002A0ED100F12E01082209A8F5F7A2F95F
S3150000E0303068284400F13A0108220BA8F5F79AF94E
S3150000E04008E0022A06D1684600EBC7008A88828467
S3150000E0504988C1847F1C022FD5DB34236A462146BA
S3150000E0601D2002F044F80DB0F0BD2DE9F0418EB050
S3150000E0700026DFF86C44DFF864840CE0022B05D13F
S3150000E080BCF824008880BCF8260048806D1C022D50
S3150000E0904DDB761CF6B298F80000864263DA34232C
S3150000E0A032461D21684601F0DCFF482010FB06F7CA
S3150000E0B020689DF80010C155FF29EAD02068019913
S3150000E0C03844102241609DF8111081750DF112013E
S3150000E0D0206838441C30F5F74DF99DF80400800798
S3150000E0E010D520683844082202A90830F5F742F90D
S3150000E0F0216839440220087421689DF810003944CB
S3150000E10048740AE020683844042202A90830F5F76A
S3150000E11031F9216839440020087400252068384404
S3150000E120416821F48061416021F4007141602068FA
S3150000E1300C21384469430DEB0502084400F12C011B
S3150000E14092F822300B7092F82230032B6A4618BFE1
S3150000E150002B02EBC50C91D108220CF124012E30C4
S3150000E160F5F708F992E70EB0BDE8F08170B5002624
S3150000E170DFF86C43DFF864530AE02168F6B2482200
S3150000E18012FB06F2FF2088543046FFF7F6FE761C97
S3150000E1902978F0B28842F0D370BD66E7F8B5154627
S3150000E1A0DFF8382312789042044616D24820DFF86A
S3150000E1B0307310FB04F63868304410221C30F5F733
S3150000E1C0D9F838683044817D01F0E30141EA8501E0
S3150000E1D081752046BDE8F240CFE6F1BD10B5DFF807
S3150000E1E0FC22127803469342084605D3BDE8104048
S3150000E1F010220021F5F701B9DFF8E4120968482476
S3150000E2006343BDE81040194410221C31F5F7B2B83B
S3150000E2102DE9F84F0D46B149097888428246934662
S3150000E2201F464FD2482010FB0AF8280018BF032DBE
S3150000E2304FF00C09AA4C24D1BBF1000F42D00026A6
S3150000E24000F04EF808D0082259462E30F5F7DCF8D3
S3150000E25010B900F03FF835E0761C022EF0DB002600
S3150000E26000F03EF809D180F82C50082259462E308D
S3150000E270F5F780F800F02EF822E0761C022EEFDB90
S3150000E2801EE0022D1CD120680B9900EB08020A98AB
S3150000E290002600F019F8022D04BF5D8885420AD0D9
S3150000E2A0761C022EF5DB002600F00EF8FF2D04D1B9
S3150000E2B002221A705880998002E0761C022EF3DB47
S3150000E2C0504655E0BDE8F18F09FB06F3134413F8F9
S3150000E2D02C5F70472068009940440844C786704701
S3150000E2E009FB06F00090206800994044084490F825
S3150000E2F02C10FF2970472DE9F24F7849097800263E
S3150000E30088428146924628D24820002710FB09F809
S3150000E310FF24734D0C2000FB07FB2868404458443B
S3150000E32000F12C010A7842B1012A0DD0022A16D03A
S3150000E330032A02D0FF2A07D005E0009908222E30D2
S3150000E340F5F762F870B101267F1C022FE2DB16B9E1
S3150000E350286800F8084048460AE0BDE8F18F48887A
S3150000E3605045F0D128684044584480F82C40EBE7EB
S3150000E370BDE8F24F01E6594A1278904207D2584A50
S3150000E3801268482313FB00F3FF21D154F5E57047CB
S3150000E3902DE9FC4F0646084685B0710A01F00301D7
S3150000E3A00391F10A01F007018DF80910F10B01F054
S3150000E3B001018DF808104FF6FF79119CF10358BF43
S3150000E3C04C46F10607D5FFF76FFDFFF7D4FF002097
S3150000E3D007B0BDE8F08F9DF81480109DDDF848B0B9
S3150000E3E03F4F31074FF0480A5CD5FFF795FD814650
S3150000E3F09DF8080028B19DF80900052801DB0728CB
S3150000E400E5D1B9F1FF0FE2D0BDF818309DF8141030
S3150000E410019400955A464846FFF7FAFE9DF8080013
S3150000E42028B19DF8092013994846FFF7B7FE3868CA
S3150000E430039A1AFB09F108441AB9F20558BF0022DB
S3150000E44008D5039A022A18BF032A02D01AB9F20580
S3150000E45001D5149A8261827D039B02F0FC021A4365
S3150000E460827538684218F00503D5506840F02000E0
S3150000E4705060B00344BF159882F84400B8F1010F0C
S3150000E4800BD138680844F203416841F080014160CD
S3150000E49003D541F40051416084824846FFF76DFD83
S3150000E4A0012095E7FFF700FD0646FF2E04D0234620
S3150000E4B02A465946FFF71FFFB8F1010FF0D1386819
S3150000E4C01AFB06F108444168A0F8149021F0800177
S3150000E4D0416021F400514160E2E70000CD63032072
S3150000E4E0B85F032010B50AF0E1F815F0B7F8102070
S3150000E4F015F0BCF90006DFF8B8420FD5002015F07C
S3150000E500B5F900060AD56068800717D52068800728
S3150000E51014D501F083FD010012D010BD102015F0B6
S3150000E520A5F90006F5D4002015F0A0F90006F0D5EF
S3150000E5306068C00702D520688007EAD4B02010BD05
S3150000E5400EF022FD012006F0FDFB15F0D7F9FBF7D2
S3150000E55019FAFAF7EFFD0FF039FF0FF29020FBF7EB
S3150000E560D6FBDFF850120870F9F7C2FC0AF00EFF6E
S3150000E570FDF7B4F915F0CDF915F0CEF902F03EFA33
S3150000E580002010BD2DE9F04712F04CFE12F016FCEB
S3150000E590002006F016FF15F07BFADFF81C824046D5
S3150000E5A000F06EFE08B9FDF7D2FCDFF8109248467F
S3150000E5B000F066FE08B907F0DDFC07F008F908F080
S3150000E5C027FCDFF8F061DFF8F8513078DFF8F4A1C6
S3150000E5D0FBF785FB0AF0CEF8002700240AE0F9F7DE
S3150000E5E031FD2868007B001F022838BF0127F9F794
S3150000E5F02AFD641C9AF80010E0B28842EFD3002F7F
S3150000E6001EBF71480078002805D000F02AF81028AF
S3150000E61008BF0CF0DAFB0FF0A7FE15F081FB0EF039
S3150000E62077F807460AF0ACFE68B1404600F028FECF
S3150000E63048B1484600F024FE28B115F06FFB10B132
S3150000E6403078FBF786FB38460EF068F8F9F7F3FCEE
S3150000E65018B940F29D1100F042F8BDE8F04715F0F8
S3150000E66065BBF8B50AF090FE30B108F0E6FD00F0A3
S3150000E670010080F0010400E0012406F0DCFA002825
S3150000E6800CBF042500250AF07BFE48B14A4800F07D
S3150000E690F7FD28B1494800F0F3FD08B1002000E07D
S3150000E6A002204A49097801B12021474A127802B16D
S3150000E6B01022474B1B7803B14023464E36780EB1E5
S3150000E6C04FF40076444F3F780FB14FF480672C43E8
S3150000E6D0204308431043184330433843F2BD0FF23A
S3150000E6E0FC00FCF72DBC38B5044635480068007BB5
S3150000E6F0C01E03280BD3204605F043FC4FF6FF75DA
S3150000E700A84204BF204608F096FEA84204D120463F
S3150000E710BDE83240FAF705BE32BD70B504464FF685
S3150000E720F87084420D4601DB012070BD2000244EA6
S3150000E73007D13068007D800703D428460AF047FBDE
S3150000E740B0B930684288944205D1011D0822284696
S3150000E750F4F710FE0CE0007BC01E03280AD3204607
S3150000E76013F002FEFF2805D0294613F021FE08B15A
S3150000E770002070BD29462046FAF714FE401E80414F
S3150000E780C00F70BD0E480068008A70470C490968C2
S3150000E790088270470A480068408A70470849096835
S3150000E7A048827047064800680078704700000000FD
S3150000E7B0E881E00FE1EC0320C8610320B06103208B
S3150000E7C0C8DA0320CA63032028DE032044DA0320C4
S3150000E7D00CDA03205CDE03206CDE03207A696762B4
S3150000E7E065652D737461636B2E63000014DF03206F
S3150000E7F0773C020020DC032059F5000034DE0320BC
S3150000E800DD6D010078DA0320730E010044DE03207B
S3150000E810AD7301005CDF03208D19020044DA03208A
S3150000E820B563000054DA03206D64000028DE03207F
S3150000E830C7AD01003CDA0320E158000030DA0320BE
S3150000E84049AB0000FCDD0320F328010064DF032050
S3150000E850455A02000CDE03209D79010004DE0320E8
S3150000E8609D350200A4DA0320B390010084DE032064
S3150000E870458B01000CDA032047050100B8DA0320B6
S3150000E880BF7F00005CDE0320CB1C010074DE03208A
S3150000E890631D01006CDE0320191D0100E8DD032065
S3150000E8A069240100D0DA032017A1000064DD0320EB
S3150000E8B049D7000050DE0320E98601006CDD032005
S3150000E8C0B9D4000068DA0320216E000050DF03206F
S3150000E8D0656F020028DC032007FC0000C0DA032075
S3150000E8E0F380000000000000000000002DE9F8435E
S3150000E8F0064616F007041CBF022C00200D46904663
S3150000E900994631D100963FA3002221211120F3F729
S3150000E910B3FC07461CB900F084F83F1D06E0022C44
S3150000E92005D100F074F800F06FF80937BFB2DDF8D2
S3150000E9302C800A9C099D0898F3F75DFB00F06BF8A4
S3150000E94000F06CF821464046F3F774FBE419241DE9
S3150000E9507004A4B207D50D9D0C98F3F73BFB00F0AD
S3150000E9605AF8E41CA4B22046BDE8F2832DE9F84328
S3150000E970064616F007041CBF022C00200D469046E2
S3150000E98099463CD100961FA3042221211120F3F7BA
S3150000E99073FC07461CB900F044F83F1D06E0022C44
S3150000E9A005D100F034F800F02FF80937BFB2099806
S3150000E9B0DDF834800C9C0B9D00280CBF08980A9843
S3150000E9C0F3F719FB00F027F800F028F82146404637
S3150000E9D0F3F730FBE419241D3005A4B207D50F9DCB
S3150000E9E00E98F3F7F7FA00F016F8E41CA4B2B00597
S3150000E9F004D51098F3F7FFFA241DA4B22046BDE80B
S3150000EA00F2830000760000004846F3F7D4BA0821E6
S3150000EA104046F3F70FBB2846F3F7CDBA2046F3F787
S3150000EA20CABA2846F3F7E7BA38B504460D46207A3F
S3150000EA30010004BF297A002905D120682968884287
S3150000EA4018D0002032BD022804BF287A0228F8D147
S3150000EA50082229462046F4F7D7FC0028F1D1687A27
S3150000EA60617A814218BFFF2904D0FF281CBF002904
S3150000EA700028E6D1012032BD016888B24FF6F8724F
S3150000EA8000281CBF02EA000393420CD190EA114011
S3150000EA901CBF02EA0003934205D1090401D10720F5
S3150000EAA07047101880B27047602080F31188704755
S3150000EAB025490870704710B52349087848BBF4F714
S3150000EAC0B9FD30BB2149087860B10020F4F7CBFCD2
S3150000EAD0002438B9FBF764FC022818BF0124F4F7B8
S3150000EAE0D0FCB4B9002420460AF027FE38B92046E7
S3150000EAF00AF0FFFD68B920460AF002FE48B9641C18
S3150000EB00E4B2042CEFDB00F006F8022801D0012065
S3150000EB1010BD002010BD10B50D48007800220DE094
S3150000EB20D2B20C230B4913FB02F30B449C682178E9
S3150000EB3019B19979884238BF0846521C064B1C8881
S3150000EB40D1B2A142ECD310BD98EC0320B8630320E8
S3150000EB5099EC0320D85E03205E630320002080F337
S3150000EB6011887047DFF8F816096801EB4010704706
S3150000EB70DFF8F0261268115470472DE9F0410400C1
S3150000EB8035D00DF0C5FDDFF8E016DFF8E0360E787B
S3150000EB90FF228046FE2EDFF8D8061BD100260E7017
S3150000EBA0DFF8D0C6DFF8D06637781F70002708E098
S3150000EBB007F1010E05F807E0DCF80050EA555FFAA8
S3150000EBC08EF796F800E005687745F1DB05EB0E0653
S3150000EBD006F8012C1E78A6420BD240460DF09EFD8B
S3150000EBE0052009F0EEFF00211B20F9F788FAFF2027
S3150000EBF01EE0361B1E70DFF884360E780F78D3F8C9
S3150000EC0000E001250EF80750641E056815F807E0B8
S3150000EC1081F800E05FFA84FEBEF1000FEED1EA55FE
S3150000EC2000213046FFF7A4FF40460DF077FD304641
S3150000EC30BDE8F08110B504460DF06AFDDFF83C161C
S3150000EC4009680A5D521C0A55BDE810400DF066BD04
S3150000EC502DE9F041054600F031F804460DF058FD67
S3150000EC60DFF80426DFF80436DFF80466DFF80C86E2
S3150000EC70FF2D1FD0D8F800104F5D7F1E4F557F2700
S3150000EC80D8F800E01EF80510394213D13168495D05
S3150000EC9000270EF805701F787F1C1F70FF29376844
S3150000ECA092F800E007F805E0157006BF2546FF2438
S3150000ECB00D46DDE7BDE8F0410DF030BD80B5DFF86B
S3150000ECC0BC150968095C090603D5FFF74BFF0078F8
S3150000ECD002BDFF2002BDB0B504460D46FFF7EEFFAC
S3150000ECE0FF2818BFFFF7B4FFFF2DDFF8907504D19A
S3150000ECF03868015D01F07F0106E02846FFF79AFFBC
S3150000ED003868015D41F0800101552046FFF72AFF72
S3150000ED100570B0BD0EB478B504460120FFF72DFF8F
S3150000ED200546FFF71FFF0646FF2D08BFFF200FD041
S3150000ED30E1B22846FFF71CFF05A8002104E050F8C1
S3150000ED40042B06F8012B491CC9B2A142F7D3284669
S3150000ED5072BC5DF810FB70B504460D4605F11F0048
S3150000ED600004400D82B0C0B2FFF707FF0646FF2E33
S3150000ED700CD02946FFF7FCFE3CB1012000902B4643
S3150000ED8000223146204600F002F8304676BD73B5C3
S3150000ED9000F0C1F8405C15461E467119884203DA38
S3150000EDA04FF4B07100F0DCF830000CD0294601A811
S3150000EDB000F0DAF8024606989DF8041000903346F3
S3150000EDC0204600F001F873BD2DE9F843089CDFF8F2
S3150000EDD0A0840546894616461F460BE06A5C4254E7
S3150000EDE0491CB142FADBD8F80000BF1BAD1910F878
S3150000EDF009900026F8B2D0B14846FFF7B3FE801955
S3150000EE0056FA87F12029B9BFFFB23E46C6F1200661
S3150000EE10F6B22100324604D101462846F4F7AAFA92
S3150000EE20E1E7012C08BF2946F8D00021D9E7BDE863
S3150000EE30F1832DE9F04100F06EF882B0055D884659
S3150000EE4016467119C9B2A9421F4605DB30000CD01F
S3150000EE50204600F04EF808B1182007E00097334628
S3150000EE602A4621464046FFF792FF0020BDE8F6817C
S3150000EE700123DEE70A4600E0521C1378002BFBD183
S3150000EE80521A0223D2B2D4E7F8B5044601F11F00A4
S3150000EE90C50402F11F00C0042D0E000E05B90125A0
S3150000EEA000B90120854222D0DFF8C46310DA401B86
S3150000EEB0C0B2FFF762FE0746FF2F01D10020F2BD68
S3150000EEC0691EC9B2204600F02BF831680F540EE0D7
S3150000EED08A420CD2411EC9B2204600F021F80446EF
S3150000EEE03068005DFFF7B4FE3168FF200855012049
S3150000EEF0F2BD38B500F00FF80D46015D2A462046F2
S3150000EF00FFF7C2FF28B129462046FFF731FE002051
S3150000EF1032BD182032BD0446DFF84803006870474A
S3150000EF2004E0DFF84C231268105C491ECAB2002ABE
S3150000EF30F7D1704711B50C46DFF82813096881B080
S3150000EF40095C8C4203D34FF4FB7100F009F82146AB
S3150000EF5001A800F009F8044600F02FF9204416BD78
S3150000EF600FF22C30FBF7ECBF38B504460D46E9042A
S3150000EF702078090EFFF7D4FF207005F01F0032BD80
S3150000EF8080B5FFF7D7FF007802BD10B51446FFF72E
S3150000EF90D1FF047010BDB0B5FFF7BDFF82B0055DAF
S3150000EFA0FF2C03D140F21621FFF7DAFF05F11F000F
S3150000EFB00004400DC0B2FFF7E0FD0746FF2F0AD060
S3150000EFC02946FFF7D5FD0095002322460021384645
S3150000EFD000F0C2F83846B6BDF8B504460D461646EA
S3150000EFE00120FFF7CAFD0746FFF7BCFDFF2F01D141
S3150000EFF0FF20F2BD33462A462021204400F020F8A7
S3150000F0002118C9B23846FFF7B3FD3846F2BD10B530
S3150000F01082B004AC009400F001F816BD10B5144699
S3150000F0201A46029B2044091BBDE81040C9B207E0FE
S3150000F0300CB480B502AAFFF7CFFF02BC5DF80CFB4B
S3150000F0402DE9F047814615469A464F4600248846E4
S3150000F0500AE032463846F4F78DF93019BF19441ED6
S3150000F060E4B2641CE4B26D1C44453BDA2878010026
S3150000F07038D0312818BF32280ED15AF8041B07F8A9
S3150000F080011B3228EDD1641CE4B2A045A4BF0812CE
S3150000F09007F8010BE5DA25E034280ED1211D5AF8D0
S3150000F0A0040B88451EDB3870010A7970E41C010CDC
S3150000F0B0000EB970F8703F1DD2E7A0F133025AF87E
S3150000F0C0041B072A38BFA0F1300607D3A0F141027E
S3150000F0D0072A34BFA0F137065AF8046BF6B2301986
S3150000F0E04045B6DBA7EB0900C0B2BDE8F08770B5B6
S3150000F0F000F027F800F003F8301880B270BD060261
S3150000F100294620463CE700B583B002238DF804204B
S3150000F110120A8DF805200122009217E0F8B500F0DA
S3150000F12010F8FFF7ECFF8619E91CC9B2FFF7E9FFF3
S3150000F1300702A91CC9B2FFF7E4FFC01906EB00409D
S3150000F140F2BD0D46691C0446C9B219E70A460146D6
S3150000F15001A8FFF71CFE07BD2DE9FC4405B40A9C77
S3150000F16020001F4627D089B26846FFF7FDFE0646F7
S3150000F170B9B201A8FFF7F8FE0746BE42A8BF30465F
S3150000F180A4B2C0F120002546C0B2A842B8BF0546C9
S3150000F19000F013F882469DF80000FFF7E3FC2A46CC
S3150000F1A00AEB07013044F4F7E5F8641BA919EF19D7
S3150000F1B0A0B20028D7D1BDE8FF849DF80400D1E4B1
S3150000F1C070B504460D460DF0A3FA2A4B21781B684C
S3150000F1D0FF2908BF5D5503D019440E785E550D70A2
S3150000F1E02570BDE870400DF099BA38B504460DF0AB
S3150000F1F08FFA2178FF22FF2908BFFF2507D01D4B74
S3150000F2001B685D5C8D420EBF22705A5D5A540DF02C
S3150000F21085FA284632BDF8B504460D460DF078FA53
S3150000F22021780026FF2915D0124B1B680A460126B5
S3150000F23002E0761C3A46F6B29F5CAF4208D1DF5D2B
S3150000F2409F54A94206D18A4208BFFF22227001E0DC
S3150000F2508F42EED10DF062FA3046F2BD000000009A
S3150000F2606C5F0320705F0320EA630320C3630320FF
S3150000F270785F03207C5F0320C2630320745F032052
S3150000F2800078FF2801D10120704700207047000058
S3150000F2907061636B65742D6275666665722E6300B8
S3150000F2A038B5DFF87849DFF878590020E060207437
S3150000F2B0FF20607609F03AFA287014F02FFB01203F
S3150000F2C06076207C40F002002074281DFAF786FC48
S3150000F2D0002032BD2DE9FE4F81460D46144606F04C
S3150000F2E0D2FA8DF80600DFF83C7938689DF80610EA
S3150000F2F010F80900DFF82489401A8DF80500484601
S3150000F30006F0E0FA00F00C0004280CBF01260026E7
S3150000F3104846FFF7D3FC8DF80400FF280EBF4FF0D8
S3150000F320000B396811F800B0002002908246FF20D9
S3150000F33088F818006F1CDFF8F0080068007BC01E14
S3150000F340032802D209F00DFA26E0484606F0BAFA7A
S3150000F3500C21084218D104B3484606F09EFA02F082
S3150000F36069FB82464FF440411AEA010F07D05FEA73
S3150000F3708A5004D5DFF8B40809F0B7F90CE0DFF8D5
S3150000F380A8080068C07B07E03CB1484606F010FBC1
S3150000F39007F09AFB09F0ABF9207030001DD0484603
S3150000F3A006F0A2FA04464FF6FF7048F6410A844278
S3150000F3B018BF48F6610AF8F77EFE0146F81C02F00F
S3150000F3C040FB2146781D02F03CFBF8F770FE014633
S3150000F3D0F81D02F036FB09370297002000909DF8D1
S3150000F3E005309DF8062049463846FFF7D0FC9DF8C3
S3150000F3F00500BBF1000F074409D0002000905B46D2
S3150000F4009DF8041000223846FFF7C1FC5F4476B130
S3150000F410484606F042FA407880072FD5029868B32E
S3150000F420391A4A46C9B2FCF784FC074426E0A87894
S3150000F430697801EB002080B2C10901F0010181F079
S3150000F44001064FF67F7101EA000A0AF00700032859
S3150000F4500CD16946484609F01DF9681C06F068FAA1
S3150000F4609DF8001008182844407805E0DFF8C0072A
S3150000F4700078082802D1072088F81800484607F0C7
S3150000F4802DFC08B14AF0100A5146681C02F0D9FA60
S3150000F4901AF0070F05D1DFF888070178491C0170BB
S3150000F4A005E0DFF884070068017E491C0176781BB9
S3150000F4B0E970401C2870781B7F2802DBE22100F0EF
S3150000F4C022FB3046BDE8FE8F70B5DFF85067044674
S3150000F4D0F0680D4608B1002070BD14F0E4FB48B199
S3150000F4E0307C002804BF307A002803D115B1A0472C
S3150000F4F0012070BD307CF46040F004003074DFF809
S3150000F5003407FAF76BFB022070BD0121DCE790E0BF
S3150000F51038B50446DFF80407007E0D46811F012931
S3150000F52003D8214601F09BFD78B9284606F0CFF9AD
S3150000F530F8F788FD2146284607F0F8FB18B921465A
S3150000F5402846FDF734F9F8F77EFD2846FFF780FBDD
S3150000F550BDE831400DF074B9DFF8C416002008711B
S3150000F5606BE080B500F037FB70B1DFF8B4060079C8
S3150000F570002801BFDFF8A406017C0F22114203D147
S3150000F580007A08B9012002BD002002BDF8B5044684
S3150000F590DFF8A4060078002802BFDFF88066F0686E
S3150000F5A000280D4626D1DFF8880600780A2818BFFD
S3150000F5B0022D1FD10DF0ACF8327A082A074617DA69
S3150000F5C0012D08BFB45404D03146701CF3F7D2FEA7
S3150000F5D03470307A401C307238460DF09FF8204661
S3150000F5E0FFF728FBDFF84C06FAF7F8FA0120F2BD20
S3150000F5F00DF094F80020F2BD38B504460DF088F8F9
S3150000F6000546DFF81806017A69B101782170017A9A
S3150000F6104A1E0272411CD2B2F3F7ACFE28460DF028
S3150000F6207DF8012032BD28460DF078F8002032BD65
S3150000F63000BFDFF80006FAF7D1BA70B582B014F051
S3150000F64032FB002800F09380DFF8D045207C80074D
S3150000F65006D5607E14F02DFB207C00F0FD002074A2
S3150000F660207CC00702D4F8F740FDA0B1207C00F052
S3150000F670FE002074F8F737FDF8F7E4FC08F077FA97
S3150000F6808DF8000006F023F9F8F7F8FC00284ED0B4
S3150000F6900420207650E06846FFF7AEFF0028DFF82A
S3150000F6A0905551D09DF8000006F00CF9012400F0A9
S3150000F6B00C000C2824D19DF8000006F0EEF8064652
S3150000F6C09DF800000DF1010108F0E4FF304606F058
S3150000F6D02FF99DF801100818811D9DF80000C9B288
S3150000F6E0FFF74EFC2978052902D1062808D106E045
S3150000F6F001291CBF0329082902D1072800D10024AB
S3150000F7009DF8000006F0DEF800F00C00082802BFA5
S3150000F7102878082800249DF8000006F0D8F8054649
S3150000F720F8F790FC1CB12846F8F7A8FC20B99DF81C
S3150000F730000014F0F9F904E09DF800104120FFF7ED
S3150000F740E7FEF8F780FC73BD28780A2802D112F08C
S3150000F75035F960B9207C410707D5E168002200F041
S3150000F760FB00E2602074884773BDF8F728FC73BD80
S3150000F77080B5F8F7B7FCDFF8A404017C41F001017D
S3150000F7800174DFF8B004BDE80240FAF727BADFF8E3
S3150000F7908C04017C01F0FE01017470472DE9F04FE5
S3150000F7A0DFF88094A5B0044602A80021C0E9001144
S3150000F7B002AE2046FFF7D6F908230578817840780F
S3150000F7C000EB0127002000902146D9F80000005DDB
S3150000F7D0A0F10802D2B202A8FFF7D9FA707800F0B9
S3150000F7E00F00F8F72FFCDFF850040078BFB2A846E8
S3150000F7F020B3DFF84874386800281ED0F07804F08B
S3150000F800E7FF414604F0E5FF804696F9026004A84A
S3150000F810802108F09DFF002000906B1CDBB20022C7
S3150000F820214604A8FFF7B3FAF8F707FC3B6832460F
S3150000F830414604A89847F8F706FCA8E007F0070039
S3150000F8400228FAD0FF208DF804002046FFF78AF937
S3150000F85000F1010A504606F06BF88346A5EB0B0053
S3150000F860851E6DB2002DE8D401208DF800006B4690
S3150000F87001222146002008F024FF9DF80000002800
S3150000F8801DD0B80506D507F00700032818BF17F0E6
S3150000F890070F10D101A9504600F000FB002876D1D1
S3150000F8A007F0070001280BD19DF804000AEB0B01B5
S3150000F8B0FDF7C2FA20B99DF80400FFF7C9F966E022
S3150000F8C09DF80400D9F800100F5CDFF8741309687E
S3150000F8D00C54D9F80000005D00F120019DF80400E9
S3150000F8E0C9B2FFF745F99DF8040005F0EBFF00F0FB
S3150000F8F00C0004281CBF5D444FF0000B68B280B2B8
S3150000F90000900BF101039DF804009BB22246394694
S3150000F910FFF722FCE9199DF80400C9B2FFF7E9FADE
S3150000F920C8497078097800F00F00884203DB4FF46D
S3150000F930217100F0E8F89DF8040005F0BEFF71782B
S3150000F940C0F30D0040EA81319DF8040089B205F04C
S3150000F950B6FFF07804F03CFF414604F03AFF024659
S3150000F9609DF80400032105F081FFB2789DF804009C
S3150000F970042105F07BFF9DF808209DF80400052171
S3150000F98005F074FF9DF80440204600F008F8204674
S3150000F990FFF75EF9F8F757FB25B0BDE8F08F2DE9C4
S3150000F9A0F8430446FF2C03D140F2AD2100F0ABF83A
S3150000F9B000F0AEF800F0ABF800F00C00082875D0A7
S3150000F9C005F00C000C2871D1204605F066FF0646AE
S3150000F9D002F030F869468046204608F05BFE0028B3
S3150000F9E008F44C453FD0204605F04DFF074630460B
S3150000F9F005F09EFF9DF80010C0190918C9B22046EF
S3150000FA00FFF7BEFA07464FF4406018EA000F4FF6BC
S3150000FA10FF7906D0F01C02F00DF8484508BF45F006
S3150000FA20400508F44060B0F5006F06D1701D02F085
S3150000FA3001F8484508BF45F010059DF8000000286C
S3150000FA4018BF072F5DD1012F4CF650001DD0022F95
S3150000FA501ED0042F08D0062F26D0072F26D0082F19
S3150000FA601DD07C2F17D04CE0B5F5484F18BFB5F523
S3150000FA70084F05D0B5F54C4F18BFB5F50C4F40D122
S3150000FA80204607F0B1F800280CE0B5F5484F0DD038
S3150000FA90B5F54C4F06E0B5F54C4F07D001E04CF6F6
S3150000FAA04040854202D02CE085422AD1204605F00E
S3150000FAB004FF00F02CF800F00C00082816D0A80669
S3150000FAC014D54FF6DF7000EA0501204605F0F7FE73
S3150000FAD0204605F0D8FE0546204605F0DEFE05F078
S3150000FAE027FF4119C9B22046FFF703FA21465648B7
S3150000FAF0FFF766FB2046FFF79DF854480078FAF7B3
S3150000FB0067F9BDE8F1830FF27C10FBF719BA0546D9
S3150000FB10204605F0D7BE38B50C460246002108201F
S3150000FB2005F081FF0546FF2D01D1012032BD21469A
S3150000FB30FFF72CFD04462846FFF78AF884F00100FB
S3150000FB4032BD0121E7E7354A53690BB17020704792
S3150000FB505061084614F007B838B5304C65691DB9D0
S3150000FB604FF45A71FFF7CFFF00206061A84731BDFF
S3150000FB702A494A69824203D10020486113F0FEBF38
S3150000FB8070474FF6FF71884200D1704780B5014635
S3150000FB902F48FFF7D8FF38B1BDE8044040F27A316C
S3150000FBA00FF2E000FBF7CCB901BD10B51B4C627E2D
S3150000FBB090420FD0607614F076F820B1607EBDE8F2
S3150000FBC0104014F076B8207C40F002002074BDE8A6
S3150000FBD010402EE510BD80B5154800780A2801D0E2
S3150000FBE0002002BD14F05FF800B1012002BD80B50F
S3150000FBF0FFF7F1FF30B104F01BFC18B1BDE801407E
S3150000FC0014F0B6B801BD80B5FFF7F1FFBDE80440BA
S3150000FC104FF4A0510F48F9F7EBBF0000E0DB0320DB
S3150000FC201CDC0320705F0320C8DA03205CDA0320A3
S3150000FC30E563032020DC03205E70032018DC03202C
S3150000FC40785F0320CA630320C8610320E1EC032028
S3150000FC50790F010028DC032010B514F0CFF8044614
S3150000FC6014F067F960B104F44030B0F5403F01D1BB
S3150000FC70022010BDB0F5003F01D1012010BD0020CB
S3150000FC8010BD000075707065722D6D61632E630086
S3150000FC90F8B50446E01C01F0CDFE0646601D0025C1
S3150000FCA001F0C8FE4FF6FF77BE42044608BF0125A5
S3150000FCB004D0FEF76FFD864208BF0225BC4208BF8E
S3150000FCC045F0040505D0FEF75DFD844208BF45F00A
S3150000FCD008052846F2BDF8B5054601F0ABFE064616
S3150000FCE04FF6CF7000EA06072846FFF7D1FF00243B
S3150000FCF048F641018E4208BF052809D1E81D01F0EA
S3150000FD0099FEBE490988884214BF0224062412E0DF
S3150000FD104CF6010087421ABF4CF601408742012487
S3150000FD2009D0F8F78AF9284608F0CFFC0546F8F717
S3150000FD308AF905B10824B24800782040F2BD3CB5E6
S3150000FD400FF2D0230021D3E90045CDE9004528B9BB
S3150000FD50AC490860002036BD491CC9B230F81120F4
S3150000FD601304F5D4002300E05B1CDBB23DF813401E
S3150000FD702504F1D49442F7D1022036BD2DE9F04F87
S3150000FD800446884683B0404601F054FE9D4D8346A6
S3150000FD90286800260027002801BFA8680028686890
S3150000FDA000284FF0030968D04FF440611BEA010FA9
S3150000FDB00BD008F1030001F03DFE4FF6FF718842BB
S3150000FDC00CBF022701274FF0050947F008000190F4
S3150000FDD00BF4404A5FEA4B6015D4BAF1000F16D017
S3150000FDE00BF44060B0F5406F0CBF08200220484479
S3150000FDF0C0B2404401F01EFE0090FEF7CBFC009915
S3150000FE0089B2814201D1019F01E047F004070BF45A
S3150000FE104040B0F5004F08BF47F0800704D0BAF164
S3150000FE20000F02D147F48077BFB20BF44060B0F503
S3150000FE30006F0BD108EB090001F0FCFD8046FEF7D0
S3150000FE40A1FC804508D147F0100704E0B0F5406FEB
S3150000FE5002D147F02007BFB2002001E0002610B90A
S3150000FE60A968802205E0012807BF69684022296841
S3150000FE70102231B9401C0328F0DBFF20BDE8FE8FBD
S3150000FE80761CF6B231F816305FEA0348F2D49F4288
S3150000FE90F6D104B122703046F0E700002DE9F047B4
S3150000FEA08146884601F0C6FD0546E80800F00107D0
S3150000FEB04846FFF7EDFE044605F0070605F4406ADE
S3150000FEC04FF6F7700540504800780A280FD00828EA
S3150000FED00DD8DFE800F083058305050A0C0C070042
S3150000FEE0002E00E0012E01D101E0032E76D11FB3D2
S3150000FEF0002E73D10A2801D1A0076FD5B5F5004FA2
S3150000FF001CBFB5F5624FB5F5404F67D10026E80630
S3150000FF1048BF46F08006A80648BF46F4805606F05D
S3150000FF200C0004285CD109F1070001F083FD0146AD
S3150000FF30FF2246F0040056E0032E344F4ED8DFE889
S3150000FF4006F00205032ED5E73B2054E04FF6CF70AE
S3150000FF5000EA05064846FFF7BEFE20B94946FFF708
S3150000FF600DFFFF2801D00826D1E748F6410086425A
S3150000FF7034D10A2C18BF062C30D160070DD5F6F700
S3150000FF80ECFF20B13868007B001F022826D313F04F
S3150000FF90A0FE18BB40F60406B9E70426B7E714F03E
S3150000FFA0030005D1FEF7F6FB4FF6FF71884215D127
S3150000FFB00C26BAF1000F0DD0BAF5006FA7D0BAF52E
S3150000FFC0406F0BD10822124909F10500F3F71CFA1C
S3150000FFD020B99CE73868007B012898D03A200AE0CF
S3150000FFE0FF220021304605F01EFDFF280EBF182017
S3150000FFF088F800000020BDE8F08700009063032029
S31500010000E8EC032030DC0320E5630320C8DA032093
S315000100103CDC0320990089000080000010B5DFF860
S315000100202C410120207082B0002013F0A1FF38B1CD
S31500010030002013F09DFF18B100202070492016BD45
S3150001004002237F220021684600F00BF8BDF800006C
S31500010050B0F57F7F03D000212170072016BD002057
S3150001006016BD38B5B1F5807F09DADFF8E0502C7896
S3150001007054B101B0BDE83040C9B214F057BA01B06D
S31500010080BDE830400DF0F0BD31BD38B5B1F5807F2A
S3150001009004460ADADFF8B450287838B3204601B0AE
S315000100A0BDE83040C9B214F07CBA00257F2A08BFEA
S315000100B0002212FB03F201F47043C1F30B00B3F506
S315000100C0805F08BF40F07E6008D001F47041B1F551
S315000100D0405F05D140F07C6040F40110151804E042
S315000100E07521DFF86C00FAF72BFF256031BD2DE98C
S315000100F0F0410446B4F5807F884615461E4616DA59
S31500010100DFF848000178C1B1DFF84870387818B1D6
S3150001011084210F48FAF714FF01223A70334642460A
S315000101202946E0B214F081FB0020387005E0324622
S315000101302946BDE8F0410DF0F0BDBDE8F081034A66
S315000101401178002918BF14F071BC7047AEEC03207A
S31500010150580B0500AFEC03202DE9F04385B00746A7
S3150001016068466149DFF884811422F8F719F80024FA
S3150001017033E0E0B2F2F754FC8DF8010000250C21C2
S315000101805B4869434618B6F800909DF80100494658
S31500010190F2F799FBF0B19DF80100ADF802904946DE
S315000101A0F2F794FBB0B17088ADF80400B088ADF8F1
S315000101B00C00F088ADF80E00B06804903868042889
S315000101C00ADC1422504369464044F3F7D3F83868F1
S315000101D0401C38606D1CD2DD641CF2F714F98442B0
S315000101E0C7DB05B0BDE8F08338B5424D424C2878EF
S315000101F020B92046FFF7B0FF01212970206832BDE2
S315000102002DE9F04F87B0FFF7EFFF5FEA000935D020
S3150001021005234A463949DFF8E8A0DFF8E8B0DFF8F8
S31500010220E8800120F6F7BDFF00272EA64F4525DA07
S3150001023014212E48794345182846F4F7C5FF0400D2
S3150001024014BF3046404606903B4628690590224633
S31500010250E88904905946A8890390A888029068887D
S315000102600190687800900120F6F79BFFFF2C03D1DF
S3150001027029215046FAF764FE7F1CD7E707B0BDE88F
S31500010280F08F38B504002AD0FFF7AEFF002100E059
S31500010290491C814223DA1423144A4B431A446378D6
S315000102A05578AB4202BF63885588AB42F0D1A3882B
S315000102B09588AB4202BFA3799579AB4202BF2389E8
S315000102C01589AB42E4D10020207004F10C0102F142
S315000102D00C00D0E90023C1E90023012032BD002032
S315000102E032BD000053657400A4F00400B07303200E
S315000102F098F004007BEC032014740320BCEF040087
S3150001030074F0040000F004006CF00400DFF8180734
S31500010310007800B101207047DFF80C170A78072A28
S3150001032018BFFFF7F3BF80B5902803D100200870EE
S3150001033002F040F8BDE80140E8E770B5164604460C
S315000103400D46FF22F6F751FE28B90022294620461E
S31500010350F6F74BFE50B146B16908204604F05AF84B
S3150001036008B9A52070BD002070BD702070BD70B5A4
S315000103700546084614461E4632460821FFF7DDFFAC
S31500010380010015D1324602212846FFF7D6FF0100AA
S315000103900ED12078010018BFFF2806D0DFF88C1691
S315000103A0C140C80703D5702070BD0B202070002006
S315000103B070BD10B5441A48BF6442C92C0A4602DB17
S315000103C0884203D201E0884200D30246904201D11D
S315000103D0012010BD002010BD70B50446DFF850069F
S315000103E0006886B00D46407B0F21084206BF94F88F
S315000103F028000228702038D10123A21C211D204685
S31500010400FFF7B5FF060030D194F8260000F0820010
S3150001041040F0010014F030FC94F82800DFF80816CB
S315000104204870182200216846F2F7E7FF0822211DCD
S315000104306846F2F79FFF2088ADF808008DF80A504C
S315000104406B46A0788DF80B004FF4417103208DF8AF
S315000104500C00DFF8E0050590012094F82820F5F757
S315000104606CFA0646F7F7ABFD304606B070BD30B5FF
S315000104708BB004460D462C2200216846F2F7BDFFDB
S3150001048041F60630ADF80000102205F115010DF117
S315000104900200F2F76FFF102221460DF11200F2F76A
S315000104A069FF284614F00DFC684602F09BFC0BB070
S315000104B030BDDFF874050078012818BF00207047A9
S315000104C0DFF864054078010003D1DFF864050068B0
S315000104D0007B704770B50546DFF85C05DFF85C65A3
S315000104E04180144628883081A878F072F6F7ABFD72
S315000104F0B0720822291D3046F2F73CFF687B307442
S31500010500DFF83005706103203073200009D114F043
S31500010510A4FBC00705D404224FF6FD710020FAF7AB
S3150001052034FB9120F6F7DEFCDFF8FC0403210170B1
S31500010530002CBDE8704014BF4FF400614FF4007108
S31500010540001DF9F755BB38B5DFF8DC4400202071F2
S315000105502078032838D114F080FBDFF8DC542978A1
S31500010560002914BF4FF6FF614FF6FF7108404FF6A1
S31500010570FE71084014F080FBDFF8B41401202870E6
S31500010580002009684873FFF79BFF0328BCBF0720BB
S315000105902070FBF7CEF941F60631002008F0B7FBD3
S315000105A0FFF78EFF02466988DFF890340020F5F7E1
S315000105B0C4F9FFF785FF03281ADB0020207000210C
S315000105C00120F5F704FB13E0042818BF052808D11C
S315000105D0FFF776FFF6F74FFA0020207000F0ABF830
S315000105E006E0062804D100202070A078FFF7DDFA86
S315000105F0BDE83140F7F7E3BCF0B5DFF82C740446EB
S315000106003878012883B00D46164615D104F06BF8EB
S31500010610009001962B4622460FF23C410020FEF740
S3150001062007FDDFF81C14FF28087005D0022038707A
S31500010630BDE8F74000F0C4BBF7BD70B5DFF8E8438D
S31500010640217894F9030001298AB00BD10021217088
S31500010650F6F7EFFCF7F7F1FC0020F4F7EEFEF7F7FB
S31500010660F2FC63E0022963D1F6F7E3FCF7F7E5FC58
S315000106700120F4F7E2FEF7F7E6FC1822002103A8B1
S31500010680F2F7BBFEE078DFF8B8538DF816000C21BF
S315000106902878FEF775FC8DF81700012303208DF8E5
S315000106A018000DF1170200208DF81C0003A9DFF8D0
S315000106B08403089005A8FFF75AFE06460020F6F7C0
S315000106C011FC300007D103AB02224FF44171002027
S315000106D0F5F733F906462EBB01A80021C0E9001142
S315000106E028780821FEF71AFD064628780D21FEF71F
S315000106F047FC0020009008232978002201A8FEF774
S3150001070046FB2878FEF7A4FAFF2028700023012271
S3150001071001A9304612F05EFA4FF40051201DF9F797
S3150001072067FA03E00020207000F005F8012000E0E0
S3150001073000200AB070BD00B585B000F0E7F89DF85D
S31500010740030000F056F994231322B4A1032008F004
S3150001075039FA9420F7F7D1FCFFF7B2FE032808DB3C
S31500010760B348006840884FF6FF71884208BF0320EE
S3150001077000D00220F6F7B6FB05B000BD2DE9F04129
S3150001078096B004460D4616469846082205F11C0108
S3150001079005A8F2F7EFFDAB4800780127022803D13F
S315000107A014F05BFAC0076FD5022C08D1FFF788FE5B
S315000107B0032869DB14F051FAC00704D464E0FFF79B
S315000107C07FFE032860DA288B14F0F6FAFF285BD047
S315000107D007AB424605F11001002014F000FB00288A
S315000107E052D10E22314601A8F2F7C4FDBDF80C0024
S315000107F0BDF80A10884204D20020ADF80A00ADF80F
S315000108000C00BDF80800BDF80610884204D200208D
S31500010810ADF80600ADF80800BDF81000BDF80E10E1
S31500010820884204D20020ADF80E00ADF81000BDF8E4
S315000108301000BDF80E30BDF80A20BDF80810009072
S31500010840BDF8060014F0DEF9F0B9200034D1A8781D
S3150001085010B9F6F7FDFBA8700123AA1C291D28462D
S31500010860FFF785FD80B90122002107A802F0CAFE23
S315000108700BA814F009FA0DF14103002241F60631E5
S31500010880402008F00DFA00272A462146384612F084
S3150001089045FA77B9318800222846FFF71BFE012069
S315000108A0F6F720FBF7F7C9FB2846F4F7C7FDF7F77C
S315000108B0CAFB16B0BDE8F0810023CEE77FB55A49E1
S315000108C015460A78042A1C461FD100220A710A70AD
S315000108D010B1FFF730FF7FBDFDF754FF06467DB12E
S315000108E000F014F8082202A9201DF2F743FD9DF835
S315000108F00300A070BDF80000208001F03FFF607387
S31500010900012231462046FFF7E5FD7FBD1023072270
S315000109106946012008F089BC30B583B004460D460E
S315000109206846F6F7EBF908226946201DF2F76CFDD9
S3150001093080B9FDF72FFF218881420BD101F01EFFFF
S315000109400146607BFFF735FD20B10022294620468E
S31500010950FFF7C0FD37BD80B5012014F08DF932498E
S315000109600020087001BD70B504460D461646FFF716
S31500010970A7FD032811DA3448007870B1AC420CD1D6
S31500010980B0070AD5284606F08CFD30B1007920B9AA
S31500010990BDE870402D48F9F721B970BD10237F22BB
S315000109A01A21FFF75EBB28237F221B21FFF759BBC4
S315000109B0024610237F211A20FFF799BB80B514F058
S315000109C04CF9000A00F0010080F0010002BD80B57B
S315000109D014F043F910F4807018BF0120C0B202BDB3
S315000109E080B514F03AF910F4807018BF0120C0B236
S315000109F002BD0F4909688873F7F7B7BA80B514497C
S31500010A001448086014F029F9C00702D406490720E2
S31500010A10087001BD0B480078704700004242000093
S31500010A20084908700020704708DA0320FF0700F81C
S31500010A30C8DA032000F8FF078663032014DA0320CF
S31500010A40E4630320DD63032064EC032004DE03205A
S31500010A5038DC0320A0B8050038343132000000002C
S31500010A6038B5764D2878702458B9754A00F0B1F832
S31500010A70040002D10221297003E02346714A00F0E5
S31500010A8041F8204632BD38B56C4D2878702468B9D6
S31500010A906B4A106804210DF0B3F9040002D101215B
S31500010AA0297003E02346684A00F02CF8204632BD3F
S31500010AB030B587B00446F0F7E5FD0125C8B1182227
S31500010AC000216846F2F799FC0822211D6846F2F7D3
S31500010AD051FC2088ADF8080003218DF80A10A07892
S31500010AE08DF80B00F4F714FC6846F8F777FA050061
S31500010AF006D02B46554A00F005F85548F9F76EF829
S31500010B0007B030BD53490220F6F74BBBD0E710B50D
S31500010B10024608460321F4F725FC040007D02346C4
